10215471080520011M S DARYARANI CONST P LTD               LIFT AAKAR KALYAN A WING                YARI RD VERSOVA ANDHERI W               231416261                                                               R08092010600028299000771680401010004356900000                              M 0400000000000231416261   20101008                               439089900  00                                   4000858011592708102010                                                     M              590D3D21
10217136980520011JAGANNATH PEDE                          FLAT NO 701 AAKAR BLDG KALYAN COMP      YARI RD VERSOVA ANDHERI W               231453832                               near kalyan complex             R08092010700012099000755502901020006553800000                              M 0400000000000231453832   20101008                               656559900  00                                   4000858011593508102010                                                     M              43274702
15020777380520011MR.ARIF MOHD.                           A S N CHS. LTD. AAKAAR A/702            KALYAN COMPLEX                          231453897                               YARI RD VERSOVA ANDHERI W       R08092010700033599000752562302010002879300000                              M 0400000000000231453897   20101008                               292789900  00                                   4000858011594608102010                                                     M              6F3B0B13
10217132980520011M DARYAMANI INDOSAIGAN COUST            601  P LTD AAKAR KALYAN NAGAR           YARI RD VERSOVA A BLDG ANDHERI W        231452195                               X                               R08092010700027699000776432303010001283800000                              M 0400000000000231452195   20101008                               131209900  00                                   4000858011595208102010                                                     M              5692C2B4
10217129880520011JAGANNATH SIDDHE                        501  P LTD AAKAR KALYAN NAGAR           YARI RD VERSOVA A BLDG ANDHERI W        231452139                               nr kabristaan                   R08092010700009399000773355003020000010900000                              M 0400000000000231452139   20101008                                 3169900  00                                   4000858011595708102010                                                     M              3BCF8FE5
15083719980520011NILOUFER JIVAN                          A-602  AAKAR  ASN CHS LTD KALYAN COM    PANCH MARG YARI RD.OPP.MANGAL NAGAR     231453078                               ANDHERI (WEST).                 R08092010700013499000752723504010001991500000                              M 0400000000000231453078   20101008                               200439900  00                                   4000858012000308102010                                                     M              47F3B3D6
10217121980520011M DARYAMANI INDOSAIGAN COUST            302  P LTD AAKAR KALYAN NAGAR           YARI RD VERSOVA A BLDG ANDHERI W        231451385                                                               R08092010600018999000770766304020000087500000                              M 0400000000000231451385   20101008                                10779900  00                                   4000858012001008102010                                                     M              41B5E597
10217130980520011SHOBHANA GANDHI                         502  P LTD AAKAR KALYAN NAGAR           YARI RD VERSOVA A BLDG ANDHERI W        231452178                               NEAR BANK OF INDIA              R08092010600004699000766408105010006375600000                              M 0400000000000231452178   20101008                               638519900  00                                   4000858012001708102010                                                     M              391D4D38
10217127480520011SAYED HUSAIN KAZIM HUSAIN               FLAT NO    402 A WING AAKAAR BLDG A S NICHS LTD K CMLEX YARI RD VERSOVA A'E     231450559                               /                               R08092010700057499000793008105020000300300000                              M 0400000000000231450559   20101008                                36209900  00                                   4000858012002108102010                                                     M              6BFFAFD9
10217120880520011J CHANDI                                301  P LTD AAKAR KALYAN NAGAR           YARI RD VERSOVA A BLDG ANDHERI W        231449994                                                               R08092010700031199000778400806010001156700000                              M 0400000000000231449994   20101008                               119079900  00                                   4000858012002608102010                                                     M              622626010
10217126080520011SYED ABBAS                              A-401    AAKAR SAARKAR NIRAKAR CHS LTD  KALYAN COMP YARI RD VERSOVA ANDHERI     231451343                               NR BANK OF IND YARI RD BRANCH   R08092010700020099000773928506020000753600000                              M 0400000000000231451343   20101008                                77039900  00                                   4000858012003208102010                                                     M              4C98E8B11
15044853580520011SARLA NAIR                              202,    AAKAAR, A.S.N. CHS LTD,         KALAYAN COMPLEX, YARI ROAD, VERSOVA,    231450542                               NEAR KALAYAN COMPLEX            R08092010700017699000768764107010000889400000                              M 0400000000000231450542   20101008                                90319900  00                                   4000858012003608102010                                                     M              4B7F2F512
10217116980520011M DARYAMANI INDOSAIGAN COUST            201  P LTD AAKAR KALYAN NAGAR           YARI RD VERSOVA A BLDG ANDHERI W        231449954                               NR BANK OF INDIA                R08092010700032799000777461807020001152600000                              M 0400000000000231449954   20101008                               118279900  00                                   4000858012004508102010                                                     M              666212413
10217114980520011M DARYAMANI INDOSAIGAN COUST            102  P LTD AAKAR KALYAN NAGAR           YARI RD VERSOVA A BLDG ANDHERI W        231449187                                                               R08092010700022099000773426108010001896800000                              M 0400000000000231449187   20101008                               191779900  00                                   4000858012005508102010                                                     M              54D080F14
15099506680520011KARIMA J. BHAGAT JEHANGIR M. BHAGAT     A-703 AKAR    AAKAR SAAKAAR NIRAAKAAR CHNEAR BANK OF INDIA                      231453883                               KALYANI COMPLEX YARI ROAD ANDHERR08092010700000099000773044310010000006600000                              M 0400000000000231453883   20101008                                  859900  00                                   4000858012005908102010                                                     M              1125B5015
15094509880520011MR.ASHLEY D'SILVA                       A-603 AAKAR                             AAKAAR SAAKAAR NIRAAKAAR CHS. LTD       231454433                               KALYAN COMPLEX YARI RD ANDHERI WR08092010600000199000772020410020000003000000                              M 0400000000000231454433   20101008                                  309900  06ZN                                 4000858012010408102010                                                     M              2E4A1A616
10215469680520011M S DARYARANI CONST P LTD               S CASAAKAR KALYAN A WING                YARI RD VERSOVA ANDHERI W               231416273                                                               R08092010600047899000680591311010003021600000                              M 0400000000000231416273K  20101008                               307109900  00                                   4000858012011608102010                                                     M              6A9EAEB17
10217131880520011KISHORE GANDHI                          503  P LTD AAKAR KALYAN NAGAR           YARI RD VERSOVA A BLDG ANDHERI W        231453039                               NEAR BANK OF INDIA              R08092010700008299000754112411020004155600000                              M 0400000000000231453039   20101008                               416649900  00                                   4000858012012108102010                                                     M              36A2F2818
10217129180520011ZUBEDA PARKAR                           403  P LTD AAKAR KALYAN NAGAR           YARI RD VERSOVA A BLDG ANDHERI W        231450595                                                               R08092010700000499000773783612010003534300000                              M 0400000000000231450595   20101008                               355929900  H2                                   4000858012013208102010                                                     M              21D5E5F19
10217124380520011M DARYAMANI INDOSAIGAN COUST            303  P LTD AAKAR KALYAN NAGAR           YARI RD VERSOVA A BLDG ANDHERI W        231451408                                                               R08092010700009999000769816312020007220800000                              M 0400000000000231451408   20101008                               723199900  00                                   4000858012014308102010                                                     M              335707720
10217119380520011ABDULGANI MULLA                         A-203 AAKAAR SAAKAAR NIRAAKAAR CHS      LTD KALYAN NGR YARI RD ANDHERI W        231449969                               nr bank of india                R08092010600020799000768654813010001135300000                              M 0400000000000231449969   20101008            01                 116849900  00                                   4000858012015408102010   11984                                             M              57B3D3921
10217115880520011M DARYAMANI INDOSAIGAN COUST            103  P LTD AAKAR KALYAN NAGAR           YARI RD VERSOVA A BLDG ANDHERI W        231449984                                                               R08092010600004799000769164413020000529900000                              M 0400000000000231449984   20101008                                56679900  H3                                   4000858012020308102010                                                     M              35C191E22
10216558580520012RAJENDRA RATTU                          104B AAKAR ASN KALYAN COMPLEX           YARI ROAD  VERSOVA ANDHERI W            231442128                               next to bank of india           R08092010700037599000773874401010003270500000                              M 0400000000000231442128   20101008                               330779900  00                                   4000858012024908102010                                                     M              635737723
15088193280520012MAIMUNA PALOBA                          B/204    AAKAR, A.S.N.CHS.LTD.          KALYAN COMPLEX, YARI ROAD               231443781                               VERSOVA, ANDHERI (WEST)         R08092010600060499000770620901020019049200000                              M 0400000000000231443781   20101008                                    0502  00                                   4000858012031208102010                                                     M               A8EAEA24
10216567780520012DARYANAMI INDOSAIGON CONST P L          404 B WING AAKAR KALYAN NAGAR           YARI ROAD  VERSOVA BLDG ANDHERI W       231443057                               OPP FIRE BOWL RESTAURANT        R08092010700075499000776507902010001753700000                              M 0400000000000231443057   20101008                               183619900  00                                   4000858012032008102010                                                     M              779303B25
15112739180520012MOHAMMED SHAIKH                         A-304 B-WING AAKAAR KALYAN COMP         YARI ROAD, PANCH MARG, OPP MANGAL NGR,  231443744                               VERSOVA, ANDHERI (W)            R08092010600019999000770259202020001660500000                              M 0400000000000231443744   20101008                               168799900  00                                   4000858012032508102010                                                     M              40B4C4926
10216570880520012SHERALI MERCHANT                        B-504  AAKAAR  KALYAN COMPLEX           YARI RD VERSOVA ANDHERI W               231444314                                                               R08092010700042399000776293403010000111400000                              M 0400000000000231444314   20101008                                16269900  00                                   4000858012032908102010                                                     M              6B5F5F727
15028319580520012GRACY SONDKAR                           604-B    AAKAR KALYAN COMPLEX,          YARI ROAD VERSOVA ANDHERI W             231444380                               (A. S. N. CHS LTD )             R08092010700010999000773938304010001839000000                              M 0400000000000231444380   20101008                               185209900  00                                   4000858012033808102010                                                     M              461232328
10216574980520012REHANA PIRGULAM                         704 AAKAR KALYAN COMPLEX                YARI RD VERSOVA B BLDG ANDHERI W        231445201                                                               R08092010700013399000768141505010003331900000                              M 0400000000000231445201   20101008                               335269900  00                                   4000858012034708102010                                                     M              40D4E4F29
10216576980520012MRS A JIWANI                            A-705 AAKAAR  KALYAN NAGAR              YARI RD VERSOVA B BLDG ANDHERI W        231445153                                                               R08092010700019799000773212005020001161600000                              M 0400000000000231445153   20101008                               118739900  00                                   4000858012035208102010                                                     M              45F1F1D30
10216571580520012D RAMA RAO                              B-505  AAKAR KALYAN COMPLEX             ANDHERI W                               231444335                               OFF YARI ROAD                   R08092010700000099000775519206010000455600000                              M 0400000000000231444335   20101008                                45569900  06ZN                                 4000858012035908102010                                                     M              159181B31
15091252580520012MS.MUNEERAH BHANVEDIA                   B 605 AAKAR A S N CHS LTD               VERSOVA KALYAN COMP.                    231445115                               YARI RD.ANDHERI W               R08092010700020399000770228206020000868800000                              M 0400000000000231445115   20101008                                88979900  00                                   4000858012040708102010                                                     M              565272732
10216569180520012DARYANAMI INDOSAIGON CONST P L          402  AAKAR KALYAN NAGAR                 YARI RD VERSOVA B BLDG ANDHERI W        231444348                               /                               R08092010500000299000806035207010005601100000                              M 0400000000000231444348   20101008            01                 560629900  00                                   4000858012042708102010   19216                                             M              23E7B7C33
10216566680520012DARYANAMI INDOSAIGON CONST P L          302  AAKAR KALYAN NAGAR                 YARI RD VERSOVA B BLDG ANDHERI W        231443102                                                               R08092010700037299000760342707020002796700000                              M 0400000000000231443102   20101008                               283229900  00                                   4000858012043708102010                                                     M              6B3F1F134
10215486780520012M S DARYARANI CONST P LTD               KALYAN NGR YARI RD VERSOVA B WING S     CASE&W PUMP AAKAR ANDHERI-W             231418052                                                               R08092010600028799000754665308020004500700000                              M 0400000000000231418052   20101008                               452649900  00                                   4000858012045608102010                                                     M              553161135
50005219280520012M S DARYARANI CONST P LTD               KALYAN NGR YARI RD VERSOVA B WING S     CASE W PUMP AAKAR ANDHERI-W             231418830                                                               C110920107001249  000760433809010005902700000                              M 0400000000000231418830   20101008                               599889900  00                                   4000858012051108102010                                                     M              714515636
10216562680520012VIJAYA KHAPARDE                         AAKAAR B WING FLAT NO 205 KALYAN        COMP YARI RD VERSOVA ANDHERI W          231443025                               NEAR BALL RESTAURENT            R08092010700029999000772065410010000094200000                              M 0400000000000231443025   20101008                                13319900  00                                   4000858012052108102010                                                     M              5A5E1E737
10216559580520012FIROZ MERCHANT                          A-105 B    WING AAKAAR A S N CHS KALYAN YARI RD VERSOVA ANDHERI W               231441396                                                               R08092010700017299000769413510020001902000000                              M 0400000000000231441396   20101008                               192169900  00                                   4000858012053208102010                                                     M              436757438
50002726380520013DARYANAMI COUST P L                     106  AAKAR KALYAN NGR YARI RD           VERSOVA C BLDG ANDHERI W                231446070                                                               C0809201080000879900T511815501010000033100000                              M 0400000000000231446070   20101008                                 4439900  00                                   4000858012062208102010                                                     M              3A5E5E739
50002726580520013DARYANAMI COUST P L                     306  AAKAR KALYAN NGR YARI RD           VERSOVA C BLDG ANDHERI W                231446766                                                               C0809201080002759900T511815201020000089900000                              M 0400000000000231446766   20101008                                12549900  00                                   4000858012063908102010                                                     M              5EEAEAC40
15021122080520013MOHAMEDALI SULEMAN KASSAM               C-406    AAKAAR BLDG, A.S.N. CHS LTD.   KALYAN COMPLEX, YARI RD,                231447605                               BHND BANK OF INDIA              R08092010700040199000752666502020002103700000                              M 0400000000000231447605   20101008            01                 214649900  00                                   4000858012065308102010    2145                                             M              6B7F3F541
15064077980520013MRS NIRUPAMA DIXIT                      C-706    AAKAR KALYAN NGR YARI RD       VERSOVA                                 231449944                               ANDHERI(WEST)                   R08092010700004799000788727403010001215400000                              M 0400000000000231449944   20101008                               122079900  00                                   4000858012070008102010                                                     M              3084B4A42
10217101680520013DARYANAMI COUST P L                     606  AAKAR KALYAN NGR YARI RD           VERSOVA C BLDG ANDHERI W                231448387                                                               R08092010600000099000765807504010017150800000                              M 0400000000000231448387   20101008                              1715089900  06ZN                                 4000858012071308102010                                                     M              15C1F1E43
10216596880520013DARYANAMI COUST P L                     506  AAKAR KALYAN NGR YARI RD           VERSOVA C BLDG ANDHERI W                231446800                                                               R08092010700014199000774677504020000073700000                              M 0400000000000231446800   20101008                                 8799900  00                                   4000858012072208102010                                                     M              4C3838144
10216581880520013DARYANAMI COUST P L                     C BLDG FLAT NO 108 AAKAR KAYAN          NAGAR YARI ROAD VERSOVA ANDHERI W       231446044                               X                               R08092010700042599000770216405010001679600000                              M 0400000000000231446044   20101008                               172999900  00                                   4000858012072808102010                                                     M              68CCECE45
10216590580520013NARENDRA MURA                           308  AAKAR KALYAN NGR YARI RD           VERSOVA C BLDG ANDHERI W                231447543                                                               R08092010700028499000772457105020000076800000                              M 0400000000000231447543   20101008                                11519900  00                                   4000858012073508102010                                                     M              50A4A4846
15124160780520013MANOHAR NAIK                            FLAT-208 FLAT-208   'C' WING AAKAAR SAAKYARI RD,ANDHERI W                       231474487                               HSG SOC ,KALYAN COMPLEX,PANCH MAR08092010700001899000794260906010000034600000                              M 0400000000000231474487   20101008                                    0600  00  013                              4000858012084508102010                                                     M               E7A2A547
50002726680520013DARYANAMI COUST P L                     307  AAKAR KALYAN NGR YARI RD           VERSOVA C BLDG ANDHERI W                231446744                                                               C0809201080003529900T511815306010000143300000                              M 0400000000000231446744   20101008                                18459900  00                                   4000858012091608102010                                                     M              6DD9D9F48
50002726480520013DARYANAMI COUST P L                     107  AAKAR KALYAN NGR YARI RD           VERSOVA C BLDG ANDHERI W                231446086                               NEAR BANK OF INDIA              C0809201080000689900T511815406020000042300000                              M 0400000000000231446086   20101008                                 6319900  00                                   4000858012093008102010                                                     M              312575049
15073058480520013MR.NILKANTH AADI                        408  AAKAR CHS LTD.                     PANCHSHIL LANE                          231448312                               YARI RD.ANDHERI W               R08092010700037199000790309708010000338400000                              M 0400000000000231448312   20101008                                38029900  00                                   4000858012101808102010                                                     M              60C4C4E50
10216585080520013DARYANAMI COUST P L                     207  AAKAR KALYAN NGR YARI RD           VERSOVA C BLDG ANDHERI W                231446724                                                               R08092010700068799000755550409010002700800000                              M 0400000000000231446724   20101008                               278399900  00                                   4000858012102808102010                                                     M              6F7B7B551
50000559480520013MOHAMMED AFZAL                          C-508     AAKAAR KALYAN COMPLEX         YARI ROAD  VERSOVA  ANDHERI W           231449135                               .                               C0809201060004689900T501597009020000438200000                              M 0400000000000231449135   20101008                                49119900  00                                   4000858012104508102010                                                     M              6DC9C9E52
15021000680520013NARGIS M. & KASSAM                      C/407    AAKAAR BLDG, A.S.N. CHS LTD.   KALYAN COMPLEX, YARI RD,                231447563                               BHND BANK OF INDIA              R08092010700028199000773498510010001269800000                              M 0400000000000231447563   20101008                               130109900  00                                   4000858012105308102010                                                     M              5D6949453
10217103980520013DARYANAMI COUST P L                     608  AAKAR KALYAN NGR YARI RD           VERSOVA C BLDG ANDHERI W                231448346                                                               R08092010600012899000770641510020002621700000                              M 0400000000000231448346   20101008                               263589900  00                                   4000858012110208102010                                                     M              4D2929054
10216598280520013DARYANAMI COUST P L                     507  AAKAR KALYAN NGR YARI RD           VERSOVA C BLDG ANDHERI W                231449124                                                               R08092010700026999000774416311010000890200000                              M 0400000000000231449124   20101008                                93219900  00                                   4000858012110808102010                                                     M              5CC8C8E55
10217109380520013SHAMSUDDIN MERCHANT                     708 AAKAAR SAAKAAR NIRAAKAAR CHS        LTD KALYAN COMP YARI RD ANDHERI W       231449928                                                               R08092010600014699000771441011020000745200000                              M 0400000000000231449928   20101008                                76189900  00                                   4000858012111408102010                                                     M              4DE9C9C56
10217103180520013DARYANAMI COUST P L                     607  AAKAR KALYAN NGR YARI RD           VERSOVA C BLDG ANDHERI W                231449110                                                               R08092010700000099000786486312010000508500000                              M 0400000000000231449110   20101008                                50859900  06ZN                                 4000858012112208102010                                                     M              115565757
10215488680520013M S DARYARANI CONST P LTD               S CASKALYAN NGR YARI RD AAKAR           C WING VERSOVA ANDHERI W                231418010                                                               R08092010600036999000555037013010001360800000                              M 0400000000000231418010K  20101008                               139779900  00                                   4000858012113308102010                                                     M              63F7D7D58
10217107080520013RIZWANA SIDDIQUE                        C-707  AAKAR  KALYAN COMPLEX            YARI ROAD  VERSOVA ANDHERI W            231449150                                                               R08092010700010699000774818114010000993200000                              M 0400000000000231449150   20101008                               100789900  00                                   4000858012113908102010                                                     M              41D5E5F59
50005219380520013M S DARYARANI CONST P LTD               LIFT KALYAN NGR YARI RD AAKAR           C WING VERSOVA ANDHERI W                231418093                                                               C08092010600000899000765661314020003670700000                              M 0400000000000231418093   20101008                               369729900  H2                                   4000858012115708102010                                                     M              236747460
10217141280520014DARYARANI CONST P LTD                   S CASNIRAKAR KALYAN NGR YARI            RD C WING VERSOVA ANDHERI W             231453854                                                               R08092010600041499000708498001010002122800000                              M 0400000000000231453854K  20101008                               216559900  00                                   4000858012130308102010                                                     M              645070761
15069001580520014MRS.TASNEEM NAFEES SHAIKH               C-106 NIRAKAAR BLD.                     AKAAR SAKAAR NIRAKAAR CHS. LTD.         231426128                               NR. YARI RD POLICE CHOWKY. ANDHER08092010600000099000713594201020000057300000                              M 0400000000000231426128K  20101008                                 5739900  06ZN                                 4000858012130908102010                                                     M              1ECABAE62
10215949780520014P VIRJI                                 206 NIRAAKAAR C AAKAAR - SAAKAAR        NIRAAKAAR CHS LTD YARI RD ANDHERI W     231425386                               NEAR BANK OF INDIA              R08092010700022799000753948502010006638200000                              M 0400000000000231425386   20101008                               666299900  00                                   4000858012131508102010                                                     M              55A1F1863
10215953880520014M DARYAMANI INDO SARGAM CONS            306 NIRAKAR KALYAN NGR YARI RD          VERSOVA C BLDG C WING ANDHERI W         231426178                                                               R08092010700014099000792407102020000080800000                              M 0400000000000231426178   20101008                                 9679900  00                                   4000858012131908102010                                                     M              431747364
10215958180520014LAL DASWANI                             406-C NIRAKAR KALYAN COMP YARI RD       VERSOVA ANDHERI W                       231427798                               near bank of india              R08092010700030799000753949203010002776700000                              M 0400000000000231427798   20101008                               280429900  00                                   4000858012132508102010                                                     M              627636565
10215963680520014S RAJWANI                               506 NIRAKAR KALYAN NGR YARI RD          VERSOVA C BLDG C WING ANDHERI W         231427749                               .andheri w                      R08092010700013599000773144903020000823500000                              M 0400000000000231427749   20101008                                83349900  00                                   4000858012132808102010                                                     M              41A5F5866
10215975180520014CAPT BINA CHADHA                        708 NIRAKAR KALYAN NGR YARI RD          VERSOVA C BLDG C WING ANDHERI W         231429700                                                               R08092010700001799000753308904010001501100000                              M 0400000000000231429700   20101008                               150529900  00                                   4000858012133208102010                                                     M              2591A1B67
10215969380520014IRFAN YASMIN H MERCHANT                 C-607 NIRAKAR A S N CHS LTD KALYAN      COMP YARI RD VERSOVA ANDHERI W          231429666                                                               R08092010700022699000776941404020000418200000                              M 0400000000000231429666   20101008                                46429900  H5                                   4000858012134008102010                                                     M              5195C5B68
10215968980520014M DARYAMANI INDO SARGAM CONS            606 NIRAKAR KALYAN NGR YARI RD          VERSOVA C BLDG C WING ANDHERI W         231428649                               NEAR POLICE CHOWKY              R08092010700049699000784256705010000907200000                              M 0400000000000231428649   20101008                                96739900  00                                   4000858012134408102010                                                     M              6286E6A69
10215973280520014BINA SUSHIL CHADHA                      707 NIRAKAR KALYAN NGR YARI RD          VERSOVA C BLDG C WING ANDHERI W         231430523                                                               R08092010700021499000777918406010001080100000                              M 0400000000000231430523   20101008                               110219900  00                                   4000858012135308102010                                                     M              5CC8F8E70
10215971880520014M DARYAMANI INDO SARGAM CONS            706 NIRAKAR KALYAN NGR YARI RD          VERSOVA C BLDG C WING ANDHERI W         231429633                               NEAR BANK INDIA                 R08092010700015299000777535807010002672100000                              M 0400000000000231429633   20101008                               269409900  00                                   4000858012140108102010                                                     M              46C2B2E71
10215965380520014RAMZAN M R LAKHANI                      C-507 NIRAKAR A S N CHS LTD KALYAN      COMP YARI RD VERSOVA ANDHERI W          231428635                               .andheri w                      R08092010700024599000777320407020012435500000                              M 0400000000000231428635   20101008                              1246829900  00                                   4000858012140908102010                                                     M              5A2E6E072
10215960580520014M DARYAMANI INDO SARGAM CONS            407 NIRAKAR KALYAN NGR YARI RD          VERSOVA C BLDG C WING ANDHERI W         231427000                                                               R08092010700013199000772479408010001626600000                              M 0400000000000231427000   20101008                               163999900  00                                   4000858012141308102010                                                     M              44D080F73
10215970780520014M DARYAMANI INDO SARGAM CONS            608 NIRAKAR KALYAN NGR YARI RD          VERSOVA C BLDG C WING ANDHERI W         231428681                                                               R08092010700000099000773001708020000001400000                              M 0400000000000231428681   20101008                                  149900  06ZN                                 4000858012141908102010                                                     M              170353274
10215955080520014M DARYAMANI INDO SARGAM CONS            307 NIRAKAR KALYAN NGR YARI RD          VERSOVA C BLDG C WING ANDHERI W         231426193                                                               R08092010600012299000767346109010000497800000                              M 0400000000000231426193   20101008                                51139900  00                                   4000858012142408102010                                                     M              446030475
10215947280520014M DARYAMANI INDO SARGAM CONS            107 NIRAKAR KALYAN NGR YARI RD          VERSOVA C BLDG C WING ANDHERI W         231425340                                                               R08092010700011499000752750209020002240700000                              M 0400000000000231425340   20101008                               225539900  00                                   4000858012143608102010                                                     M              4397C7B76
50002731880520014M DARYAMANI INDO SARGAM CONS            108 NIRAKAR KALYAN NGR YARI RD          VERSOVA C BLDG C WING ANDHERI W         231426111                               NEAR BANK OF INDIA              C0809201080001549900T511815610010000056300000                              M 0400000000000231426111   20101008                                 6749900  00                                   4000858012144808102010                                                     M              485C2C777
10215962480520014M DARYAMANI INDO SARGAM CONS            408 NIRAKAR KALYAN NGR YARI RD          VERSOVA C BLDG C WING ANDHERI W         231427711                                                               R08092010600001499000771317111010000414300000                              M 0400000000000231427711   20101008                                42129900  00                                   4000858012145308102010                                                     M              227626578
10215967280520014SYED HASAN                              C 508  NIRAAKAR KALYAN COMPLEX          YARI RD VERSOVA ANDHERI W               231428702                                                               R08092010700023899000788694811020000537800000                              M 0400000000000231428702   20101008                                56629900  00                                   4000858012150208102010                                                     M              547070579
10217142880520014DARYARANI CONST P LTD                   LIFT NIRAKAR KALYAN NGR YARI            RD C WING VERSOVA ANDHERI W             231455113                                                               R08092010700025899000787007612010002125900000                              M 0400000000000231455113   20101008                               215159900  00                                   4000858012150808102010                                                     M              51B595980
10215952580520014RAFIQ SHAIKH                            N-208 NIRAAKAAR KALYAN COMPLEX          YARI ROAD  VERSOVA ANDHERI W            231426951                                                               R08092010700023799000776617612020006564500000                              M 0400000000000231426951   20101008                               658739900  00                                   4000858012151308102010                                                     M              52C6F6E81
10215951380520014N SHAIKH ABDUL SHAIKH                   N-207 C NIRAAKAAR BLDG                  KALYAN COMPLEX YARI ROAD ANDHERI W      231426161                                                               R08092010600000099000775580913010001645700000                              M 0400000000000231426161   20101008                               164589900  00                                   4000858012152108102010                                                     M              196D5D482
10215956980520014CHRISTIE SANTINEER                      308-NIRAKAR KALYAN COMP YARI RD         VERSOVA C BLDG C ANDHERI WEST           231426918                                                               R08092010700016199000772262814010003886200000                              M 0400000000000231426918   20101008                               390439900  00                                   4000858012152608102010                                                     M              461232383
15018669780520015MASTER RIAS                             704  NIRAKAR KALYAN NGR YARI R          B BLDG VERSOVA B WING ANDHERI W         231425314                                                               R08092010700009599000781245901010000527300000                              M 0400000000000231425314   20101008                                53869900  00                                   4000858012161408102010                                                     M              3E2A2A084
15051563380520015SHAHBAZ DIVKER                          B-504    NIRAAKAAR KALYAN CMPLEX        YARI ROAD VERSOVA                       231425324                               ANDHERI WEST                    R08092010700066699000790309401020000600400000                              M 0400000000000231425324   20101008                                62999900  00                                   4000858012162108102010                                                     M              6A5E6E785
50005219180520015DARYARANI CONST P LTD                   KALYAN NGR NIRAKAR B WING               YARI RD VERSOVA ANDHERI-W               231417094                                                               C170920107001290  000788483502010000514600000                              M 0400000000000231417094   20101008                                57289900  00                                   4000858012172308102010                                                     M              73B787986
10215927480520015M S DARYAMAI INDO SARGAN CONST          204  NIRAKAR KALYAN NGR YARI R          B BLDG VERSOVA B WING ANDHERI W         231422946                                                               R08092010700065199000773044702020000159000000                              M 0400000000000231422946   20101008                                21869900  00                                   4000858012172608102010                                                     M              65D181F87
10215923980520015BRUKODARA MOHAPATRA                     B-104 NIRAAKAAR  KALYAN NAGAR           YARI ROAD  VERSOVA ANDHERI W            231422177                                                               R08092010700036199000773448703010001700400000                              M 0400000000000231422177   20101008                               174459900  00                                   4000858012173008102010                                                     M              6BBF8F988
10215939880520015M S DARYAMAI INDO SARGAN CONST          604  NIRAKAR KALYAN NGR YARI R          B BLDG VERSOVA B WING ANDHERI W         231424567                                                               R08092010700000099000780104803020000849100000                              M 0400000000000231424567   20101008                                84919900  06ZN                                 4000858012173708102010                                                     M              1C88D8A89
10215930980520015M S DARYAMAI INDO SARGAN CONST          304  NIRAKAR KALYAN NGR YARI R          B BLDG VERSOVA B WING ANDHERI W         231423797                                                               R08092010600045699000775676004010001518400000                              M 0400000000000231423797   20101008                               157159900  00                                   4000858012174308102010                                                     M              685C0C790
10215934080520015M S DARYAMAI INDO SARGAN CONST          404  NIRAKAR KALYAN NGR YARI R          B BLDG VERSOVA B WING ANDHERI W         231423754                                                               R08092010600003199000770788504020001961900000                              M 0400000000000231423754   20101008                               196619900  00                                   4000858012175108102010                                                     M              376333491
10215480780520015DARYARANI CONST P LTD                   KALYAN NGR NIRAKAR B WING               YARI RD VERSOVA ANDHERI-W               231417076                                                               R08092010700020299000754842705010004198300000                              M 0400000000000231417076   20101008                               421909900  00                                   4000858012180308102010                                                     M              580C3C292
15022250580520015SURINDRA RAO                            B/705    NIRAKAAR KALYAN COMPLEX        PANCH MARG,ANDHERI-WEST                 231426118                                                               R08092010700031599000790309305020000346500000                              M 0400000000000231426118   20101008                                39469900  00                                   4000858012181308102010                                                     M              667272593
10215940880520015M S DARYAMAI INDO SARGAN CONST          605  NIRAKAR KALYAN NGR YARI R          B BLDG VERSOVA B WING ANDHERI W         231424580                               NEAR RIDHI SIDHI APARTMENT      R08092010700037799000769745306010003200500000                              M 0400000000000231424580   20101008                               324129900  00                                   4000858012191808102010                                                     M              6440D0694
10215938580520015SALIM RAJWANI                           505  NIRAKAR KALYAN COMPLEX             B WING VERSOVA ANDHERI W                231424543                               .andheri w                      R08092010700004199000788699106020000394100000                              M 0400000000000231424543   20101008                                40009900  00                                   4000858012192308102010                                                     M              396D4D495
10215936480520015M S DARYAMAI INDO SARGAN CONST          405  NIRAKAR KALYAN NGR YARI R          B BLDG VERSOVA B WING ANDHERI W         231423765                                                               R08092010700029799000774467807010001370500000                              M 0400000000000231423765   20101008                               140749900  00                                   4000858012192808102010                                                     M              582C7C096
10215932280520015M S DARYAMAI INDO SARGAN CONST          305  NIRAKAR KALYAN NGR YARI R          B BLDG VERSOVA B WING ANDHERI W         231423009                               NEAR BANK OF INDIA              R08092010700034799000789033908010000451900000                              M 0400000000000231423009   20101008                                49199900  00                                   4000858012193408102010                                                     M              6BEF9FC97
10215928980520015M S DARYAMAI INDO SARGAN CONST          205  NIRAKAR KALYAN NGR YARI R          B BLDG VERSOVA B WING ANDHERI W         231424531                                                               R08092010700013799000776999109020001086400000                              M 0400000000000231424531   20101008                               111949900  00                                   4000858012194108102010                                                     M              470353298
10215925880520015PREMCHAND MAHAPATRA                     B-105  NIRAKAR KALYAN COMPLEX           YARI ROAD  VERSOVA ANDHERI W            231422989                                                               R08092010700024899000752723109030001752800000                              M 0400000000000231422989   20101008                               178309900  00                                   4000858012194608102010                                                     M              5FDBEBF99
15125658380520016ROSEMIN VALYANI                         A/303, A/303,   NIRAAKAAR CO-OP HSG.LTD,ANDHERI (W)                             231475620                               NR.BANK OF INDIA,KALYAN COMPLEX,R08092010700019599000752927000000001261400000                              M 0400000000000231475620   20101008                               129829900  00                                   4000858012203408102010                                                     M              4AAEFE8100
10215484580520016DARYARANI CONST P LTD                   LIFT KALYAN NGR NIRAKAR                 A WING VERSOVA YARI RD ANDHERI W        231418037                                                               R08092010700023599000768453901010014887300000                              M 0400000000000231418037   20101008                              1491249900  00                                   4000858012205008102010                                                     M              5430101101
10215921380520016M S DARYANNI INDO SARGAM CONST          702  NIVAJAR KALYAN NAGAR YARI          RD VARSOVA A BLDG A WING ANDHERI W      231422912                                                               R08092010700028499000775474101020003861900000                              M 0400000000000231422912   20101008                               389809900  00                                   4000858012205608102010                                                     M              5E7A2A5102
10215916080520016M S DARYANNI INDO SARGAM CONST          602  NIVAJAR KALYAN NAGAR YARI          RD VARSOVA A BLDG A WING ANDHERI W      231421333                               .                               R08092010700029699000766153302010010794700000                              M 0400000000000231421333   20101008                              1081419900  00                                   4000858012210708102010                                                     M              5E1A4A3103
10215912380520016M S DARYANNI INDO SARGAM CONST          502  NIVAJAR KALYAN NAGAR YARI          RD VARSOVA A BLDG A WING ANDHERI W      231420520                                                               R08092010700019499000772756303010000058800000                              M 0400000000000231420520   20101008                                 8629900  00                                   4000858012211608102010                                                     M              49ADFD8104
10215910680520016RAZIA LAKDAWALA                         A-501 AAKAAR SAAKAAR NIRAAKAAR CHS      LTD KALYAN COMP YARI RD ANDHERI W       231419794                               nr LIBERTY GARDEN               R08092010600038199000770152204010000106600000                              M 0400000000000231419794   20101008                                14829900  00                                   4000858012212608102010                                                     M              6FABEB8105
10215919380520016M S DARYANNI INDO SARGAM CONST          701  NIVAJAR KALYAN NAGAR YARI          RD VARSOVA A BLDG A WING ANDHERI W      231420593                                                               R08092010700003499000790313204020000070300000                              M 0400000000000231420593   20101008                                 7599900  00                                   4000858012214108102010                                                     M              398DDDA106
10215907780520016M S DARYANNI INDO SARGAM CONST          402  NIVAJAR KALYAN NAGAR YARI          RD VARSOVA A BLDG A WING ANDHERI W      231420531                                                               R08092010700024699000789265105010000385700000                              M 0400000000000231420531   20101008                                41589900  00                                   4000858012223408102010                                                     M              5B8FDFA107
10215914380520016M S DARYANNI INDO SARGAM CONST          601  NIVAJAR KALYAN NAGAR YARI          RD VARSOVA A BLDG A WING ANDHERI W      231421375                                                               R08092010700017799000760335305020002400600000                              M 0400000000000231421375   20101008                               240389900  L4                                   4000858012224808102010                                                     M              4EEABAC108
10215906680520016GIRISH BAGWE                            A-401 NIRAAKAR KALYAN COMPLEX           YARI ROAD VERSOVA                       231420572                               NEAR YARI ROAD                  R08092010700012399000775587306010012510500000                              M 0400000000000231420572   20101008                              1252519900  00                                   4000858012225608102010                                                     M              492D1D0109
10215497380520016T BAGWE                                 201 A NIRADKAAR BLDG KALYAN CPLX        YARI RD VERSOVA ANDHERI W               231418843                                                               R08092010700021699000789265006020000286600000                              M 0400000000000231418843   20101008                                31109900  00                                   4000858012230108102010                                                     M              5D09192110
15072920380520016MR.SHRIKRISHNA DANDEKAR                 A-202    NIRAAKAAR KALYAN COMPLEX       NR. BANK OF INDIA                       231419758                               PAANCH MARG YARI RD ANDHERI W   R08092010700026999000784379307010000782500000                              M 0400000000000231419758   20101008                                81149900  00                                   4000858012230408102010                                                     M              5E9ADAB111
15018888480520016FIROZA BEGUM KODARE                     FLAT-302. FLAT-302.   NIRAAKAAR,AAKAAR SPANCH MAGR, ANDHERI (WEST)              231415678                               YARI ROAD, VERSOVA,             R08092010700029799000773839407020001474300000                              M 0400000000000231415678   20101008                               151209900  00                                   4000858012231008102010                                                     M              5C08482112
15018887480520016K. AFLAM                                FLAT-301 FLAT-301   NIRAAKAAR,AAKAAR SAAPANCH MAGR, ANDHERI (WEST)              231415675                               YARI ROAD, VERSOVA,             R08092010700015399000773839608010001098100000                              M 0400000000000231415675   20101008                               111939900  00                                   4000858012231508102010                                                     M              4175255113
10215493580520016VASANT GUNJAL                           A-101 NIRAAKAR KALYAN COMPLEX           YARI RD VERSOVA ANDHERI W               231418897                                                               R08092010700017299000788416808020000323600000                              M 0400000000000231418897   20101008                                34619900  00                                   4000858012232008102010                                                     M              4D39391114
10215482980520016DARYARANI CONST P LTD                   S CASKALYAN NGR NIRAKAR                 A WING VERSOVA YARI RD ANDHERI W        231417035                                                               R08092010600035199000697039809010001609600000                              M 0400000000000231417035K  20101008                               164399900  00                                   4000858012232608102010                                                     M              65B1919115
10215495380520016M S DARYANNI INDO SARGAM CONST          102  NIVAJAR KALYAN NAGAR YARI          RD VARSOVA A BLDG A WING ANDHERI W      231418884                                                               R08092010700018599000775062510010018099400000                              M 0400000000000231418884   20101008                              1811839900  00                                   4000858012233508102010                                                     M              4044046116
10215922480520016AUMPRAKASH MOHAPATRA                    703  NIVAJAR KALYAN NAGAR YARI          RD VARSOVA A BLDG A WING ANDHERI W      231422995                                                               R08092010700017899000789264911010000374700000                              M 0400000000000231422995   20101008                                40919900  00                                   4000858012234208102010                                                     M              4C18383117
10215908980520016M S DARYANNI INDO SARGAM CONST          403  NIVAJAR KALYAN NAGAR YARI          RD VARSOVA A BLDG A WING ANDHERI W      231420582                               NEAR RIDDHI SIDDHI              R08092010600017499000765587311020000775200000                              M 0400000000000231420582   20101008                                79219900  00                                   4000858012234808102010                                                     M              4652327118
10215918280520016M S DARYANNI INDO SARGAM CONST          603  NIVAJAR KALYAN NAGAR YARI          RD VARSOVA A BLDG A WING ANDHERI W      231422121                                                               R08092010600035099000765460512010001726000000                              M 0400000000000231422121   20101008                               176829900  00                                   4000858012235408102010                                                     M              6C78285119
15051552480520016MRS.SEEMIN DIVKER                       A/503    AAKAAR SAAKAAR NIRAAKAAR CHS.  KALYAN COMP. YARI ROAD                  231422134                               VARSOVA ANDHERI W               R08092010700021399000752559712020001734700000                              M 0400000000000231422134   20101008                               174379900  00                                   4000858012240008102010                                                     M              5D79295120
10215901280520016M S DARYANNI INDO SARGAM CONST          203  NIVAJAR KALYAN NAGAR YARI          RD VARSOVA A BLDG A WING ANDHERI W      231419747                               near barista cafe               R08092010700027199000789068613010000283600000                              M 0400000000000231419747   20101008                                30749900  00                                   4000858012240708102010                                                     M              50A4248121
10215496280520016M S DARYANNI INDO SARGAM CONST          103  NIVAJAR KALYAN NAGAR YARI          RD VARSOVA A BLDG A WING ANDHERI W      231418854                                                               R08092010700000499000768634214020001156000000                              M 0400000000000231418854   20101008                               115629900  00                                   4000858012241408102010                                                     M              2D79295122
10215491180520017M S DARYARANI CONST P LTD               LIFT KALYAN NGR SAKAR VERSOVA           A WING YARI RD ANDHERI W                231419727                                                               R08092010700023299000774456801010001265200000                              M 0400000000000231419727   20101008            01                 128979900  00                                   4000858012251808102010   12847                                             M              5CD8F8F123
10216550680520017GULAM RASOOL                            A-602 SAAKAAR A S N CHS LTD KALYAN      NGR YARI RD VERSOVA ANDHERI W           231440496                                                               R08092010700012899000780510402010000033200000                              M 0400000000000231440496   20101008                                 4999900  00                                   4000858012252208102010                                                     M              41F5C5D124
10216549380520017M S DARYAMANI INDOSAIGON CONST          601  SAKAR KALYAN NGR YARI RD           A BLDG VERSOVA ANDHERI W                231441327                                                               R08092010700016899000777186302020009261600000                              M 0400000000000231441327   20101008                               928029900  00                                   4000858012253108102010                                                     M              49DDFDF125
15123003980520017HIMAWATI MISHRA                         A-502    SAAKAR KALYAN COMPLEX,ASN CHS LYARI ROAD  VERSOVA                      231441352                               ANDHERI (WEST)                  R08092010700009999000775099103010001771100000                              M 0400000000000231441352   20101008                               178339900  00                                   4000858012253908102010                                                     M              3EAA8A8126
10216541080520017M S DARYAMANI INDOSAIGON CONST          401  SAKAR KALYAN NGR YARI RD           A BLDG VERSOVA ANDHERI W                231440438                                                               R08092010700055999000773756204010001031300000                              M 0400000000000231440438   20101008                               106539900  00                                   4000858012254508102010                                                     M              682C0C0127
10216543080520017M S DARYAMANI INDOSAIGON CONST          402  SAKAR KALYAN NGR YARI RD           A BLDG VERSOVA ANDHERI W                231439774                               NEAR KALYAN COMPLEX             R08092010700025799000773076705010001667200000                              M 0400000000000231439774   20101008                               169549900  00                                   4000858012255208102010                                                     M              58ACDC8128
15042306480520017SHAHNAWAZ PRADHAN                       S-202,    SAAKAAR , KALYAN COMPLEX,     YARI RD, VERSOVA, ANDHERI W             231439096                               AAKAAR SAAKAAR NIRAAKAAR CHS LTDR08092010700016899000774297205020004850700000                              M 0400000000000231439096   20101008                               486789900  00                                   4000858012260108102010                                                     M              4054347129
10216538180520017M S DARYAMANI INDOSAIGON CONST          302  SAKAR KALYAN NGR YARI RD           A BLDG VERSOVA ANDHERI W                231438104                                                               R08092010700021199000769454506010000056600000                              M 0400000000000231438104   20101008                                 7169900  00                                   4000858012260508102010                                                     M              5672525130
10216536880520017M S DARYAMANI INDOSAIGON CONST          301  SAKAR KALYAN NGR YARI RD           A BLDG VERSOVA ANDHERI W                231439015                               NEXT TO RIDDHI-SIDDHI BLDG      R08092010700017799000787032206020000821000000                              M 0400000000000231439015   20101008                                84039900  00                                   4000858012260908102010                                                     M              42F696D131
53002495280520017MAHADEO PATIL                           A/201    SAKAR KALYAN COMPLEX  YARI RD  VERSOVA   ANDHERI W                     231439057                               OPP BANK OF INDIA               C080920108000399990T1010478507010000233300000                              M 0400000000000231439057   20101008                                27909900  00                                   4000858012262708102010                                                     M              68CCECE132
15029383180520017MR.RAGHUNATHAN DIWAKARAN                A/102    AAKAAR SAAKAAR NIRAAKAAR CHS.LTKALYAN COMPLEX                          231438032                               VERSOVA ANDHERI W               R08092010700009699000752989308010001815100000                              M 0400000000000231438032   20101008                               184989900  H3                                   4000858012263608102010                                                     M              39BDFD9133
15051531280520017MAHADEO FOKACHA                         101/A    SAAKAR,AAKAAR,NIRAAKAAR CHS LTDKALYAN COMPLEX,PANCH MARG,YARI RD       231438074                               VERSOVA,ANDHERI-WEST            R08092010600000011000770815409010003935600000                              M 0400000000000231438074   20101008                                    0502  00                                   4000858012265808102010                                                     M               8ACDC8134
10216555080520017M S DARYAMANI INDOSAIGON CONST          702  SAKAR KALYAN NGR YARI RD           A BLDG VERSOVA ANDHERI W                231442154                                                               R08092010700000399000776374609020000003500000                              M 0400000000000231442154   20101008                                  359900  06ZN                                 4000858012270508102010                                                     M              2B5F7F7135
15021747380520017MANISH DABRAL                           A - 701    SAAKAAR BUIL A. S . N CHS LTDKALYAN COMPLEX YARI RD VERSOVA ANDHERI W231442194                               near PANCH MARG                 R08092010700015799000776938010010001167800000                              M 0400000000000231442194   20101008                               118359900  00                                   4000858012271308102010                                                     M              4642326136
10216545080520017M S DARYAMANI INDOSAIGON CONST          501  SAKAR KALYAN NGR YARI RD           A BLDG VERSOVA ANDHERI W                231439732                                                               R08092010700024199000777009010020004668200000                              M 0400000000000231439732   20101008                               469149900  00                                   4000858012271908102010                                                     M              59BD9D9137
10216544080520017M S DARYAMANI INDOSAIGON CONST          403  SAKAR KALYAN NGR YARI RD           A BLDG VERSOVA ANDHERI W                231439802                                                               R08092010600037699000770821911010000104700000                              M 0400000000000231439802   20101008                                16579900  00                                   4000858012272408102010                                                     M              6793B3B138
10216552780520017MOHD G RASOOL                           A-603 SAAKAR A S N CHS LTD KALYAN       NGR YARI RD VERSOVA ANDHERI W           231441341                                                               R08092010700061999000776119911020001318800000                              M 0400000000000231441341   20101008                               140169900  00                                   4000858012273208102010                                                     M              61A5958139
10216556380520017M S DARYAMANI INDOSAIGON CONST          703  SAKAR KALYAN NGR YARI RD           A BLDG VERSOVA ANDHERI W                231442165                                                               R08092010700000199000780836112010000432400000                              M 0400000000000231442165   20101008                                43249900  06ZN                                 4000858012274508102010                                                     M              2DE9C9C140
10216548680520017M S DARYAMANI INDOSAIGON CONST          503  SAKAR KALYAN NGR YARI RD           A BLDG VERSOVA ANDHERI W                231440479                               BHD BANK OF INDIA               R08092010700013399000753895212020001335400000                              M 0400000000000231440479   20101008                               134980503  00                                   4000858012275508102010                                                     M              4C58187141
15063598680520017DATTATRAYA KOLI                         FLAT-A/303    SAAKAR KALYAN COMPLEX,    YARI ROAD, VERSOVA,                     231440460                               ANDHERI WEST                    R08092010700018399000769501713010003898300000                              M 0400000000000231440460   20101008            01                 391479900  00                                   4000858012280908102010   39141                                             M              4276265142
10215478280520017M S DARYARANI CONST P LTD               S CASKALYAN NGR SAKAR VERSOVA           A WING YARI RD ANDHERI W                231417053                                                               R08092010600067799000727186814010000449100000                              M 0400000000000231417053K  20101008                                48849900  00                                   4000858012281608102010                                                     M              65D1F1F143
10216536180520017M S DARYAMANI INDOSAIGON CONST          203  SAKAR KALYAN NGR YARI RD           A BLDG VERSOVA ANDHERI W                231439039                                                               R08092010700012699000774832515010004529600000                              M 0400000000000231439039   20101008                               454329900  00                                   4000858012282708102010                                                     M              4A6E4E4144
25000342580520017RELIANCE COMMUNICATIONS LTD             FORTUNE 2000 BLDG 2ND FLOOR             C-3 'G' BLOCK BANDRA KURLA COMPLEX      231474461                               BANDRA (E)                      C08092010500000099000341465315020000066900000                              M 0400000000000231474461   20101008                                 6699900  06ZN                                 4000858012283408102010                                                     M              1591D1B145
10216532680520017RAJENDRA MOHAPATRA                      A 103 SAAKAR ASN CHS LTD KALYAN         CPLEX YARI RD VERSOVA ANDHERI W         231437282                                                               R08092010700028799000773590215030001826500000                              M 0400000000000231437282   20101008                               186419900  00                                   4000858012285008102010                                                     M              55B1919146
15051430180520018UJWALA CHACHAD                          FLAT 104    'SAAKAAR' B WING , KALYAN COANDHERI(W)                              231434836                               VERSOVA, YARI RD                R08092010700042599000765346801010002251400000                              M 0400000000000231434836   20101008                               229219900  00                                   4000858012292308102010                                                     M              6296A6B147
15035530180520018PADMA NARAYANAN                         B/204    SAAKAR ASN CHS,KALYAN COMPLEX  YARI ROAD,VERSOVA,ANDHERI-WEST          231435613                               NEAR FISHERIES INSTITUTE        R08092010600000099000766339702010002315900000                              M 0400000000000231435613   20101008                               231609900  00                                   4000858012292808102010                                                     M              17D3B3F148
10215476980520018M S DARYARANI CONST P LTD               KALYAN NGR RD B WING SAKAR S CASE &     W PUMP & LIFT ANDHERI-W                 231417067                                                               R08092010600027199000754665202020004628100000                              M 0400000000000231417067   20101008                               465339900  00                                   4000858012293808102010                                                     M              5286A6A149
50005219080520018M S DARYARANI CONST P LTD               KALYAN NGR YARI RD B WING SAKAR S       CASE W PUMP LIFT ANDHERI-W              231417018                                                               C110920107000571  000760870503010000862700000                              M 0400000000000231417018   20101008                                92069900  00                                   4000858012294208102010                                                     M              66F2D2D150
15047179480520018MRS.JYOTSNA KHEDEKAR                    B/404    SAAKAAR CHS. LTD               KALYAN NGR YARI RD                      231435621                               VERSOVA ANDHERI W               R08092010700021099000760643103020002032600000                              M 0400000000000231435621   20101008                               205569900  00                                   4000858012294808102010                                                     M              5145656151
15085389680520018MRS.SAVITA PRABHUNE SINGH               304 SAAKAAR B KALYAN COM                B/H BANK OF INDIA YARI ROAD             231435659                               VERSOVA ANDHERI W B/H BANK OF INR08092010700022799000772359604010000937600000                              M 0400000000000231435659   20101008                                96239900  00                                   4000858012295208102010                                                     M              5C38481152
10216517180520018M DARYAMANI INDO SARGON CONS            504  SAKAR KALYAN NGR YARI RD           BLDG B VERSOVA ANDHERI W                231436480                                                               R08092010600004199000771424304020000012900000                              M 0400000000000231436480   20101008                                 1799900  00                                   4000858012295808102010                                                     M              30E4C4C153
10216520580520018M DARYAMANI INDO SARGON CONS            604  SAKAR KALYAN NGR YARI RD           BLDG B VERSOVA ANDHERI W                231435691                                                               R08092010600033299000770343305010005183800000                              M 0400000000000231435691   20101008                               522369900  00                                   4000858012300208102010                                                     M              6296B6B154
10216525580520018M DARYAMANI INDO SARGON CONS            704  SAKAR KALYAN NGR YARI RD           BLDG B VERSOVA ANDHERI W                231438017                                                               R08092010700027999000773439205020000073400000                              M 0400000000000231438017   20101008                                10159900  00                                   4000858012301208102010                                                     M              51F5D5D155
10216513280520018M DARYAMANI INDO SARGON CONS            305  SAKAR KALYAN NGR YARI RD           BLDG B VERSOVA ANDHERI W                231434852                               NEAR KALYAN COMPLEX             R08092010700029499000787901406010002607800000                              M 0400000000000231434852   20101008                               263759900  00                                   4000858012302008102010                                                     M              51E595C156
10216523080520018M DARYAMANI INDO SARGON CONS            605  SAKAR KALYAN NGR YARI RD           BLDG B VERSOVA ANDHERI W                231437217                               OFF PANCHAVATI ROAD             R08092010600050499000770167706020008141800000                              M 0400000000000231437217   20101008                               820209900  00                                   4000858012302908102010                                                     M              6F7B3B5157
10216528080520018MRS BARRETTO                            705  SAKAR KALYAN NGR YARI RD           BLDG B VERSOVA ANDHERI W                231437266                               .                               R08092010600063699000765461407010002385500000                              M 0400000000000231437266   20101008                               244729900  00                                   4000858012303508102010                                                     M              6470705158
10216519180520018M DARYAMANI INDO SARGON CONS            505  SAKAR KALYAN NGR YARI RD           BLDG B VERSOVA ANDHERI W                231436422                                                               R08092010700025299000773373507020001776000000                              M 0400000000000231436422   20101008                               180829900  00                                   4000858012304008102010                                                     M              5286A6A159
10216516080520018SAROJINI RAJWADE                        B-405 SAAKAAR A S N CHS LTD KALYAN      COMP YARI RD VERSOVA ANDHERI W          231436447                                                               R08092010600022999000771067209010000044600000                              M 0400000000000231436447   20101008                                 7719900  00                                   4000858012304508102010                                                     M              5E1A2A3160
10216510480520018M DARYAMANI INDO SARGON CONS            205  SAKAR KALYAN NGR YARI RD           BLDG B VERSOVA ANDHERI W                231434867                                                               R08092010600015999000765299310010004560800000                              M 0400000000000231434867   20101008                               457559900  00                                   4000858012305408102010                                                     M              44A0808161
10216507280520018DEVWRAT JATEGAONKAR                     B-105 SAAKAAR A S N CHS LTD KALYAN      COMP YARI RD VERSOVA ANDHERI W          231434058                               nr bank of india                R08092010700011899000779262510020000593000000                              M 0400000000000231434058   20101008            01                  60729900  00                                   4000858012310108102010   60722                                             M              4A1E7E3162
10215472580520019DARYARANI CONST P LTD                   S CASKALYAN NGR C WING SAKAR            YARI RD VERSOVA ANDHERI W               231416225                                                               R08092010600032899000740755301010000400300000                              M 0400000000000231416225K  20101008                                43299900  00                                   4000858012314208102010                                                     M              6D79495163
10215976280520019M S DARYAMANI CONST P LTD               106  SAKAR KALYAN NAGAR YARI R          C BLDG VERSOVA ANDHERI W                231430572                               /                               R08092010700043699000792658001020000510900000                              M 0400000000000231430572   20101008                                57489900  00                                   4000858012314508102010                                                     M              6B8FBFA164
15056764280520019JANAKI NAGRAJ                           C-206    SAKAR ,ASN CHS LTD,KALYAN COMLEYARI ROAD,VERSOVA,ANDHERI WEST          231431480                                                               R08092010700012599000776342701030000034700000                              M 0400000000000231431480   20101008                                 4949900  00                                   4000858012314908102010                                                     M              4317373165
10215992180520019M S DARYAMANI CONST P LTD               506  SAKAR KALYAN NAGAR YARI R          C BLDG VERSOVA ANDHERI W                231432505                                                               R08092010600020499000775609702010000059100000                              M 0400000000000231432505   20101008                                 8479900  00                                   4000858012315608102010                                                     M              592D1D0166
10215984280520019MOHANKUMAR PILLAI                       306 C WING A AAKAAR SAAKAAR             NIRAAKAAR CHS L YARI RD VERSOVA         231431458                               KALYAN COMPLEX                  R08092010600009199000771175702020002592500000                              M 0400000000000231431458   20101008                               260679900  00                                   4000858012320208102010                                                     M              3B5F0F7167
25000210180520019Reliance Infocom Ltd                    FORTUNE 2000  2ND FLOOR                 C-3 'G' BLOCK BANDRA KURLA COMPLEX      231474452                               BANDRA (E)                      C08092010500000099000429615303010000109200000                              M 0400000000000231474452   20101008            01                  10929900  06ZN                                 4000858012321108102010   10922                                             M              1D59197168
10215988880520019SYED RAZA                               C-406  SAAKAAR  KALAYAN NAGAR           YARI ROAD  VERSOVA ANDHERI W            231432468                               BHD BANK OF INDIA               R08092010700018599000772447603020001223300000                              M 0400000000000231432468   20101008                               124029900  00                                   4000858012321708102010                                                     M              4206262169
15099963980520019AMIRALI LADHANI                         FLAT-706,    SAAKAR 'C-WING',           KALYAN COMPLEX, YARI ROAD,              231433308                               VERSOVA, ANDHERI(WEST).         R08092010700000199000776858204010003681300000                              M 0400000000000231433308   20101008                               368139900  06ZN                                 4000858012322608102010                                                     M              2D19493170
15024070180520019RAJBALI LALANI                          C/606,    SAAKAAR, A. S. N. CHS LTD.,   KALYAN NGR, YARI ROAD, VERSOVA,         231434827                               ANDHERI (W)                     R08092010500014599000805942304020003504400000                              M 0400000000000231434827   20101008            01                 352169900  00                                   4000858012325408102010   32516                                             M              4CA8888171
10215995380520019M S DARYAMANI CONST P LTD               508  SAKAR KALYAN NAGAR YARI R          C BLDG VERSOVA ANDHERI W                231433281                                                               R08092010600036999000775561905010000085200000                              M 0400000000000231433281   20101008                                13609900  00                                   4000858012325908102010                                                     M              6BDFEFF172
10216502680520019M S DARYAMANI CONST P LTD               707  SAKAR KALYAN NAGAR YARI R          C BLDG VERSOVA ANDHERI W                231434814                               NEAR BANK OF INDIA              R08092010700015899000791063705020000794900000                              M 0400000000000231434814   20101008                                81909900  00                                   4000858012330908102010                                                     M              41F5B5D173
10215985880520019PADMA UPASHAM                           C-307  AAKAR SAKAAR NIRAKAAR            CHS LTD  YARI RD  VERSOVA ANDHERI W     231431469                               near bank of india              R08092010700014099000777536906010000757300000                              M 0400000000000231431469   20101008                                77949900  00                                   4000858012331308102010                                                     M              482C5C0174
15056777580520019PALLAKI NAGRAJ                          C-207    SAAKAR,ASN CHS LTD,            KALYAN COMPLEX,YARI ROAD                231432412                               VERSOVA,ANDHERI-WEST            R08092010600023299000775579406020000128300000                              M 0400000000000231432412   20101008                                15299900  00                                   4000858012332008102010                                                     M              5094C4B175
10215989280520019M S DARYAMANI CONST P LTD               407  SAKAR KALYAN NAGAR YARI R          C BLDG VERSOVA ANDHERI W                231433234                                                               R08092010700016699000755351907010000914100000                              M 0400000000000231433234   20101008                                93670503  00                                   4000858012340608102010                                                     M              4ABE8E9176
10215977780520019J KHEDEKAR                              C 107 SAAKAR KALYAN COMPLEX             YARI RD B H B O I VERSOVA ANDHERI W     231430564                               B H B O I VERSOVA               R08092010600053699000771234008010001837900000                              M 0400000000000231430564   20101008                               190889900  00                                   4000858012341208102010                                                     M              6A8EAEA177
15048071780520019TAHER MERCHANT                          C-607 SAAKAR  KALAYAN COMPLEX           PANCH MARG,YARI ROAD,VERSOVA            231434022                               ANDHERI-WEST                    R08092010700018599000769496008020001594800000                              M 0400000000000231434022   20101008                               161439900  00                                   4000858012341708102010                                                     M              43E7B7C178
15073625980520019MANOHAR RANI                            FLAT-C/108    AAKAR SAAKAR NIRAAKAR CHS KALYAN COMPLEX                          231430582                               YARI ROAD,VERSOVA ANDHERI W     R08092010600021899000771544709020001501300000                              M 0400000000000231430582   20101008                               152859900  00                                   4000858012342308102010                                                     M              5E5A0A7179
10215990680520019M S DARYAMANI CONST P LTD               408  SAKAR KALYAN NAGAR YARI R          C BLDG VERSOVA ANDHERI W                231432455                                                               R08092010700000299000770221310010001848800000                              M 0400000000000231432455   20101008                               184909900  00                                   4000858012343308102010                                                     M              2B1F2F3180
10216500180520019M S DARYAMANI CONST P LTD               608  SAKAR KALYAN NAGAR YARI R          C BLDG VERSOVA ANDHERI W                231433266                                                               R08092010700000099000777098110020000000700000                              M 0400000000000231433266   20101008                                   79900  06ZN                                 4000858012343808102010                                                     M              1C18283181
10215982980520019M S DARYAMANI CONST P LTD               308  SAKAR KALYAN NAGAR YARI R          C BLDG VERSOVA ANDHERI W                231431423                                                               R08092010600009899000765685011010006098600000                              M 0400000000000231431423   20101008                               610569900  00                                   4000858012344408102010                                                     M              3CD8E8F182
10215994080520019M S DARYAMANI CONST P LTD               507  SAKAR KALYAN NAGAR YARI R          C BLDG VERSOVA ANDHERI W                231433295                                                               R08092010700038799000779642512010000106300000                              M 0400000000000231433295   20101008                                15339900  00                                   4000858012345308102010                                                     M              6B0F3F2183
10216504280520019M S DARYAMANI CONST P LTD               708  SAKAR KALYAN NAGAR YARI R          C BLDG VERSOVA ANDHERI W                231434095                               nr. bank of india               R08092010700020299000773928313010000869700000                              M 0400000000000231434095   20101008                                88669900  00                                   4000858012345608102010                                                     M              58DCACF184
10215473980520019DARYARANI CONST P LTD                   LIFT KALYAN NGR C WING SAKAR            YARI RD VERSOVA ANDHERI W               231415707                                                               R08092010600054599000769474713020000866100000                              M 0400000000000231415707   20101008                                93449900  00                                   4000858012350008102010                                                     M              6D09392185
10217193180520020DARYANANI SAISON CON P LT               101  KALYAN COMPLEX A WING              VARSOVA YARI ROAD ANDHERI W             231460230                                                               R08092010700019199000773198801010001020800000                              M 0400000000000231460230   20101008                               104439900  00                                   4000858012384908102010                                                     M              4E2A1A0186
15038177080520020YUNUS B HALA HEENA YUNUS HALA           103  KALYAN COMPLEX A WING, AAKANKSH    ANDHERI(W)                              231460276                               PANCH MARG ,OFF YARI ROAD VERSOVR08092010700055399000776590601020001960400000                              M 0400000000000231460276   20101008                               200739900  00                                   4000858012385308102010                                                     M              6C28580187
10217194380520020DARYANANI SAISON CON P LT               102  KALYAN COMPLEX A WING              VARSOVA YARI ROAD ANDHERI W             231460240                               near kabrastan                  R08092010700000099000780551602010000029900000                              M 0400000000000231460240   20101008                                 2999900  06ZN                                 4000858012385808102010                                                     M              1E8AFAA188
10217199080520020DARYANANI SAISON CON P LT               203  KALYAN COMPLEX A WING              VARSOVA YARI ROAD ANDHERI W             231461231                               NR KALYAN COMPLEX               R08092010700020199000772369202020012502600000                              M 0400000000000231461231   20101008                              1252729900  00                                   4000858012390808102010                                                     M              592D6D0189
15023326680520020MR.HAROON ISMAIL                        201  KALYAN COMPLEX A WING              VARSOVA YARI ROAD ANDHERI W             231460252                                                               R08092010600068099000770834003010003824000000                              M 0400000000000231460252   20101008                               388809900  00                                   4000858012391408102010                                                     M              6D19193190
50004052280520020PATRICK BRILLANT                        202 KALYAN COMPLEX A WING               VERSOVA YARI ROAD  ANDHERI W            231461282                                                               C0809201080002799900T511929904010000093400000                              M 0400000000000231461282   20101008                                14649900  00                                   4000858012393108102010                                                     M              5F7B7B5191
10217603280520020KHOZEM MERCHANT                         A-303 AAKANKSHA KALYAN COMP YARI RD     VERSOVA ANDHERI W                       231461266                               next to Demart mall             R08092010700013499000774237305010000764200000                              M 0400000000000231461266   20101008                                78769900  00                                   4000858012393708102010                                                     M              4490E0B192
15060748780520020KHEITEJAN KHAN                          FLT-A/301,    AAKANKSHA CHS LTD,        KALYAN COMPLEX, VERSOVA,                231461306                               PANCH MARG, ANDHERI W           R08092010700028699000775123705020001223500000                              M 0400000000000231461306   20101008                               126209900  00                                   4000858012394108102010                                                     M              5266364193
10217602080520020SAJIDA CONTRACTOR                       A 302 AAKANSHA CHS KALYAN COMP          VARSOVA YARI ROAD ANDHERI W             231462034                               nr, bank of india, off yari roadR08092010700000099000783768106010000249600000                              M 0400000000000231462034   20101008                                24969900  06ZN                                 4000858012395308102010                                                     M              1D9919B194
10217607780520020DARYANANI SAISON CON P LT               403  KALYAN COMPLEX A WING              VARSOVA YARI ROAD ANDHERI W             231462064                                                               R08092010700028099000773689506020001480400000                              M 0400000000000231462064   20101008            01                 153059900  00                                   4000858012400708102010   15304                                             M              5783A3A195
10217604880520020DARYANANI SAISON CON P LT               401  KALYAN COMPLEX A WING              VARSOVA YARI ROAD ANDHERI W             231462953                               near KALYAN COMPLEX             R08092010700019399000777096907010013526700000                              M 0400000000000231462953   20101008                              1354659900  00                                   4000858012401508102010                                                     M              48CCBCE196
10217606880520020DARYANANI SAISON CON P LT               402  KALYAN COMPLEX A WING              VARSOVA YARI ROAD ANDHERI W             231462934                                                               R08092010700034299000773620707020002213000000                              M 0400000000000231462934   20101008                               225379900  00                                   4000858012402108102010                                                     M              6FFBCBD197
15035123580520020AHMED ALIAS BHIKA.K.HALA & MR YUNUS HALAA/503    AAKANKSHA CHS LTD,KALYAN COMPLEPANCH MARG RD,VERSOVA,ANDHERI-W         231463880                                                               R08092010600066199000770383708010000847400000                              M 0400000000000231463880   20101008                                92659900  00                                   4000858012402808102010                                                     M              6BAFDF8198
10217608780520020DARYANANI SAISON CON P LT               501  KALYAN COMPLEX A WING              VARSOVA YARI ROAD ANDHERI W             231462095                                                               R08092010700053199000769042308020001516500000                              M 0400000000000231462095   20101008                               157809900  00                                   4000858012403208102010                                                     M              6044646199
10218802080520020KARIM LALANI                            A502 AKANSHA CHS LTD VARS               PANCH MARG KALYAN COMPLEX ANDHERI W     231474472                                                               R08092010700031499000760504309010003641000000                              M 0400000000000231474472   20101008            01                 368659900  00                                   4000858012404108102010    3688                                             M              69EDDDC200
