10079848952708001SURYAKANT BOBATE                            SHIVAJI NAGAR PUMP HOUSE            JIJAMATA RD ANDHERI E                   229760892                                                               R230820106000146990004795386010100001289                                   M 0600000000000229760892G  20100924
10080922852708001PANCHAM KEWAT                               SHIVAJI NGR PUMP HOUSE                                                      229762713                               NR HANGER NGR ANDHERI           R230820106000052990004795237010200000445                                   M 0600000000000229762713G  20100924
15119562452708001MR. SOMA GOSAVI                             MANIYAR CHAWL SHIVAJI NAGAR         PUMP HOUSE JIJAMATA RD                  229760901                               ANDHERI EAST.                   R230820106000192990004795229020100001523                                   M 0600000000000229760901G  20100924
10081574252708001LEELA PATADE                                SHIVAJI NAGAR PUMP HOUSE            JIJAMATA RD ANDHERI EAST                229762719                                                               R230820106000158990004795398020200001427                                   M 0600000000000229762719G  20100924
15070620352708001HARISH PAWASKAR                             SHIVAJI NAGAR PUMP-HOUSE            JIJAMATA RD                             229761910                               ANDHERI EAST                    R230820106000100990004795327030100000929                                   M 0600000000000229761910G  20100924
10082659752708001GAJANAN SHINDE                              158 MANIYARCHL SHIVAJI NG           JIJAMATA MARG ANDHERI E                 229760882                                                               R230820106000164990004795399030200001310                                   M 0600000000000229760882G  20100924
10080493152708001PYARELAL NABIK                              SHIVAJI NAGAR PUMPHOUSE                                                     229761981                               NR HANGER NAGAR ANDHERI         R230820106000092990004795226040100000585                                   M 0600000000000229761981G  20100924
10080723852708002SURESH PARAB                                R-7 MANIYAR CHL PUMP HSE J M RD     ANDHERI E                               229761932                               NR HANJAR NGR                   R230820106000078990006967044010100003069                                   M 0600000000000229761932K  20100924
10086447652708002SARITA SAWANT                               MANIYAR CHAWL                       PAMP HOUSE JIJAMATA MARG ANDHERI E      229764443                                                               R230820106000186990007004662010200008207                                   M 0600000000000229764443K  20100924
10086460852708002NAVDEEP SINGH                               MANIYAR CAHWL                       PUMP HOUSE JIJAMATA MARG ANDHERI E      229765127                               NR MAHARASTRA GENERAL CHL       R230820106000198990006967048010300008030                                   M 0600000000000229765127K  20100924
10086437952708002ANJALI PARAB                                MANIYAR CHAWL                       PAMP HOUSE JIJAMATA MARG ANDHERI E      229764412                                                               R230820106000137990005387812010400007472                                   M 0600000000000229764412K  20100924
10082634852708002RICHARD RODIGUES                            MANIYAR CHAWAL ANDHERI EAST                                                 229757794                               OPP HANGAR NAGAR PUMP HOUSE     R230820106000067990006979066010500006782                                   M 0600000000000229757794K  20100924
10086441952708002MOHAN GURAV                                 MANIYAR CHL PUMP HOUSE              JIJAMATA MARG ANDHERI E                 229764425                                                               R230820106000059990006979134020100002525                                   M 0600000000000229764425K  20100924
15018024052708002KUSUM PADWAL                                MANIYAR CHAWL                       PUMP HOUSE JIJAMATA MARG ANDHERI E      229764506                                                               R230820106000105990006979159020200005625                                   M 0600000000000229764506K  20100924
10082648752708002MOHD M SHAIKH                               MANIYAR CHL JIJAMATA MRG PUMPHOUSE  ANDHERI E                               229760832                               xxxx                            R230820106000153990007275231020300005427                                   M 0600000000000229760832K  20100924
10086445752708002GIGA VAGHELA                                MANIYAR CHAWL                       PAMP HOUSE JIJAMATA MARG ANDHERI E      229764432                               ANDHERI EAST                    R230820106000201990006979135020400007983                                   M 0600000000000229764432K  20100924
10086456152708002PUNDALIK SAWARKAR                           MANIYAR CHAWL                       PAMPAHOUSE JIJAMATA MARG ANDHERI E      229764482                                                               R230820106000174990007004805020500007815                                   M 0600000000000229764482K  20100924
10086464052708002MOHAN GOSAVI                                MANIYAR CHAWL                       PUMP HOUSE JIJAMATA MARG ANDHERI E      229765144                                                               R230820106000128990007004953030100005141                                   M 0600000000000229765144K  20100924
10086478752708002RAJARAM BANE                                MANIYAR CHAWL                       PAMPA HOUSE JIJAMATA MARG ANDHERI E     229765932                                                               R230820106000070990007005775030200003607                                   M 0600000000000229765932K  20100924
10086436552708002MANGESH KHARWAR                             MANIYAR CHAWL                       PAMP HOUSE JIJAMATA MARG ANDHERI E      229763581                                                               R230820106000071990007004914030300002307                                   M 0600000000000229763581K  20100924
10086465552708002BHANGA AAGRE                                MANIYAR CHAWL                       PUMP HOUSE JIJAMATA MARG ANDHERI E      229765141                                                               R230820106000071990007004741030400003716                                   M 0600000000000229765141K  20100924
10086433652708002DONDURAM SHINDE                             MANIYAR CHAWL                       PAMP HOUSE JIJAMATA MARG ANDHERI E      229763573                                                               R230820106000132990007004975030500005282                                   M 0600000000000229763573K  20100924
10086439452708002DUDHANANH NISHAD                            MANIYAR CHAWL                       PAMP HOUSE JIJAMATA MARG ANDHERI E      229763603                                                               R230820106000073990007005166040100002895                                   M 0600000000000229763603K  20100924
15029517752708002DNYANESHWAR SANGLE                          MANIYAR CHAWL, PUMP HOUSE           JIJAMATA MARG ANDHERI E                 229763589                                                               R230820106000168990006979195040200007260                                   M 0600000000000229763589K  20100924
15043499952708002RESHAMA PARAB                               MANIYAR CHAWL                       JIJAMATA RD PUMP HOUSE ANDHERI E        229765918                                                               R230820106000046990006839414040300002090                                   M 0600000000000229765918K  20100924
10086443252708002MANOHAR SHENDEKAR                           MANIYAR CHAWL                       PAMP HOUSE JIJAMATA MARG ANDHERI E      229763594                                                               R230820106000073990007004922040400003183                                   M 0600000000000229763594K  20100924
10086444452708002VIJAY TULASKAR                              MANIYAR CHAWL                       PAMP HOUSE JIJAMATA MARG ANDHERI E      229764419                                                               R230820106000084990007005215040500003962                                   M 0600000000000229764419K  20100924
15087801152708002RAMESH KHANVILKAR                           MANIYAR CHAWL PUMP HOUSE            JIJAMATA MARG                           229765115                               ANDHERI EAST                    R230820106000111990004795312050100000863                                   M 0600000000000229765115G  20100924
10086425452708002AMBAJI MORE                                 MANIYAR CHAWL                       JIJAMATA RD PAMP HOUSE ANDHERI E        229763553                                                               R230820106000151990006979197050200005823                                   M 0600000000000229763553K  20100924
10083114352708002VISHNU KAMBLE                               MANIYA R CHL JIJAMATA RD            SHIVAJI NAGAR ANDHERI E                 229761964                                                               R230820106000094990006965108050300005465                                   M 0600000000000229761964K  20100924
10086458852708002RAMESH PARAB                                MANIYAR CHAWL                       PUMP HOUSE JIJAMATA MARG ANDHERI E      229764488                                                               R230820106000123990006979201050400005186                                   M 0600000000000229764488K  20100924
10086466652708002VASANT PATEL                                RM NO 36 MANIYAR CHAWL              PUMP HOUSE JIJAMATA MARG ANDHERI E      229765132                                                               R230820106000084990007004759060100003314                                   M 0600000000000229765132K  20100924
15118329252708002LAXMAN POSTURE                              MANIYAR CHAWL                       JIJAMATA MARG                           229765156                               PUMP HOUSE, ANDHERI (EAST)      C230820106000012990007004917060200001652                                   M 0600000000000229765156K  20100924
15093657452708002CHOTELAL NABIK                              MANIYAR CHAWL                       PAMP HOUSE JIJAMATA MARG ANDHERI E      229764474                               ANDHERI EAST                    R230820106000121990006979133060300004874                                   M 0600000000000229764474K  20100924
15019806052708002SACHIN PAWAR                                MANIYAR CHAWL SHIVAJI NGR RAH CHL   COMM PUMP HSE J M MARG ANDHERI E        229752610                                                               R230820106000064990006979116070100003960                                   M 0600000000000229752610K  20100924
10086453052708002RAMESH PAWASKAR                             MANIYAR CHAWL                       PAMP HOUSE JIJAMATA MARG ANDHERI E      229764497                                                               R230820106000239990007005813070200007488                                   M 0600000000000229764497K  20100924
10086452252708002RAM YADAV                                   MANIYAR CHAWL                       PAMPA HOUSE JIJAMATA MARG ANDHERI E     229764462                                                               R230820106000086990007005806070300003292                                   M 0600000000000229764462K  20100924
15120030852708002SUNANDA MHATRE                              MANIYAR CHAWL,SHIVAJI NGR,          JIJAMATA ROAD,PUMP HOUSE,               229754110                               ANDHERI E                       R230820106000211990006967037080100002531                                   M 0600000000000229754110K  20100924
10086449152708002ANANT CHORGHE                               MANIYAR CHAWL                       PAMP HOUSE JIJAMATA MARG ANDHERI E      229764453                                                               R230820106000103990007005838080200004492                                   M 0600000000000229764453K  20100924
10086467652708002ANAND AKALEKAR                              MANIYAR CHAWL                       JIJAMATA RD PUMP HOUSE ANDHERI E        229765198                                                               R230820106000120990007004812080300004987                                   M 0600000000000229765198K  20100924
15101216552708002ANAND BHOSALE                               MANIYAR CHAWL,                      OPP HANJAR NGR,PUMP HOUSE,              229751053                               JIJAMATA ROAD,ANDHERI-EAST.     R230820106000028990005424533080400002955                                   M 0600000000000229751053K  20100924
15111033452708003PRAMILA DESAI                               SHIVAJI NAGAR CHAWL COMMITTEE       JIJAMATA MARG                           229763514                               PAMP HSE, ANDHERI EAST          R230820106000062990006964355010100002854                                   M 0600000000000229763514K  20100924
10086423752708003VITHAL ACHREKAR                             SHIVAJI NAGAR COMMITTI              JIJAMATA RD PAMP HOUSE ANDHERI E        229762794                                                               R230820106000083990006971010010200003719                                   M 0600000000000229762794K  20100924
10086430152708003MIRA AGRAHARI                               SHIWAGI NGR RAMETI PAMP HSE         JIJAMATA MARG ANDHERI E                 229763530                                                               R230820106000268990006970999010300011600                                   M 0600000000000229763530K  20100924
10080457052708003ISHWAR KHANDAGALE                           SHIVAJI NAGAR CHL COMM BHUTA COMPD  ANDHERI E                               229754160                               NR HANJAR NGR                   R230820106000126990006971056010400004707                                   M 0600000000000229754160K  20100924
10086414552708003KRUSHNA DESHMANE                            SHIWAGI NGR RAMETI PAMP HSE         JIJAMATA MARG ANDHERI E                 229762777                               OPP:AGHANI NAGAR PUNP HOUSE     R230820106000117990006971014010500003408                                   M 0600000000000229762777K  20100924
10086431452708003ANIMA PAUL                                  SHIVAJI NAGAR PUMP HOUSE            JIJAMATA MARG ANDHERI EAST              229763566                                                               R230820106000123990007005784020100005353                                   M 0600000000000229763566K  20100924
10086485252708003MADHUKAR PATEKAR                            SHIWAGI NGR RAMETI PAMP HSE         JIJAMATA MARG ANDHERI E                 229765943                                                               R230820106000224990007005135020200008761                                   M 0600000000000229765943K  20100924
15018557052708003USHA KATE                                   SHIVAJI NAGAR, NR HANJAR NAGAR,     JIJAMATA RD, PUMP HOUSE,                229754181                               ANDHERI (E)                     R230820106000101990006986482020300003987                                   M 0600000000000229754181K  20100924
10086413052708003RAMDAS MASURKAR                             SHIWAGI NGR RAMETI PAMP HSE         JIJAMATA MARG ANDHERI E                 229762770                               .                               R230820106000194990007006186020400006926                                   M 0600000000000229762770K  20100924
10086429052708003RAJENDRAPRASAD TIWARI                       SHIWAGI NGR RAMETI PAMP HSE         JIJAMATA MARG ANDHERI E                 229763547                                                               R230820106000162990006970969020500004845                                   M 0600000000000229763547K  20100924
10086427452708003PUSHPA BHOIR                                SHIVAJI NAGAR COMMITTI              JIJAMATA ROAD PAMP HOUSE ANDHERI E      229763542                                                               R230820106000081990007005817030100003962                                   M 0600000000000229763542K  20100924
10086426552708003SHANKAR MAHAT                               SHIVAJI NAGAR                       JIJAMATA ROAD,PUMP HOUSE                229763534                               ANDHERI-EAST                    R230820106000115990004795397030200001042                                   M 0600000000000229763534G  20100924
10079847352708003BHIMSEN SHINDE                              2 SHIVAJI NGR CHL                   JIJAMATA RD PUMPHOUSE ANDHERI E         229753444                                                               R230820106000118990007006150030300004937                                   M 0600000000000229753444K  20100924
10084050352708003KANTA YADAV                                 SHIVAJI NGR CHL                     JIJAMATA ROAD PUMP HSE ANDHERI  E       229751869                                                               R230820107000112990005031441030400005612                                   M 0600000000000229751869   20100924
10083106852708003LAXMAN BOBATE                               SHIVAJI NAGAR CHAWL                 AGHADI NAGAR PUMP HOUSE ANDHERI E       229761974                                                               R230820106000103990006985534030400004403                                   M 0600000000000229761974K  20100924
10270546052708003UMESH PARAB                                 SHIVAJI NGR PUMP HOUSE JIJAMATA RD  ANDHERI E                               229765208                               NR HANGR NGR                    R230820106000280990006984162030500008949                                   M 0600000000000229765208K  20100924
10086432652708003ANANDI KOYANDE                              C 31 OM SUYOG CHAWL                 SHIVAJI NAGAR  PUMP HOUSE ANDHERI E     229763562                                                               R230820106000016990007005778040100003913                                   M 0600000000000229763562K  20100924
10086416352708003HAZEL TOMPAL                                SHIWAGI NGR PAMETI PUMP HOU JIJAMAT MARG ANDHERI E                          229762805                                                               R230820106000177990007005776040200008630                                   M 0600000000000229762805K  20100924
10086421752708003GANESH SHELAR                               SHIWAGI NGR RAMETI PAMP HSE         JIJAMATA MARG ANDHERI E                 229762799                                                               R230820106000069990006965107040300003220                                   M 0600000000000229762799K  20100924
10086471552708003MEENA JOGLE                                 SHIVAJI NGR,PUMP HOUSE,             JIJAMATA MARG,ANDHERI EAST              229765164                                                               R230820106000100990007005814050100004604                                   M 0600000000000229765164K  20100924
15009154052708003ANKUSH MOGARE                               SHIWAGI NGR RAMETI PAMP HSE         JIJAMATA MARG ANDHERI E                 229763519                                                               R230820106000187990007005792050200008899                                   M 0600000000000229763519K  20100924
10082658852708003GANESH MONDE                                SHIVAJI NAGAR NO 2                  JIJAMATA MARG PUMP HOUSE ANDHERI E      229758518                                                               R230820106000202990007005783050300005455                                   M 0600000000000229758518K  20100924
10085981052708004RAMESH SALAMWADE                            SHIVAJI NGR ZOPADPATTI              JIJAMATA RD PUMPHOUSE ANDHERI E         229754943                                                               R230820106000097990004795378010100000795                                   M 0600000000000229754943G  20100924
10085975052708004VIJAY PARULKAR                              SHIVAJI NGR ZOPADPATTI              JIJAMATA RD PUMPHOUSE ANDHERI E         229754200                                                               R230820106000104990004573141010200001645                                   M 0600000000000229754200G  20100924
15091840952708004PRAMILA PANCHAL                         PHL- 7/ 8    BABU RAWALA CHAWL          NR HANJAR NAGAR,ANDHERI[E]              229758587                               SHIVAJI NAGAR,PUMP HOUSE        R230820106000141990007006079010300006897                                   M 0600000000000229758587K  20100924
10085973652708004NARAYAN DAKHANKAR                           SHIVAJI NGR ZOPADPATTI              JIJAMATA RD PUMPHOUSE ANDHERI E         229754206                                                               R230820106000128990004795344010400001155                                   M 0600000000000229754206G  20100924
10086407052708004ME M PAWAR                                  SHIVAJI NGR ZOPADPATTI              JIJAMATA RD PUMPHOUSE ANDHERI E         229756725                                                               R230820106000142990005841390010500006761                                   M 0600000000000229756725K  20100924
10082045552708004PUSHPAWATI AAREKAR                          SHIVAJI NGR NGR PUMP HOUSE JIJAMATA RD ANDHERI E                            229754118                               OPP AGHADI                      R230820106000043990007006030020100002829                                   M 0600000000000229754118K  20100924
10081555352708004BENIRAM SHARMA                              SHIVAJI NAGAR PUMP HOUSE                                                    229762001                               NR HANGER NAGAR ANDHERI         R230820106000092990004795303020200000861                                   M 0600000000000229762001G  20100924
10082660852708004CHANDRAKANT KOKATE                          1566 SHIVAJI CHL PUMPHOUS           HANJAR NGR JIJAMATA RD ANDHERI E        229760879                                                               R230820106000065990006984463020300002504                                   M 0600000000000229760879K  20100924
10086455352708004SHASHIKANT RAUT                             SHIVAJI NAGAR                       PUMP HOUSE ANDHERI EAST                 229758544                               NR HAJAR NAGAR                  R230820106000130990006986181020400006151                                   M 0600000000000229758544K  20100924
10086408552708004B GAWDE                                     SHIVAJI NGR ZOPADPATTI              JIJAMATA RD PUMP HOUSE ANDHERI E        229756717                                                               C230820106000051990007005773020500004030                                   M 0600000000000229756717K  20100924
15036851452708004SATYAWAN GHADGE                             SHIVAJI  NAGAR  CHL  COMMITTEE,     PUMP  HOUSE, J.M. R'D, ANDHERI (EAST)   229750357                               ANDHERI EAST                    R230820106000053990007056150020600002682                                   M 0600000000000229750357K  20100924
15117027852708004VIJAYKUMAR RAO                              SHIVAJI NGR                         PUMP HOUSE                              229760016                               NR HANJAR NGR, ANDHERI (EAST)   R230820106000186990007005107030100004791                                   M 0600000000000229760016K  20100924
10085982252708004DADRAM MESTRY                               SHIVAJI NAGAR ZOPAT PATTI           JIJAMATA RD PUMPHOUSE ANDHERI E         229754957                               NEAR PUMPHOUSEC                 R230820106000136990007431590030200002757                                   M 0600000000000229754957K  20100924
15081528252708004ROHINI PARAB                                SHIVAJI NAGAR CHAWL                 OPP.HANJAR NAGAR,PUMP HOUSE,            229765991                               JIJAMATA ROAD,ANDHERI EAST      R230820106000007990007004973030300002004                                   M 0600000000000229765991K  20100924
15007915152708004KHARBHAN YADAV                              SHIVAJI NGR ZOPADPATI               JIJAMATA MARG PUMP HOUSE ANDHERI E      229754966                                                               R230820106000039990007004855030400002816                                   M 0600000000000229754966K  20100924
10085978352708004DILEEP BAWAKAR                              SHIVAJI NGR ZOPADPATTI              JAJAMATA RD PUMP HOUSE ANDHERI E        229754190                                                               R230820106000092990007101583030500003991                                   M 0600000000000229754190K  20100924
10083783952708004ANANT MANAVE                                C 156 SHIVAJI NGR PUMP HOUSE        JIJAMATA MARG ANDHERI E                 229765938                                                               R230820106000071990007005250040100003122                                   M 0600000000000229765938K  20100924
15059133652708004LATA HARMALKAR                              SHIVAJI NGR ZOPADPATTI              JIJAMATA ROAD, PUMP HOUSE,              229755959                               agadi nagar                     R230820106000134990008300667040200004136                                   M 0600000000000229755959K  20100924
10085997752708004DIGAMBER YELAMKAR                           SHIVAJI NGR ZOPADPATTI ANDHERI E                                            229755921                               NR NARAYAN NGR PUMP HOUSE J RD  R230820106000106990007005256040300004586                                   M 0600000000000229755921K  20100924
10086402052708004UTTAM GHADGE                                SHIVAJI NGR ZOPADPATTI              JIJAMATA RD PUMPHOUSE ANDHERI E         229755968                                                               R230820106000114990004795249040400000939                                   M 0600000000000229755968G  20100924
10086404952708004BHAGWAN PUJARE                              SHIVAJI NGR ZOPADPATTI JIJAMATA RD  PUMPHOUSE ANDHERI EAST                  229756005                                                               R230820106000106990004795270040500000935                                   M 0600000000000229756005G  20100924
1503310565270804APARVATI KARNATI                             SHINAJI  NGR,  JIJAMATA  NGR,       PUMP HOUSE,ANDHERI (E)                  229750346                                                               R230820106000081990007090735010100003601                                   M 0600000000000229750346K  20100924
1502554815270804ASHEETAL SHIRVADKAR                      R.NO.1, R.NO.1,   SHIVAJI  NGR ZOPADPATTJIJAMATA  MARG, PUMP  HOUSE, ANDHERI  (E229750398                               NR.HANJAR NGR,                  R230820106000019990007006552020100000913                                   M 0600000000000229750398K  20100924
10085983652708005SULOCHANA SONAWANE                          SHIVAJI NGR ZOPADPATTI              JIJAMATA RD PUMPHOUSE ANDHERI E         229754927                                                               R230820106000218990007004938010100009336                                   M 0600000000000229754927K  20100924
10086410252708005GAJANAN GAIKWAD                             SHIVAJI NAGAR CHL COMMITTEE         JIJAMATA RD PUMP HOUSE ANDHERI E        229756732                                                               R230820106000170990007004763010200005288                                   M 0600000000000229756732K  20100924
15115733252708005SMT. JAYA CHILWERI                          SHIVAJI NGR ZOPADPATTI              JIJAMATA RD PUMP HOUSE                  229754922                               ANDHERI EAST.                   R230820106000062990006979105010300002693                                   M 0600000000000229754922K  20100924
15100072052708005SAVITRI KARANDE                             SHIVAJI NGR ZOPADPATTI              JIJAMATA RD PUMPHOUSE                   229756750                               ANDHERI-EAST                    R230820106000121990007005781020100005887                                   M 0600000000000229756750K  20100924
10086403652708005SANDESH KANSE                               SHIVAJI NGR ZOPADPATTI              JIJAMATA RD PUPM HOUSE ANDHERI E        229755988                                                               R230820106000235990007005801020200004753                                   M 0600000000000229755988K  20100924
10085986652708005SHANTARAM KANSE                             SHIVAJI NGR ZOPADPATTI              JIJAMATA RD PUMP HOUSE ANDHERI E        229754977                                                               R230820106000162990007005812030100004689                                   M 0600000000000229754977K  20100924
10085980152708005SUKHADEV NARALE                             SHIVAJI NGR ZOPADPATTI              JIJAMATA RD PUMP HOUSE ANDHERI E        229754938                                                               R230820106000106990007004932030200004822                                   M 0600000000000229754938K  20100924
15024675052708005VIJAY PALANDE                               SHIVAJI NGR CHL COMMITTEE           JIJAMATA RD,ANDHERI-EAST                229760057                               OPP HANJAR NGR                  R230820106000086990004795388040100000741                                   M 0600000000000229760057G  20100924
1504955655270805ARAMESH DHOPAT                               SAHAMITRA CHAWL COMMITTEE PUMP HOUSEANDHERI (EAST)                          229743551                               HANJAR NAGAR JIJAMATA ROAD      R230820106000091990007358390000000002309                                   M 0600000000000229743551K  20100924
1511865705270805ASWAPNIL SATIM                               SANMITRA CHAWL,                     JIJAMATA MARG,PUMPHOUSE,                229772122                               NR.HANJAR NAGAR, ANDHERI (E)    R230820106000039990004915110000000000201                                   M 0600000000000229772122G  20100924
1507948285270805APUSHPA HAGAWANE                             SANAMITRA CHAWL COMMITTEE,          PUMP HOUSE, HANJAR NGR,                 229743522                               JIJAMATA R'D, ANDHERI (EAST)    R230820106000039990008313947000000000709                                   M 0600000000000229743522K  20100924
10083134952708006BABU YADAV                                  BABUBHAI REVDA CHAWL                JIJAMATA ROAD PUMP HOUSE ANDHERI E      229756771                                                               R230820106000047990006641883010100002327                                   M 0600000000000229756771K  20100924
10083152952708006GERALDIN FERNANDES                          S M CHL BABU RAWADA CHAL            JIJAMATA ROAD FUMP HOUSE ANDHERI E      229757808                                                               R230820106000072990006964416010200003545                                   M 0600000000000229757808K  20100924
15060627052708006RAM PENDHARI                                BABU REWALA CHL,                    PUMP HOUSE,                             229757783                               JIJAMATA ROAD,ANDHERI (EAST)    R230820106000195990004600358010300002420                                   M 0600000000000229757783G  20100924
10083136352708006SHOBHA KARANDEKAR                           SUNMITRA CHL PUMP HOUSE             JIJAMATA ROAD ANDHERI E                 229757723                                                               R230820106000085990006628508010400002415                                   M 0600000000000229757723K  20100924
10083130452708006VIDYA ROSHMAN TIWARI                        BABUBHAI REVDA CHAWL                JIJAMATA ROAD PUMP HOUSE ANDHERI E      229755977                                                               R230820106000225990006628611020100006785                                   M 0600000000000229755977K  20100924
15069369652708006DEEPAK MAHALE                               BABU RAWLA CHAWL,                   GANESH NAGAR, PUMP HOUSE, JIJAMATA RD   229758535                               ANDHERI (E), near ambik tower   R230820106000030990004601761020200000537                                   M 0600000000000229758535G  20100924
10083100752708006SUREKHA WALKE                               SAMMITRA CHAWL ROOM NO 1 ANDHERI E                                          229753496                               OPP AGHADI NAGAR PUMP HOUSE     R230820106000169990004563239020300002519                                   M 0600000000000229753496G  20100924
10083104752708006GAJANAN SARGAR                              SANMITRA CHAWL R NO 3               HOUSE ANDHERI E                         229754125                               OPP AGHADI NGR PUMP             R230820106000094990006628509030100004731                                   M 0600000000000229754125K  20100924
10083103452708006PAVITA BHAGEDE                              SANMITRA CHAWL R NO 2 ANDHERI E                                             229753502                               OPP AGHADI NGR PUMP HOUSE       R230820106000001990006628610030200002503                                   M 0600000000000229753502K  20100924
10083106752708006SUSHILA PAWAR                               SANMITRA CHL R NO 4 ANDHERI E                                               229754144                               OPP AGHADI NGR PUMP HOUSE       R230820106000093990006628737030300003397                                   M 0600000000000229754144K  20100924
10082303452708006SUBHASH SARGAR                              3 SAMMITRA CHL JIJAMATA R           ANDHERI EAST                            229766781                               OPP AGHADI NAGAR PUMP HOUSE     R230820106000092990006628612030400004044                                   M 0600000000000229766781K  20100924
1506032875270806ASANGEETA CHAUDHAR                       01 01   SANMITRA  CHAWL  COMMITTEE      JIJAMATA  ROAD   ANDHERI(EAST)          229751021                               HANJAR NAGAR PUMP HOUSE         R230820106000174990006748678010100005543                                   M 0600000000000229751021K  20100924
1511877075270806ARASHMI BHISE                                SANGH MITRA CHAWL COMMITTEE         OPP.HANJAR NAGAR,PUMP HOUSE,            229751062                               JIJAMATA ROAD,ANDHERI-EAST      R230820106000164990006675135010200006248                                   M 0600000000000229751062K  20100924
1502424875270806AGANESH GURAV                            03 03   SANMITRA  CHAWL  COMMITTEE      JIJAMATA  ROAD   ANDHERI(EAST)          229750383                               HANJAR NAGAR PUMP HOUSE         R230820106000083990006716480020100003445                                   M 0600000000000229750383K  20100924
1502424965270806APREMNATH GAIKWAD                        02 02   SANMITRA  CHAWL  COMMITTEE      JIJAMATA  ROAD   ANDHERI(EAST)          229750391                               HANJAR NAGAR PUMP HOUSE         R230820106000084990006669560030100003320                                   M 0600000000000229750391K  20100924
10086418752708007BALKRISHNA BHATADE                          SANMITRA CHAWL COMMITTEE,           JIJAMATA ROAD, PUMPHOUSE                229757744                               ANDHERI (EAST),                 R230820106000186990004597758010100002408                                   M 0600000000000229757744G  20100924
15009194852708007DARSHANA TEMBWALKAR                         SANMITRA CHAWL,HANJER NAGAR,        JIJAMATA ROAD,ANDHERI-EAST              229757766                               NEAR PUMPHOUSE                  R230820106000085990004598075010200001174                                   M 0600000000000229757766G  20100924
10079847252708007KAMAL GURAV                                 SANMITRA CHAWL ANDHERI EAST                                                 229760859                               NR HANGER NGR PUMP HOUSE        R230820106000170990006702550010300005935                                   M 0600000000000229760859K  20100924
10087142852708007RAMESH CHAWAN                               SANMITRA CHAWL PUMP HOUSE           JIJAMATA RD ANDHERI E                   229758560                                                               R230820106000055990004602277010400000852                                   M 0600000000000229758560G  20100924
15120488552708007DATTA GAIKWAD                               SUNMITRA CHAWL COMMTTEE             JIJAMATA MARG, PUMP HOUSE               229757753                               ANDHERI (EAST)                  R230820106000168990004601429010500001980                                   M 0600000000000229757753G  20100924
10082622152708007ULHASH REDKAR                               SANMITRA CHAWL,PUMP HOUSE,          NEAR HANJAR NAGAR,                      229756741                               ANDHERI (EAST),                 R230820106000114990006702476010600004336                                   M 0600000000000229756741K  20100924
10082021452708007SURESH SATIM                                SANMITRA CHAWL ANDHERI E                                                    229762740                               NR HANGER NGR PUMP HOUSE        R230820106000121990004601024020100002288                                   M 0600000000000229762740G  20100924
15013406252708007GANAPAT PAWAAR                          R.NO.14    SANMITRA CHL HANJAR NGR      JIJAMATA RD  ANDHERI E                  229760822                               PUMP HOUSE                      R230820106000116990006702937020200002732                                   M 0600000000000229760822K  20100924
10086416952708007YASHWANT AHIRE                              BABU REWALE CHL PUMP HOUSE                                                  229756782                               NR HANJER RD ANDHERI E          R230820106000133990004600437020300001781                                   M 0600000000000229756782G  20100924
15010078852708007PRADIP MIRASHI                              SUMITRA CHL COMMEETEE SHIVAJI NGR   PUMP HOUSE MAHAKALI RD ANDHERI E        229757774                               PUMP HOUSE                      R230820106000070990004601779020400001499                                   M 0600000000000229757774G  20100924
10086420752708007NITIN MESTRY                                SAMITRA CHL COMMITEE BABU - REWALE  CHL PUMP HOUSE ANDHERI EAST BVAI        229757733                                                               R230820106000082990006706801020500003827                                   M 0600000000000229757733K  20100924
10086453752708007SURESH HAGAWANE                             BABU REWALE CHL PUMPHOUSE           HANGER ROAD ANDHERI E                   229758552                               NR NARAYAN NGR                  R230820106000133990004559177020600001867                                   M 0600000000000229758552G  20100924
15016760252708007NAMITA BOBHATE                          ROOM 10    SANMITRA CHL                 JIJAMATA MARG,PUMP HOUSE,ANDHERI-EAST   229761947                               NR HANGER NGR                   R230820106000178990004601780030100003105                                   M 0600000000000229761947G  20100924
15025533252708007RAJESH BHANAT                               SANMITRA CHAWL                      NR HANGER NGR PUMP HOUSE ANDHERI E      229751861                                                               R230820106000073990004602551030200000932                                   M 0600000000000229751861G  20100924
10086413552708007JAIPRAKASH PRAJAPATI                        SANMITRA CHL, COMIFFFICE,  NR. HANJA JIJAMATA MARG,  PUMP HOUSE,            229756790                               ANDHERI (E).                    R230820106000088990006897879030300003914                                   M 0600000000000229756790K  20100924
10087150852708007KALIPRASAD GUPTA                            SANMITRA CHL PUMP HOUSE             JIJAMATA RD ANDHERI E                   229759416                               x                               R230820106000082990004602908040100001223                                   M 0600000000000229759416G  20100924
10087140352708007MOHD SABBIR AHMAD                           SAN MITRA CH JIJAMATA RD            NARAYAN NGR PUMP HOUSE ANDHERI          229758573                                                               R230820106000038990005841268040200002322                                   M 0600000000000229758573K  20100924
10086423452708007KRISHNA NACHANKAR                           BABU REWALE CHL PUMP HOUSE                                                  229757731                               NR HANJER RD ANDHERI E          R230820106000123990004601374040300001889                                   M 0600000000000229757731G  20100924
10086422552708007VINAYAK GAIKWAD                             SANMITRA CHL PUMP HOUSE             HANJER RD ANDHERI E                     229757712                               ANDHERI EAST                    R230820106000163990006777823040400005370                                   M 0600000000000229757712K  20100924
15036945852708007MR.RAJENDRA MESTRY                          BABAU RAWALE CHAWL, SANMITRA CHL. CO                                        229756798                               PUMP HOUSE, NR HANJER ROAD, ANDHR230820106000114990006702000040500004441                                   M 0600000000000229756798K  20100924
10082022852708008GANGADHAR LINGAYYA                          BABU REWALE CHAWL JIJAMATA RD PUMP  HOUSE ANDHERI EAST                      229762761                                                               R230820106000264990005907728010100019105                                   M 0600000000000229762761K  20100924
10085994052708008BHARATI PARAB                               BABU REWALE CHL PUMPHOUSE ANDHERI E                                         229755948                               NR HANGER ROAD                  R230820106000096990004484623010200001520                                   M 0600000000000229755948G  20100924
10087152052708008ACHHABARNATH TRIGUNATI                      1 BABU REVALA PATEL CHL             NAGARDAS COMPD J M MARG ANDHERI E       229758597                                                               C230820106000060990004487349010300000890                                   M 0600000000000229758597G  20100924
10085992752708008BETKAR RAMESH                               BABU RAWALE CHL NAGARDAS COMPD      JIJAMATA MARG PUMP HOUSE ANDHERI E      229755928                                                               R230820106000142990004484629010400002027                                   M 0600000000000229755928G  20100924
15116241852708008RAJESHRI PAWAR                              BABU REWALE CHAWL                   NR HANGER NGR PUMP HOUSE                229761984                               ANDHERI (EAST)                  R230820106000181990006967077010500005020                                   M 0600000000000229761984K  20100924
10082019052708008PREMSING DHANSINGH                          BABU REWALE CHAWL JIJAMATA RD PUMP  HOUSE ANDHERI EAST                      229762786                               NEAR PUMP HOUSE                 C230820106000000990004946927010600000000                                   M 0600000000000229762786G  20100924
10083738952708008ANAND TILAVE                                BABU REWALE CHL JIJAMATA RD         PUMP HOUSE ANDHERI EAST                 229760839                                                               R230820106000187990007180921020100005120                                   M 0600000000000229760839K  20100924
10083729352708008NIRMALA BAIGAD                              BABUREWALE CHAWL ANDHRI E                                                   229760071                               NR HANGER NGR PUMP HOUSE        R230820106000079990006967079020200004757                                   M 0600000000000229760071K  20100924
15033313252708008MRS.SATYAWATI MHADRE                        BABU REWALE CHL NARAYAN N           PUMP HOUSE ANDHERI E                    229758577                               NR HANGER NGR JIJAMATA RD       R230820106000080990006979213020300003292                                   M 0600000000000229758577K  20100924
10086412752708008BALA PARAB                                  BABU REWALE CHAWL ANDHERI EAST                                              229756761                               NR HANGER NAGAR PUMPHOUSE       R230820106000135990007159625020400004261                                   M 0600000000000229756761K  20100924
10085998852708008PANDURANG GURUV                             BABU REWALE CHAWL ANDHERI EAST                                              229755935                               NR HANGER NAGAR PUMPHOUSE       R230820106000025990004485971020500000832                                   M 0600000000000229755935G  20100924
10087150052708008RAMASHANKAR YADAV                           BABU REVALE CHAWL ANDHERI EAST                                              229758607                               NR HANGER NGR PUMP HOUSE        R230820106000037990004487282030100000592                                   M 0600000000000229758607G  20100924
10085988252708008RAMCHARAN JAISWAL                           BABU REWALE CHAWL ANDHERI EAST                                              229754988                               NR HANGER NAGAR PUMPHOUSE       R230820106000084990005908627030200003133                                   M 0600000000000229754988K  20100924
15052630052708008SMT.SAVITRI PARAB                           BABU REWALE CHAWL                   NR HANGER NAGAR                         229755910                               PUMPHOUSE ANDHERI EAST          R230820106000151990004484626030300001424                                   M 0600000000000229755910G  20100924
15043558652708008MR.KRISHNA CHAVAN                           BABU REWALE CHAWL                   NR HANGER NAGAR PUMPHOUSE               229755000                               ANDHERI EAST                    R230820106000059990004597785030400000758                                   M 0600000000000229755000G  20100924
10086400352708008PRAKASH KADAM                               BABU REWALE CHAWL ANDHERI EAST                                              229755997                               NR HANGER NAGAR PUMPHOUSE       R230820106000113990004604238030500001411                                   M 0600000000000229755997G  20100924
10081580352708009GOVRDHAN GUJRATI                            BABUREWALA CHAWL JIJAMATA MARG PUMP HOUSE ANDHERI EAST                      229752631                               .                               R230820106000257990007005302010100011462                                   M 0600000000000229752631K  20100924
15085573852708009DINANATH TIWARI                             BABU REWALA CHAWL JIJAMATA MARG     PUMP HOUSE                              229753423                               ANDHERI-EAST                    C230820106000119990006976136010200001443                                   M 0600000000000229753423K  20100924
10087138452708009JAGANATH SHIRSEKAR                          4 BABU REWLE CHL                    JIJA MATA ROAD PUMP HOUSE ANDHERI E     229754150                               .                               R230820106000118990006976153010300005570                                   M 0600000000000229754150K  20100924
10082049752708009BAHADUR SINGH                               BABU REWALA CHAWL JIJAMATA MARG     PUMP HOUSE ANDHERI EAST                 229754168                                                               R230820106000126990007005294020100006443                                   M 0600000000000229754168K  20100924
10082003852708009VIJAY PADWAL                                BABU REWALA CHAWL JIJAMATA MARG     PUMP HOUSE ANDHERI EAST                 229753454                                                               R230820106000079990007004862020200003809                                   M 0600000000000229753454K  20100924
15117436652708009AJAY O.P. AGARWAL                           BABU REWAL CHL J.MATA MRG           OPP AGHADI NAGAR PUMP HOUSE             229754175                               ANDHERI EAST.                   R230820106000233990006979141020300011477                                   M 0600000000000229754175K  20100924
10082002952708009SURESH BUVAD                                BABU REWALA CHAWL JIJAMATA MARG     PUMP HOUSE ANDHERI EAST                 229752692                                                               R230820106000055990007004853030100003608                                   M 0600000000000229752692K  20100924
15057845352708009MRS. JYOTSNA DALVI                          BABU REWALA CHAWL                   JIJAMATA MARG PUMPHOUSE                 229752669                               ANDHERI EAST                    R230820106000005990007005319030200001335                                   M 0600000000000229752669K  20100924
10086453852708009SARFARAZ PATEL                              10 GANESH NGR RAH SANGH JIJAMATA RD PUMP HOUSE B R CHL ANDHERI E            229752637                                                               R230820106000172990006976125030300008191                                   M 0600000000000229752637K  20100924
10082000652708009RAVINDRA SINGH                              BABUREWALA CHAWL JIJAMATA MARG PUMP HOUSE ANDHERI EAST                      229752679                                                               R230820106000081990006976145040100004441                                   M 0600000000000229752679K  20100924
10081599752708009RADHA SONI                                  BABUREWALA CHAWL JIJAMATA MARG PUMP HOUSE ANDHERI EAST                      229752701                                                               R230820106000056990007005318040200002115                                   M 0600000000000229752701K  20100924
10086454952708009BABUBHAI BEGAD                              22 BABU REWALA PATEL CHL JIJAMATA   RD NGRDAS COMPD ANDHERI E               229752648                                                               R230820106000095990006976124040300004246                                   M 0600000000000229752648K  20100924
10084315452708009GULABCHAND YADAV                            BABU REWALA CHL JIJAMATA RD         ANDHERI E                               229761914                               NR HANJAR NGR PUMP HOUSE        R230820106000052990006706981050100002694                                   M 0600000000000229761914K  20100924
10082013052708010DILIP GHADI                                 BABU REWALA CHAWL JIJAMATA MARG     PUMP HOUSE ANDHERI EAST                 229753435                                                               R230820106000080990006707275010100002650                                   M 0600000000000229753435K  20100924
10081567952708010RADHESHYAM GUPTA                            BABUREWALA CHAWL JIJAMATA MARG PUMP HOUSE ANDHERI EAST                      229752660                                                               R230820106000157990006702280020100005957                                   M 0600000000000229752660K  20100924
10082018052708010JAGDEV KANHI KANAUJIYA                      BABUREWALA CHAWL JIJAMATA MARG PUMP HOUSE ANDHERI EAST                      229753475                                                               R230820106000125990006704104030100005720                                   M 0600000000000229753475K  20100924
10085930352708010DROPADI JOSHI                               5 BABU REVALE CHAWL                 JIJAMATA ROAD PUMP HOUSE ANDHERI E      229751038                                                               R230820106000164990006706767030200005934                                   M 0600000000000229751038K  20100924
15040009552708010ANITA SAMUEL                                BABU REWALA CHAWL JIJAMATA MARG     PUMP HOUSE ANDHERI EAST                 229753467                                                               R230820106000151990006702137040100006507                                   M 0600000000000229753467K  20100924
15053630452708011SACHIN KALE                                 BABUKHELA CHAWL SHIVAJI NAGAR       ANDHERI (EAST)                          229742806                               JIJAMATA ROAD PUMP HOUSE        R230820106000054990006618875000000003001                                   M 0600000000000229742806K  20100924
10082627352708011S NATHAN                                    SH 4 BABU REVLA PATEL CHL JIJAMATA  RD PUMP HOUSE ANDHERI EAST              229767842                               nr pump house                   C230820106000084990007011874010100007096                                   M 0600000000000229767842K  20100924
10082615752708011MARION S CLUB PVT LTD                       ROOM 10 BABOO REVALE CHAWL          ANDHERI PUMP HOUSE ANDHERI E            229766748                               ANDHERI E                       C230820106000001990007011867010200002613                                   M 0600000000000229766748K  20100924
10083735252708011SACHIN PADAVE                               BABU REVAI A PATEL CHAWL            JAJAMATA RD PUMP HOUSE ANDHERI E        229760086                                                               R230820106000061990006641844010300003232                                   M 0600000000000229760086K  20100924
10084377752708011BALGOVIND RAJBHAR                           2 BABURAO REVDA CHL CHAWL COMMITTEE GANESH NGR PUMP HOUSE ANDHERI E B       229770488                                                               R230820106000142990007011868010400006413                                   M 0600000000000229770488K  20100924
10082620052708011JAGGANATH WALAM                             BABU REVLA PATEL CHAWL JIJAMATA RD  PUMP HOUSE ANDHERI EAST                 229766808                                                               R230820106000073990004553037010500000079                                   M 0600000000000229766808G  20100924
10082628652708011D NELLIE                                    BABU REVLA CHAWL JIJAMATA RD PUMP   HOUSE ANDHERI EAST                      229767859                                                               R230820106000151990004574265020100000161                                   M 0600000000000229767859G  20100924
10082623052708011SUMAN PATEL                                 BABU REVLA PATEL CHAWL JIJAMATA RD  PUMP HOUSE ANDHERI EAST                 229766801                                                               R230820106000081990004583143020200000859                                   M 0600000000000229766801G  20100924
10082625252708011PRAKASH BANSODE                             BABU REVLA PATEL CHAWL JIJAMATA RD  PUMP HOUSE ANDHERI EAST                 229767836                               .X                              R230820106000111990004686244020300000312                                   M 0600000000000229767836K  20100924
15048724652708011SMT.BHAGIRATHI SONAR                        BABU REVLA PATEL CHAWL JIJAMATA RD  PUMP HOUSE ANDHERI EAST                 229767870                                                               R230820106000157990007011829020400005249                                   M 0600000000000229767870K  20100924
15019923852708011SHER BAHADUR SONAR                          BABU REVLA PATEL CHAWL,             JIJAMATA ROAD, ANDHERI (EAST)           229751074                               OPP.AGHADI NAGAR,NR.GANESH NGR.CR230820106000030990006605692030100001575                                   M 0600000000000229751074K  20100924
10082617652708011B PARAB                                     BABU REVLA PATEL CHAWL JIJAMATA RD  PUMP HOUSE ANDHERI EAST                 229767818                                                               R230820106000209990007011870030200008264                                   M 0600000000000229767818K  20100924
10080722852708011BIJENDRA MISHRA                             13 BABU REWALA CHAWL JIJAMATA RD    NGRDAS COMPOUND ANDHERI E               229761940                                                               R230820106000081990007012153030300004528                                   M 0600000000000229761940K  20100924
10082621652708011ASHOK RANE                                  BABU REVLA PATEL CHAWL JIJAMATA RD  PUMP HOUSE ANDHERI EAST                 229766795                                                               R230820106000040990007011817030400002222                                   M 0600000000000229766795K  20100924
10082008652708011NAGESH KALE                                 ROOM 9 BABU REVLA CHAWL JIJAMATA RD PUMP HOUSE ANDHERI EAST                 229761993                                                               R230820106000170990007011811030500006963                                   M 0600000000000229761993K  20100924
1510722575270811ARUCHI BHATKAR                           SHOP NO.A1 SHOP NO.A1   BABU REVLA CHAWLJIJA MATA ROAD ANDHERI(EAST)            229771408                               OMKAR SUYOG MANDAL PUMP HOUSE   C230820106000033990005825806000000008019                                   M 0600000000000229771408K  20100924
1007969435270811AR NATHAN                                    BABU REVLA CHAWL ANDHERI E                                                  229760105                               OPP AGHADI NAGAR PUMP HOUSE     C230820107000787990007555402010100078462                                   M 0600000000000229760105   20100924
15089835952708012SUSHILA PATEL                               SHIVAJI NAGAR,                      JIJAMATA MARG, PUMPHOUSE,               229743584                               BHD.AMBIKA TOWER, ANDHERI (EAST)R230820106000029990007182236000000001733                                   M 0600000000000229743584K  20100924
15090616152708012SUJATA GAWDE                                BABU REWALE CHAWL,                  JIJAMATA MARG, PUMP HOUSE,              229744121                               BHD.AMBIKA TOWER, ANDHERI (EAST)R230820106000080990008377345000000001356                                   M 0600000000000229744121K  20100924
15090836752708012ANIL RAWATA                                 BABU REWALE CHAWL BHD AMBIKA TOWER  ANDHERI (EAST)                          229744148                               JIJAMATA MARG PUMP HOUSE        R230820106000047990008368217000000000745                                   M 0600000000000229744148K  20100924
15091568752708012REKHA SOLANKI                               BABU REWALE CHAWL,                  JIJAMATA  MARG,                         229744164                               BHD.AMBIKA TOWER, ANDHERI (E)   R230820106000097990008369693000000001658                                   M 0600000000000229744164K  20100924
10083161752708012DAYARAM JAISWAL                             A2 OMKAR SUYOG MANDAL BE JIJAMATA   CHOWKY JIJAMATA MARG ANDHERI E          229760022                               .                               R230820106000149990006964173010100007812                                   M 0600000000000229760022K  20100924
15106384552708012NAVNATH PAWAR                           ROOM-08. ROOM-08.   BABU REWALE CHAWL,  JIJAMATA MARG, PUMP HOUSE,              229750335                               NR.AMBIKA MATA MANDIR, ANDHERI -R230820106000048990006628705010200004107                                   M 0600000000000229750335K  20100924
10083152452708012RUCHI BHATKAR                               A1 OMKAR SUYOG MANDAL BEH JIJAMATA  CHOWKY JIJAMATA MARG ANDHERI E          229759434                               nr pump house                   R230820106000114990007011809010300008659                                   M 0600000000000229759434K  20100924
10080943852708012R NATHAN                                    BABU REWLA CHAWL SHIVAJI            OMKAR SUYOG MANDAL ANDHERI E            229758526                               nr pump house                   R230820106000057990006964279020100003394                                   M 0600000000000229758526K  20100924
10086446052708012BABY RAWTA                                  BABU RAVLA CHL SHIVAJI NG           PUMP HOUSE ANDHERI E                    229752623                                                               R230820106000056990007005912020200002267                                   M 0600000000000229752623K  20100924
10083151152708012T MANTHIRAM                                 OMKAR SUYOG MANDAL JIJAMATA MARG BH JIJMATA CHKY ANDHERI E                  229759464                                                               C230820106000020990007011814020300002550                                   M 0600000000000229759464K  20100924
10083163752708012PRAKASH VAST                                BABU REWALA CHAWL,SHIVAJI NGR,      OPP AGHADI NGR,JIJAMATA MARG,           229760038                               ANDHERI (EAST),                 R230820106000040990006976119030100002261                                   M 0600000000000229760038K  20100924
10083159952708012RAMCHANDRA TERAVAKAR                        A3 OMKAR SUYOG MANDAL BEH JIJAMATA  CHOWKY JIJAMATA MARG ANDHRI E           229759506                                                               R230820106000108990007011855030200004683                                   M 0600000000000229759506K  20100924
15025738152708012MANTHIRAM TEVAR                             BABU REVALE CHAWL,                  JIJAMATA ROAD, ANDHERI (EAST)           229751031                               OPP.AGHADI NAGAR,PUMP HOUSE,    R230820106000111990007185102030300002109                                   M 0600000000000229751031K  20100924
10086475552708013VITHAL TAWADE                               3 SHIVAJI NGR                       JIJAMATA RD PUMP HOUSE ANDHERI E        229765928                                                               R230820106000119990006964132010100005901                                   M 0600000000000229765928K  20100924
10087146652708013PUSHPAKANT DAVE                             BABU REWALA CHAWL,SHIVAJI NGR,      OPP AGHADI NGR,PUMP HOUSE,              229767850                               ANDHERI (EAST),                 R230820106000108990006964125010200003699                                   M 0600000000000229767850K  20100924
15069240152708013ULHAS PAL                                   SHIVAJI NAGAR NO.2,PUMP HOUSE       NR HANJAR NAGAR                         229768620                               JAJAMATA RD ANDHERI EAST        R230820106000024990004481235020100001214                                   M 0600000000000229768620G  20100924
10080971052708013ASHOK PATEL                                 1 SHIVAJI NGR PUMPHOUSE JIJAMATA    MARG HANJAR NGR ANDHERI E               229759456                                                               R230820106000105990006964131020200006382                                   M 0600000000000229759456K  20100924
10087147652708013SITARAM DEVE                                SHIVAJI NAGAR JAJAMATA RD ANDHERI E                                         229767890                               NR HANJAR NGR                   R230820106000124990006964274030100005975                                   M 0600000000000229767890K  20100924
10080923952708013SARITA VASTE                                SHIVAJI NAGAR ANDHERI EAST                                                  229751849                               NR AGHADI NGR JIJAMATA RD       R230820106000085990004480342030200001158                                   M 0600000000000229751849G  20100924
10087122452708013SUNITA RAUT                                 SHIVAJI NAGAR                       JIJAMATA RD PUMP HOUSE ANDHERI E        229765979                                                               R230820106000092990006964133040100004143                                   M 0600000000000229765979K  20100924
10079865052708014JAYESHRI MAYEKAR                            SHIVAJI NGR JIJAMATA RD ANDHERI E                                           229771322                               NR HANJAR NGR                   R230820106000188990006964161010100009191                                   M 0600000000000229771322K  20100924
10079866052708014KAMALKANT JAIN                              SHIVAJI NGR JAJAMATA RD ANDHERI E                                           229771353                               NR HANJAR NGR                   R230820106000051990005845980010200002601                                   M 0600000000000229771353K  20100924
10080927452708014MANDAKINI NALAWDE                           SHIVAJI NAGAR ANDHERI EAST                                                  229751882                               NR AGHADI NGR JIJAMATA RD       R230820106000108990004480982010300001140                                   M 0600000000000229751882G  20100924
10079866552708014PRASANT DUDVADKAR                           SHIVAJI NGR JAJAAMATA RD ANDHERI E                                          229771370                               NR HANJAR NGR                   R230820106000161990007432065020100003740                                   M 0600000000000229771370K  20100924
10079873052708014MAHESH ROHIDAS                              A 9 OMKAR SUYOG MANDAL SHIVAJI NGR  JIJAMATA RD PUMP HOUSE ANDHERI E        229771343                                                               R230820106000127990006971966020200006086                                   M 0600000000000229771343K  20100924
10080907152708014JAGDISH DATTANI                             SHIVAJI NAGAR ANDHERI EAST                                                  229751097                               NR AGHADI NGR JIJAMATA RD       R230820106000084990004481819020300001201                                   M 0600000000000229751097G  20100924
10083735152708014TUKARAM ZORE                                SHIVAJI NGR JIJAMATA RD ANDHERI E                                           229760079                               NR AGHADI NGR PUNPHOUSE         R230820106000026990006964164020400001180                                   M 0600000000000229760079K  20100924
15121224252708014SUNIL DHOBI                                 SHIVAJI NGR NO-2,PUMP HOUSE         JAJAMATA RD,NR HANJAR NGR,              229771378                               ANDHERI (E).                    R230820106000012990007100903030100003642                                   M 0600000000000229771378K  20100924
10079870452708014ARJUNPRASAD JASWAR                          SHIVAJI NGR JAJAMATA RD ANDHERI E                                           229771333                               NR HANJAR NGR                   R230820106000054990004489173030200000399                                   M 0600000000000229771333G  20100924
10080908852708014JAYASHREE POLEKAR                           SHIVAJI NAGAR ANDHERI EAST                                                  229751836                               NR AGHADI NGR JIJAMATA RD       R230820106000155990004480339030300001950                                   M 0600000000000229751836G  20100924
15117228052708014MOHAN TAWDE.                                SHIVAJI NAGAR,                      NR. AGHADI NGR, JIJAMATA RD,            229751892                               ANDHERI E.                      R230820106000066990004490399030400001125                                   M 0600000000000229751892G  20100924
15038710652708014SHILPA MURTHY                               A-8 SHIVAJI NGR RAHIWASI            SANGH 2 JIJAMATA MARG ANDHERI E         229766790                                                               R230820106000055990006971934040100003334                                   M 0600000000000229766790K  20100924
10084350152708014KISHOR ANGRE                                A-10 SHIVAJI NGR RAH SGH            JIJAMATA MARG ANDHERI E                 229766771                                                               R230820106000020990006959168050100001000                                   M 0600000000000229766771K  20100924
10087101052708014PRAVIN DUDHWADKAR                           SHIVAJI NGR RAH SANGH               AGHADI NGR JIJAMATA RD ANDHERI E        229753482                                                               R230820106000254990006971967060100007242                                   M 0600000000000229753482K  20100924
10087125952708015MANIKCHANDRA YADAV                          SHIVAJI NAGAR                       JIJAMATA RD PUMP HOUSE ANDHERI E        229765959                                                               R230820106000068990007011863010200002823                                   M 0600000000000229765959K  20100924
10087160252708015RAMSEVAK CHAWAN                             SHIVAJI NGR JIJAMATA RD ANDHERI E                                           229768652                               NR HANJAR NGR                   R230820106000090990004490400010300001223                                   M 0600000000000229768652G  20100924
10087156452708015RAMKISHOR YADAV                             SHIVAJI NGR JIJAMATA RD ANDHERI E                                           229767900                               NR HANJAR NGR                   R230820106000070990004487288010400001032                                   M 0600000000000229767900G  20100924
10087130152708015SHASHIKANT BHOGALE                          SHIVAJI NAGAR                       JIJAMATA RD PUMP HOUSE ANDHERI E        229766710                                                               R230820106000123990005318436020100006993                                   M 0600000000000229766710K  20100924
10087134152708015SUBHASH BOLE                                SHIVAJI NAGAR                       JIJAMATA RD PUMP HOUSE ANDHERI E        229766740                                                               R230820106000121990007005663020200004561                                   M 0600000000000229766740K  20100924
10087158352708015DHONDU VAREKAR                              SHIVAJI NGR JIJAMATA RD ANDHERI E                                           229768643                               NR HANJAR NGR                   R230820106000280990006844862020300006806                                   M 0600000000000229768643K  20100924
10079379952708015KASHINATH LAD                               SHIVAJI NAGAR                       JIJAMATA RD HANJAR NGR ANDHERI E        229771312                                                               R230820106000099990007011848020400004194                                   M 0600000000000229771312K  20100924
10087131952708015VITHAL WADOSKAR                             SHIVAJI NAGAR                       JIJAMATA RD PUMP HOUSE ANDHERI E        229766732                                                               R230820106000034990004481286030100000382                                   M 0600000000000229766732G  20100924
10087159452708015ANUSAYA RANE                                SHIVAJI NGR JIJAMATA RD ANDHERI E                                           229768630                               NR HANJAR NGR                   R230820106000147990007011860030200007379                                   M 0600000000000229768630K  20100924
10087161052708015RAJESH SINGH                                SHIVAJI NGR JIJAMATA RD HANJAR NGR  ANDHERI E                               229768660                                                               R230820106000089990004481806030300001298                                   M 0600000000000229768660G  20100924
10087124052708015SEEMA MHASKER                               C 53 OMKAR SUVOG MANDAL             SHIVAJI NAGAR PUMP HOUSE ANDHERI E      229765972                                                               R230820106000032990006788813040100003527                                   M 0600000000000229765972K  20100924
10087154652708015KANU RAUL                                   SHIVAJI NGR JIJAMATA RD ANDHERI E                                           229767879                               NR HANJAR NGR                   R230820106000124990004490392040200001575                                   M 0600000000000229767879G  20100924
10087157352708015VIMAL BHATTI                                SHIVAJI NGR JIJAMATA RD ANDHERI E                                           229768671                               NR HANJAR NGR                   R230820106000051990006733853040300002785                                   M 0600000000000229768671K  20100924
10080458852708015SHANKAR DONGARE                             SHIVAJI NAGAR CHL COMM BHUTA COMPD  ANDHERI E                               229754914                               NR HANJAR NGR                   R230820106000097990007012149040400003344                                   M 0600000000000229754914K  20100924
10086477352708015PRAVINKUMAR HINGU                           2 SHIVAJI NGR JIJAMATA              RD PUMP HOUSE ANDHERI E                 229765950                                                               R230820106000057990007012146050100003167                                   M 0600000000000229765950K  20100924
10079075852708015SHANKAR SHINDE                              SHIVAJI NGR JIJAMATA RD             ANDHERI EAST                            229769661                               HANJAR NAGAR,                   R230820106000181990007468898050200004501                                   M 0600000000000229769661K  20100924
10087155552708015ROBERT RODRIGUES                            23 OM-KAR SYOUG MANDAL SHIVAJI      NGR JIJAMATA RD ANDHERI E               229767908                               NR HANJAR NGR                   R230820106000109990006697411050300005442                                   M 0600000000000229767908K  20100924
10079381852708015MARUTI SADVIKAR                             SHIVAJI NGR JIJAMATA RD PUMP HOUSE  ANDHERI E                               229770504                               ANDHERI EAST                    R230820106000071990004489174050400000985                                   M 0600000000000229770504G  20100924
15123340352708016SITARAM KOYANDE                             OM SUYOG CHAWL,                     SHIVAJI NAGAR, PUMP HOUSE,              229772142                               NR.HANJAR NAGAR, ANDHERI (EAST) R230820106000088990004681352000000000212                                   M 0600000000000229772142K  20100924
10079076852708016AMARJEETKAUR SINGH BHAMRA                   SHIVAJI NGR REHWASHI SANGH          JIJAMATA MARG ANDHERI E                 229769652                               OPP HANJAR NAGAR PUMPHOUSE      R230820106000083990005841392010100006541                                   M 0600000000000229769652K  20100924
10079082252708016MAHADEV CHAWAN                              OMKAR NIWAS CHL R NO 28 SHIVAJI NGR JIJAMATA RD NR H N ANDHERI E            229770478                                                               R230820108000067990005322451010200007756                                   M 0600000000000229770478K  20100924
10079085552708016SHEETAL BAGDURE                         C 27 OMKAR    SUYOG MANDAL CHAWL SHIVAJIPUMP HOUSE ANDHERI E                    229770447                                                               R230820106000125990007182803010300002651                                   M 0600000000000229770447K  20100924
10079087352708016GANESH PARAB                                B-20 OMKAR SUYOG MANDAL JIJAMATA RD AAGADI NGR P HOUSE ANDHERI E            229770432                                                               R230820106000076990005768089020100003538                                   M 0600000000000229770432K  20100924
10086474252708016BABUBHAI SOLANKI                            2 SHIVAJI NGR                       JIJAMATA RD PUMP HOUSE ANDHERI E        229765189                                                               R230820106000110990006795152020200004837                                   M 0600000000000229765189K  20100924
10079088852708016JAIRAM JADHAV                               SHIVAJI NGR JIJAMATA RD ANDHERI E                                           229770496                               NR HANJAR NGR                   R230820106000097990006972420020300006434                                   M 0600000000000229770496K  20100924
10080910552708016MANGESH GHADIGAVKAR                         SHIVAJI NAGAR ANDHERI EAST                                                  229751827                               NR AGHADI NGR JIJAMATA RD       R230820106000083990005885326020400005486                                   M 0600000000000229751827K  20100924
15094027352708016SAWATA LINGE KABIR                          SHIVAJI NAGAR                       JIJAMATA ROAD,                          229766004                               PUMP HOUSE,ANDHERI EAST         R230820106000135990006971960030100004808                                   M 0600000000000229766004K  20100924
15043404452708016MRS.VASUDHA SONAWANE                    ROOM NO 20    OMKAR SUYOG MANDAL        SHIVAJI NAGAR                           229769676                               PUMP HOUSE ANDHERI E            R230820106000085990007316292030200001891                                   M 0600000000000229769676K  20100924
10079079852708016SUNANDA MASURKAR                            B 18 OMKAR SUYOG MANDAL ANDHERI E                                           229769643                               OPP AGHADI NGR JIJAMATA MARG    R230820106000104990005903451030300005886                                   M 0600000000000229769643K  20100924
10083724952708016NARESH KALSEKAR                             E 62 OMKAR SAHYOG MANDAL ANDHERI E                                          229762729                               OPP AGHADI NAGAR                R230820106000082990006972131030400003614                                   M 0600000000000229762729K  20100924
10079081352708016SHRIPAD CHANDERKAR                          SHIVAJI NGR OMKAR SUYOG MANDAL      JIJAMATA RD ANDHERI E                   229769695                               NR HANJAR NGR                   R230820106000078990006721637040100001967                                   M 0600000000000229769695K  20100924
10079083652708016SANTOSH DATEY                               OMKAR SUYOG MANDAL SHIVAJI NGR      PUMP HOUSE ANDHERI EAST                 229770422                                                               R230820106000177990005769383040200006844                                   M 0600000000000229770422K  20100924
10087128752708016BALU PANDIT                                 227 SHIVAJI NAGAR                   JIJAMATA RD PUMP HOUSE ANDHERI E        229766725                               ANDHERI EAST                    R230820106000007990007036103040300001660                                   M 0600000000000229766725K  20100924
10079077652708016LALITA PAWAR                                SHIVAJI NGR JIJIMATA NAGAR          ANDHERI EAST J                          229769613                                                               R230820107000029990005158083040400010147                                   M 0600000000000229769613   20100924
15125051852708016SATYAWN K. PREMLATA S. SAWANT               E-77, OMKAR SAHYOG MANDAL,          SHIVAJI NGR NO. -2, OPP AGHADI NGR,     229751902                               ANDHERI (EAST).                 R230820106000054990006964128050100006168                                   M 0600000000000229751902K  20100924
15040398652708016JAYWANT KOYANDE                         C / 32 , C / 32 ,   OM  SUYOG  CHAWL,   PUMP HOUSE, ANDHERI ( EAST )            229749707                               SHIVAJI NAGAR,                  R230820106000076990007049493050200002549                                   M 0600000000000229749707K  20100924
15089702952708017MANISHA TAWADE                          R. N.  12 R. N.  12   SHIVAJI NAGAR PUMPANDHERI (EAST)                          229743568                               JIJAMATA MARG                   R230820106000000990008377929000000000121                                   M 0600000000000229743568K  20100924
15091572852708017BALCHANDRA MAYEKAR                          OMKAR SUYOG MANDAL,                 SHIVAJI NGR, JIJAMATA MARG,             229744169                               BHD.AMBIKA TOWER, ANDHERI (E)   R230820106000029990008369559000000000848                                   M 0600000000000229744169K  20100924
15112918452708017MRS.RAMKALI GUPTA                           SHIVAJI CHAWL, 1 ST FLOOR,          JIJAMATA ROAD,                          229772112                               PUMPHOUSE,OPP.MASJID, ANDHERI (ER230820106000152990004701746000000001249                                   M 0600000000000229772112K  20100924
10083795952708017M GUPTA                                     SHIWAJI CHL JIJAMATA MARG ANDHERI E                                         229760853                                                               C230820106000047990006704143010100008989                                   M 0600000000000229760853K  20100924
10083174352708017ROSHANLAL MEWADA                        OMKAR    SUYOG MANDAL SHIVAJI CHL COMIT HOUSE JIJA MATA RD ANDHERI E            229760065                               hanjer nagar masjid             C230820106000157990006978963010200008946                                   M 0600000000000229760065K  20100924
10083172152708017BHOGALE DATTARAM                            8A OMKAR SUYOG CHAWL COMM           JEEJAMATA RD PUMP HOUSE ANDHERI E       229760031                                                               C230820106000022990006978966010300003019                                   M 0600000000000229760031K  20100924
10083156852708017GOVIND SHELAR                               E52 OMKAR SUYOG MANDAL BEH JIJAMATA CHOWKY JIJAMATA MARG ANDHERI E          229759497                                                               R230820106000186990006701873010400007210                                   M 0600000000000229759497K  20100924
10083157552708017BHIMAJI JADHAV                              E51 OMKAR SUYOG MANDAL BEH JIJAMATA CHOWKY JIJAMATA MARG ANDHERI E          229759478                                                               R230820106000072990006707195010500004259                                   M 0600000000000229759478K  20100924
10083797352708017KRISHNAKUMAR YADAV                          SHIVAJI NAGAR CHAWLNO-2             PUMP HOUSE                              229760865                               JIJAMATA MARG ANDHERI [E]       R230820106000040990006964170020100001973                                   M 0600000000000229760865K  20100924
15039106652708017SARITA MULEKAL                          ROOM 55    OMKAR SUYOG MANDAL           PUMP HOUSE JIJAMTA MARG ANDHERI E       229760870                                                               R230820106000033990006971863020200003793                                   M 0600000000000229760870K  20100924
15086842552708017PALLAVI HATKAR                              OMKAR SUYOG MANDAL SHIVAJI NGR      JIJAMATA MRG BHD JIJAMATA CHKY          229759423                               ANDHERI (EAST),                 R230820106000080990006964438020300003000                                   M 0600000000000229759423K  20100924
10084300352708017CHANDRAKANT JUJUM                           OMKAR SUYOG MANDAL J M RD ANDHERI E                                         229760848                               OPP AGHDI NGR                   R230820106000108990006976127020400004402                                   M 0600000000000229760848K  20100924
10083154152708017LASKHMAN SHINDE                         E 50 OMKAR    SUYOG MANDAL BEH JIJAMATA JIJAMATA MARG ANDHERI E                 229759470                                                               R230820106000139990006976149020500006798                                   M 0600000000000229759470K  20100924
10083162752708017AJIT RANE                               OMKAR    SUYOG MANDAL BHD JIJAMATA CHOWKJIJAMATA MARG PUMP HOUSE ANDHERI E      229760046                                                               R230820106000235990006976012030100008485                                   M 0600000000000229760046K  20100924
10083155752708017ARJUN MAYEKAR                               OMKAR SUYOG MANDAL BEH JIJAMATA     CHOWKY JIJAMATA MARG ANDHERI E          229759445                                                               R230820106000077990006976010030200005044                                   M 0600000000000229759445K  20100924
10083158552708017KAKASHEB UTTARE                             OMKAR SUYOG MANDAL BEH JIJAMATA     CHOWKY JIJAMATA MARG ANDHERI E          229759485                                                               R230820106000231990006976167030300008919                                   M 0600000000000229759485K  20100924
15055067752708017MEERADEVI KUMAR GUPTA                       OMKAR SUYOG MANDAL SHIVAJI NGR      JIJAMATA MARG PUMP HOUSE ANDHERI E      229753411                                                               R230820106000167990006976162030400004697                                   M 0600000000000229753411K  20100924
15041951052708017SAKSHI BHOGLE                               OMKAR SAHYOG MANDAL CHAWL,          JIJAMATA RD, PUMP HOUSE, ANDHERI (EAST) 229744194                               SHIVAJI NAGAR, OPP.HANGAR NAGAR,R230820106000157990004519871040100001720                                   M 0600000000000229744194G  20100924
10083794252708017ASHOK HIRALAL DUBEY                         2 OMKAR MANDAL JIJAMATA MARG        ANDHERI E                               229760814                               OPP AGHADI NGR PUMP-HOUSE       R230820106000066990006976192040200002121                                   M 0600000000000229760814K  20100924
15044939652708017GANPAT JADHAV                           E-51 E-51   OMKAR  SUYOG  MANDAL        PUMP HOUSE JIJAMATA MARG  ANDHEIR(EAST) 229744711                               SHIVAJI NAGAR OPP:AGHADI NAGAR  R230820106000100990006720955050100004448                                   M 0600000000000229744711K  20100924
10080406052708017HARENDRA S SINGH                            OMKAR SAHYOG MANDAL                 JIJAMATA RD PUMP HOUSE ANDHERI E        229754135                                                               R230820106000105990006979177050200003086                                   M 0600000000000229754135K  20100924
15041950952708017PRADEEP MULEKAL                          55.   OMKAR SUYOG MANDAL,SHIVAJI NAGAR,PUMP HOUSE, ANDHERI (EAST)              229744181                               OPP.AGHADI NAGAR,               R230820106000123990006763861060100005193                                   M 0600000000000229744181K  20100924
10082682752708017ANILKUMAR SHAH                              SHIVAJI CHL COMM ANDHERI E                                                  229761921                               OPP AGHADI NGR PUMP HSE         R230820106000069990006976152060200002586                                   M 0600000000000229761921K  20100924
10083195852708019MIDC POLICE STN                             GANESH NAGAR                        PUMP HOUSE JIJAMATA ROAD ANDHERI E      229760094                                                               C230820106000132990004851824130100000662                                   M 0600000000000229760094G  20100924
10080459452708020SACHINDRA SHIRKE                            DN1 TELEPHONE BOOTH JIJAMATA CHOWKS PUMPHOUSE ANDHERI E                     229761953                               NEAR POLICE STATION             R230820106000018990004851899130100000167                                   M 0600000000000229761953G  20100924
10085913852708021BALU KAMBLE                                 150 RENUK FOOT WEAR JIJAMATA RD     PUMP HOUSE ANDHERI E MUBAI              229751083                                                               C230820106000031990007135899010100001158                                   M 0600000000000229751083K  20100924
10084358352708022MARUTI KENDRA                               JUNCTION OF JIJAMATA RAOD PUMPHOUSE ANDHERI E                               229766760                                                               C230820105000191990003514170130100032013                                   M 0600000000000229766760   20100924
15070078552708023PRADEEP KAVTHANKAR                      A-601 A-601 SIXTH  AMBIKA TOWER         JIJAMATA ROAD,AGHADI NAGAR              229748962                               NR.PUMP HOUSE,ANDHERI-EAST      R230820107000202990007766552010100008859                                   M 0600000000000229748962   20100924
15056785052708023KALPESH JAIN                            A-602 A-602 SIXTH  AMBIKA TOWER'A'WING  JIJAMATA ROAD,ANDHERI EAST              229748957                               NR.PUMP HOUSE,                  R230820107000240990007766383010200009080                                   M 0600000000000229748957   20100924
15052836552708023RAJESH SHAH                             A-603 A-603 SIXTH  AMBIKA TOWER'A'WING  NR. PUMP HOUSE,                         229748993                               JIJAMATA ROAD,ANDHERI (E)       R230820107000196990007766384010300007204                                   M 0600000000000229748993   20100924
15052835952708023MR.NITIN SAWANT                         A-604 A-604 SIXTH  AMBIKA TOWER'A'WING  RAJMATA JIJABAI  RD.                    229748979                               NR.PUMP HOUSE,ANDHERI EAST      R230820107000208990007767151020100009125                                   M 0600000000000229748979   20100924
15052789552708023PREMLATA TANDON                         A-605 A-605 SIXTH  AMBIKA TOWER'A'WING  JIJAMATA ROAD,ANDHERI EAST              229748983                               NR.PUMP HOUSE,                  R230820107000164990007767433030100008392                                   M 0600000000000229748983   20100924
15103694652708023MR. PEMBA & MRS ANUJA BHOTIA            A-501 A-501 FIFTH  AMBIKA TOWER CO. OP. RAJMATA JIJAMATA ROAD,NR.PUMP HOUSE,    229748375                               NR.PUMP HOUSE,                  R230820107000248990007767300040100008376                                   M 0600000000000229748375   20100924
15042649552708023ADITI DEVELOPERS                        A-302 A-502 FIFTH  AMBIKA TOWER'A'WING  JIJAMATA ROAD,ANDHERI EAST              229748383                               NR.PUMP HOUSE,                  R230820107000514990007765678040200018876                                   M 0600000000000229748383   20100924
15107213152708023MRS.RAVINDER KAUR SOOR & MR.KER SINGH SOA-503 A-503 FIFTH  AMBIKA TOWER CHS LTD,RAJMATA JIJAMATA RD,PUMP HOUSE,         229748951                               JIJAMATA CHOUK,ANDHERI (EAST)   R230820107000111990007767302040300011571                                   M 0600000000000229748951   20100924
15099207752708023AGNELO MENDONCA SHUBHRA MENDONCA         A-504 FIFTH  A-504,AMBIKA TOWER CHS.LTDJIJAMATA ROAD,NR.PUMP HOUSE             229748941                               ANDHERI EAST                    R230820107000146990007766512050100006155                                   M 0600000000000229748941   20100924
15107211552708023MR.KER SINGH & RAVINDER KAUR SOOR       FT - A/505 A-505 FIFTH  AMBIKA TOWER CHSRAJMATA JIJAMATA RD,NR.PUMP HOUSE,      229748948                               ANDHERI EAST.                   R230820107000212990007766551050200009286                                   M 0600000000000229748948   20100924
15042648952708023ADITI DEVELOPERS                        A-302 A-401 FOURTH  AMBIKA TOWER'A'WING JIJAMATA ROAD,ANDHERI EAST              229748350                               NR.PUMP HOUSE,                  R230820107000214990007766502050300011183                                   M 0600000000000229748350   20100924
15042649052708023ADITI DEVELOPERS                        A-302 A-402 FOURTH  AMBIKA TOWER'A'WING JIJAMATA ROAD,ANDHERI EAST              229748359                               NR.PUMP HOUSE,                  R230820107000321990007766508060100012278                                   M 0600000000000229748359   20100924
15078755152708023LOUELLA MENEZES                         A-403 A-403 FOURTH  AMBIKA TOWER'A'WING JIJAMATA ROAD,ANDHERI EAST              229748936                               NR.PUMP HOUSE,                  R230820107000158990007766510070100009265                                   M 0600000000000229748936   20100924
15073866352708023HUKMICHAND D. JAIN AMIT KUMAR H.JAIN    A-404 A-404 FOURTH  AMBIKA TOWER'A'WING JIJAMATA ROAD,ANDHERI EAST              229748927                               NR.PUMP HOUSE,                  R230820107000304990007537626070200005641                                   M 0600000000000229748927   20100924
15072996852708023DINESHBHAI RAVARIYA,                    A-405 A-405 FOURTH  AMBIKA TOWER CHS,   JIJAMATA ROAD,                          229748393                               NR.PUMP HOUSE, ANDHERI (E),     R230820107000194990007766511070300006389                                   M 0600000000000229748393   20100924
15090307752708023PAWANKUMAR S. SAWANT                    A-301 A-301 THIRD  AMBIKA TOWER         JIJAMATA ROAD,NR.PUMP HOUSE,            229748329                               ANDHERI (EAST),                 R230820107000290990007767565080100011722                                   M 0600000000000229748329   20100924
15042648552708023ADITI DEVELOPERS                        A-302 A-302 THIRD  AMBIKA TOWER'A'WING  JIJAMATA ROAD,ANDHERI EAST              229748313                               NR.PUMP HOUSE,                  R230820107000177990007767567080200012064                                   M 0600000000000229748313   20100924
15042648652708023ADITI DEVELOPERS                        A-302 A-303 THIRD  AMBIKA TOWER'A'WING  JIJAMATA ROAD,ANDHERI EAST              229748336                               NR.PUMP HOUSE,                  R230820107000285990007766498080300006393                                   M 0600000000000229748336   20100924
15042648752708023ADITI DEVELOPERS                        A-302 A-304 THIRD  AMBIKA TOWER'A'WING  JIJAMATA ROAD,ANDHERI EAST              229748344                               NR.PUMP HOUSE,                  R230820107000200990007767434090100003708                                   M 0600000000000229748344   20100924
15069594952708023CHANDRAKANT KANAKIA                     A-305 A-305 THIRD  AMBIKA TOWER         JIJAMATA ROAD,OPP AGHADI NGR            229748371                               NR PUMP HOUSE,ANDHERI-EAST      R230820107000193990007766500090200007581                                   M 0600000000000229748371   20100924
15127770452708023ANAND CHODANKAR                         A-201 A-201 SECOND  AMBIKA TOWER CHS LTDJIJAMATA ROAD,ANDHERI EAST              229747572                               NR.PUMP HOUSE,                  R230820107000000990007767533090300006364                                   M 0600000000000229747572   20100924
15042648052708023ADITI DEVELOPERS                        A-302 A-202 SECOND  AMBIKA TOWER'A'WING JIJAMATA ROAD,ANDHERI EAST              229747600                               NR.PUMP HOUSE,                  R230820107000428990007765680100100014088                                   M 0600000000000229747600   20100924
15071243852708023SARITA GAITONDE                         A-203 A-203 SECOND  AMBIKA TOWER        RAJMATA JIJABAI ROAD, NR.PUMP HOUSE,    229748319                               ANDHERI [E]                     R230820107000068990007767535100200002451                                   M 0600000000000229748319   20100924
15080903852708023MR.RAMCHANDRA S.& HARALE                FLAT-204 A-204 SECOND  'A'WING,  AMBIKA JIJAMATA ROAD,NR.PUMP HOUSE             229748325                               ANDHERI-EAST                    R230820107000111990007767536110100004288                                   M 0600000000000229748325   20100924
15042648352708023ADITI DEVELOPERS                        A-302 A-205 SECOND  AMBIKA TOWER'A'WING JIJAMATA ROAD,ANDHERI EAST              229747608                               NR.PUMP HOUSE,                  R230820107000241990007767564120100007582                                   M 0600000000000229747608   20100924
15042647452708023ADITI DEVELOPERS                        A-302 A-101 FIRST  AMBIKA TOWER'A'WING  JIJAMATA ROAD,ANDHERI EAST              229747544                               NR.PUMP HOUSE,                  R230820107000310990007765925130100006464                                   M 0600000000000229747544   20100924
15042647552708023ADITI DEVELOPERS                        A-302 A-102 FIRST  AMBIKA TOWER'A'WING  JIJAMATA ROAD,ANDHERI EAST              229747549                               NR.PUMP HOUSE,                  R230820107000222990007765927130200006839                                   M 0600000000000229747549   20100924
15042647652708023ADITI DEVELOPERS                        A-302 A-103 FIRST  AMBIKA TOWER'A'WING  JIJAMATA ROAD,ANDHERI EAST              229747584                               NR.PUMP HOUSE,                  R230820107000276990007945229130300000276                                   M 0600000000000229747584   20100924
15042647752708023ADITI DEVELOPERS                        A-302 A-104 FIRST  AMBIKA TOWER'A'WING  JIJAMATA ROAD,ANDHERI EAST              229747592                               NR.PUMP HOUSE,                  R230820107000090990007765948140100003636                                   M 0600000000000229747592   20100924
15042647852708023ADITI DEVELOPERS                        A-302 A-105 FIRST  AMBIKA TOWER'A'WING  JIJAMATA ROAD,ANDHERI EAST              229747561                               NR.PUMP HOUSE,                  R230820107000201990007924068140200001086                                   M 0600000000000229747561   20100924
15042646452708023ADITI DEVELOPERS                        A-302 S-A-01 GROUND  AMBIKA TOWER'A'WINGJIJAMATA ROAD,ANDHERI EAST              229746894                               NR.PUMP HOUSE,                  C230820107000000990007869806140300000015                                   M 0600000000000229746894   20100924
