10218325780620001MUKHTAR ATTARWALA                       C-3A ABC Z AGHADI NGR CHS               YARI ROAD VERSOVA ANDHERI W             231482398                               OPP KALYAN COMPLEX              C08092010500006799000429616001020001080100000                              M 0400000000000231482398   20101008                               108869900  00                                   4001178112171408102010                                                     M              38FCACD1
10218327880620001SALMA ATTARWALA                         C-2A ABC Z AGHADI NGR CHS               YARI ROAD VERSOVA ANDHERI W             231483042                               KALYAN COMPLEX                  C08092010500006999000429617801030000879200000                              M 0400000000000231483042   20101008                                88719900  00                                   4001178112171808102010                                                     M              383C1C12
10218308280620002SAYED ALI ABID ALI                      SAYEED ABBAS ALI ABID ALI COMMUNICAT    YARI RD. VERSOVA, ANDHERI (W)           231480693                               KALYAN COMPLEX, OPP. DEEPTI BLDGC08092010700004499000504029000000000481000000                              M 0400000000000231480693   20101008                                48489900  00                                   4001178112172208102010                                                     M              37E383C3
15083620780620003MRS SHABNAM DOCTOR                      A/001    G-1ABC ZOHRA AGHADI NAGAR CHS LZOHRA AGHADI                            231485671                               YARI RD ANDHERI (WEST)          C08092010600012099000491869801010000105200000                              M 0400000000000231485671G  20101008                                11789900  00                                   4001178112173208102010                                                     M              4F3B1B14
10216589680620003S SIDDI ZAFAR SHEKHANI                  104-A ZOHRA AGHADI NGR CHS              YARI ROAD VERSOVA                       231483850                                                               R08092010600033399000492021901030000051400000                              M 0400000000000231483850G  20101008            01                   8859900  00                                   4001178112174208102010   14429                                             M              6AAEAE85
15118744480620003USMAN GANI AINUL HAQ QURESHI MOHD ANAS AA-103    ZOHRA AGHADI NGR CHS LTD,      YARI RD VERSOVA, NR GULMOHAR GARDEN     231483871                               ANDHERI(WEST)                   R08092010600016699000492048402010000045300000                              M 0400000000000231483871G  20101008                                 6449900  00                                   4001178112174808102010                                                     M              478313A6
15084734280620003MR.RAMESHWAR BUDHA                      102 ABC ZOHARA AGHADI N. CHS. LTD.      YARI RD VERSOVA                         231483884                               ANDHERI W                       R08092010600009399000492013402020000066400000                              M 0400000000000231483884G  20101008                                 7299900  00                                   4001178112175308102010                                                     M              37A39387
10216584680620003ROSHAN VADHARIA                         BLDG NO A FLAT NO 1 1ST FLOOR           ZOHRA ACHADI NAGAR VERSOVA              231483863                               nr children welfare school      R08092010600012699000492011202030000087300000                              M 0400000000000231483863G  20101008                                 9459900  00                                   4001178112175708102010                                                     M              49FD6DD8
15015155780620003MRS.RUKSANA SHAIKH                      A/105    ABC ZOHRA AGHADI NAGAR CHS LTD.YARI RD VERSOVA                         231483877                               ANDHERI W                       R08092010600046399000477861703010000341600000                              M 0400000000000231483877G  20101008                                39309900  00                                   4001178112180108102010                                                     M              63D7F7F9
15016355480620003IRFAN PATEL                             A 205    ZOHRA AGHADI NAGAR CHS LTD     YARI ROAD VERSOVA ANDHERI W             231484613                                                               R08092010600026799000492009603010000191700000                              M 0400000000000231484613G  20101008                                22479900  00                                   4001178112180608102010                                                     M              5CC8C8E10
15057319580620003SALMA BANOO ANSARI                      A/204,    A B C ZOHRA AGHADI NGR CHS LTDYARI RD VERSOVA ANDHERI W               231484622                               opt childrens welfare center higR08092010600037699000492009703020000271700000                              M 0400000000000231484622G  20101008                                33649900  00                                   4001178112180908102010                                                     M              6EEA5AC11
10216592780620003M S BOMBAY BUILDERS                     07 BLDG N A ZOHRA AGHADI NGR            YARI RD VERSOVA ANDHERI                 231483895                               OPP. DCB BANK                   R08092010600027999000492004703030000224900000                              M 0400000000000231483895G  20101008                                25089900  00                                   4001178112181508102010                                                     M              587C5C512
10216592280620003M S BOMBAY BUILDERS                     06 BLDG N A ZOHRA AGHADI NGR            YARI RD VERSOVA ANDHERI                 231483906                                                               R08092010600002599000491841704010000016800000                              M 0400000000000231483906G  20101008                                 1959900  00                                   4001178112181808102010                                                     M              2B3F3F113
10217102580620003M S BOMBAY BUILDERS                     15 BLDG NO A ZOHRA AGHADI               YARI ROAD VERSOVA ANDHERI               231484644                                                               R08092010600015999000491871004020000110900000                              M 0400000000000231484644G  20101008            01                  13449900  00                                   4001178112182108102010      14                                             M              4F4B4B614
15079075380620003ARIF CHARANIA                           A/304    ZOHRA AGHADI NAGAR             YARI ROAD, VERSOVA,                     231484689                               ANDHERI WEST                    R08092010600018099000492013204030000097500000                              M 0400000000000231484689G  20101008                                11319900  00                                   4001178112182508102010                                                     M              4B9F9FB15
10216598880620003SHAIKH SULTAN                           A 302 ZOHRA AGHADI NGR YARI RD          VERSOVA ANDHERI W                       231484673                                                               R061020106000150  000589984004040000740100000New Meter                     M 0400000000000231484673K  20101008                                74069900  00                                   4001178112183008102010                                                     M              4A4E7E616
10217100280620003M S BOMBAY BUILDERS                     13 BLDG N A ZOHRA AGHADI NGR            YARI RD VERSOVA ANDHERI                 231484634                               SHALIMAR BAKERI                 R08092010600042899000492032705010000382800000                              M 0400000000000231484634G  20101008                                44399900  00                                   4001178112183708102010                                                     M              605404717
15079073280620003HUSSAIN ALI KHAMISA                     A/301    ZOHRA AGHADI NAGAR             YARI ROAD, VERSOVA,                     231484679                               ANDHERI (WEST)                  R08092010600039499000491934605020000254500000                              M 0400000000000231484679G  20101008                                29499900  00                                   4001178112184708102010                                                     M              6E1A2A318
15099949380620003MOHD ASHRAFI                            405-A,    BLDG-20,ZOHRA AGHADI NGR CHS, YARI RD,VERSOVA,                        231485625                               ANDHERI (WEST).                 R08092010700009899000511067505030000852900000                              M 0400000000000231485625   20101008                                86909900  00                                   4001178112185208102010                                                     M              391D2D319
10217107280620003M S BOMBAY BUILDERS                     19 BLDG N A ZOHRA AGHADI NGR            YARI RD VERSOVA ANDHERI                 231484705                                                               R08092010600013099000491855505040000045200000                              M 0400000000000231484705G  20101008                                 5799900  00                                   4001178112185608102010                                                     M              4B0F0F220
10217106480620003M S BOMBAY BUILDERS                     18 BLDG N A ZOHRA AGHADI NGR            YARI RD VERSOVA ANDHERI                 231484697                                                               R08092010600017599000491931505050000103900000                              M 0400000000000231484697G  20101008            01                  12259900  00                                   4001178112190008102010     125                                             M              421626321
15127317880620003KHAIRUNNISA SHAIKH                      A-402    ABC ZOHRA AGHADI NGR.CHS.LTD.  NEXT TO BUS STOP,                       231485634                               YARI RD,VERSOVA,ANDHERI (W).    R08092010600005899000491968506010000030800000                              M 0400000000000231485634G  20101008                                 3659900  00                                   4001178112212408102010                                                     M              3B4F0F622
10217103580620003M S BOMBAY BUILDERS                     12 BLDG NO A ZOHRA AGHADI NGR           YARI ROAD VERSOVA ANDHERI               231485615                               OPP CHILDREN WELFARE SCHOOL     R08092010600026099000491979606020000145600000                              M 0400000000000231485615G  20101008                                17289900  00                                   4001178112212808102010                                                     M              54A0D0823
10216570180620003M BOMBAY BUILDES                        W P ZOHRA AGHADI NAGAR                  A WING YARI RD VERSOVA ANDHERI W        231482409                                                               R08092010700011799000758765607010000848200000                              M 0400000000000231482409   20101008            01                  86009900  00                                   400117811221520810201086607860                                             M              4A8EBEA24
10216578780620004RAFIQ HAROON                            S NO 3 A ZOHRA AGHADI NGR               TIKKA CENTER YARI RD ANDHERI W          231483839                                                               C08092010700025799000758727301010006481200000                              M 0400000000000231483839   20101008                               651089900  00                                   4001178112215908102010                                                     M              56C2C2E25
10216582880620004ABDIL GHASHWALA                         ZOHARA AGHADI NAGAR                     YAARI RD VERSOVA ANDHERI E              231483086                                                               C08092010700093699000775122002010004977400000                              M 0400000000000231483086   20101008                               510749900  00                                   4001178112220208102010                                                     M              7C7868526
10216580380620004M S BOMBAY BUILDERS                     SH 12BLDG N A ZOHRA AGHADI NGR          YARI RD VERSOVA ANDHERI                 231483094                               OPP. T W C SCHOOL               C08092010600127499000491842903010000723400000                              M 0400000000000231483094G  20101008                                86059900  00                                   4001178112220608102010                                                     M              741040327
15084092780620004DR.IMTIAZALI NISARALI                   SH 5 BLDG N A ZOHRA AGHADI NGR          YARI RD VERSOVA                         231483031                               ANDHERI W                       C08092010600023299000491862403020000112600000                              M 0400000000000231483031G  20101008                                13609900  00                                   4001178112220908102010                                                     M              5A3E0E128
10215462280620004RAFAT RAFIQUE                           ZOHRA AGHADI NAGAR SHOP A A-1           YARI ROAD VERSOVA ANDHERI W             231476448                               OPP. DCB BANK                   C08092010600019399000492024603040000115400000                              M 0400000000000231476448G  20101008                                13179900  00                                   4001178112221308102010                                                     M              460222229
10216577280620004HASINABAI QURESHI                       ABC ZOHRA AGHADI NGR CHS SHOP N 9 A     WING YARI RD VERSOVA ANDHERI W          231483061                                                               C08092010600056299000491747604010000381800000                              M 0400000000000231483061G  20101008                                44089900  00                                   4001178112221608102010                                                     M              680C2C230
10216573280620004ZOHRA KHAN                              FLAT-2 BLDG-2 A WING                    AMIT NAGAR YARI RD VERSOVA              231483073                               opp nagoori diary               C08092010600048499000465004604020000358500000                              M 0400000000000231483073K  20101008                                39459900  00                                   4001178112221908102010                                                     M              65C191E31
10217159280620004YAWAR LATIF                             SH NO A 4 ABC ZOMRAAGADI NGR YARI       RD NIRMAN COTTAGE ANDHERI W M'BAI       231476483                               OPP.D.C.BANK,                   C08092010600014199000492013704030000088100000                              M 0400000000000231476483G  20101008                                10209900  00                                   4001178112222208102010                                                     M              42F6A6D32
10216574380620004MOHAMMAD WALA                           SHOP-7 ABC ZOHRA A NGR CHS LTD          YARI RD VERSOVA ANDHERI W               231483051                                                               C08092010600040899000492026405020000202700000                              M 0400000000000231483051G  20101008                                24779900  00                                   4001178112222808102010                                                     M              68ACAC833
10217651780620004TANVEER SHAIKH                          SH NO 1 ZOHRAAGHADI NGR YARI RD         VERSOVA SHALIMAR ANDHERI WEST           231476467                               OPP. DCP BANK                   C08092010600025999000492010705030000127100000                              M 0400000000000231476467G  20101008                                15349900  00                                   4001178112240808102010                                                     M              5B5F0F734
10216576280620004M S BOMBAY BUILDERS                     SH 8 BLDG N A ZOHRA AGHADI NGR          YARI RD VERSOVA ANDHERI                 231483079                                                               C08092010600009499000562745005040000918500000Capt.Ravendra Thapar          M 0400000000000231483079K  20101008                                92849900  00                                   4001178112241108102010                                                     M              307414535
10216579880620005M S BOMBAY BUILDERS                     SH 11BLDG N A ZOHRA AGHADI NGR          YARI RD VERSOVA ANDHERI                 231483105                                                               C08092010600216699000493206501010001052600000                              M 0400000000000231483105G  20101008                               128599900  00                                   4001178112241708102010                                                     M              825666736
15020681380620006MR. GOVIND PATEL                        FL # B/3    ABC ZOHRA-AGHADI NGR CHS LTDYARI RD VERSOVA                         231478276                               ANDHERI W                       R08092010600022999000491826601010000132400000                              M 0400000000000231478276G  20101008                                15819900  00                                   4001178112242208102010                                                     M              592D1D037
10215972980620006ABUBAKAR ADAM                           B-2  ABC ZOHRA AGHADI NGR CHS           LTD  YARI ROAD  VERSOVA ANDHERI W       231478267                                                               R08092010600039199000441992101020000837900000                              M 0400000000000231478267K  20101008            01                  91319900  00                                   4001178112242508102010       1                                             M              656151438
10215971780620006M S BOMBAY BUILDER                      1 BLDG NO B ZOHRA AGHADI NGR            YARI ROAD VERSOVA ANDHERI               231478241                                                               C08092010600017399000577340701030000450400000                              M 0400000000000231478241K  20101008                                46699900  00                                   4001178112242808102010                                                     M              4FCBCBE39
10215982080620006JAIB MALIK                              BLDG B 105 ZOHRA AGHADI NAGAR           YARI ROAD VERSOVA ANDHERI               231478304                                                               R08092010600032499000491934402010000189900000                              M 0400000000000231478304G  20101008                                22239900  00                                   4001178112243008102010                                                     M              6E2A3A040
10215980480620006M S BOMBAY BUILDERS                     7 BLDG NO B ZOHRA AGHADI NGR            YARI ROAD VERSOVA ANDHERI               231478282                               NR D C B BANK                   R08092010600047499000491914402020000285800000                              M 0400000000000231478282G  20101008                                32889900  00                                   4001178112243208102010                                                     M              6B6F4F441
10215978680620006M S BOMBAY BUILDER                      6 BLDG NO B AGHADI NGR                  YARI ROAD VERSOVA ANDHERI               231478252                                                               R08092010600008399000491925802030000047000000                              M 0400000000000231478252G  20101008                                 5509900  00                                   4001178112243408102010                                                     M              315555742
10215976580620006M S BOMBAY BUILDER                      5 BLDG NO B ZOHRA AGHADI NGR            YARI ROAD VERSOVA ANDHERI               231478257                                                               R08092010600015599000491925203010000088000000                              M 0400000000000231478257G  20101008                                10339900  00                                   4001178112243808102010                                                     M              40B484943
10215975480620006M S BOMBAY BUILDERS                     4 BLDG NO B ZOHRA NGR                   YARI ROAD VERSOVA ANDHERI               231478262                                                               R08092010600039999000491907103020000203900000                              M 0400000000000231478262G  20101008                                23849900  00                                   4001178112250908102010                                                     M              66E2E2C44
15078105380620006MR AHSAN ANSARI                         B-204    BLDG ZOHRA AGHADI NGR CHS LTD. OPP DEVELOPMENT CREDIT BANK             231479049                               YARI ROAD VERSOVA,ANDHERI-WEST  R08092010600010399000443372203030000179700000                              M 0400000000000231479049K  20101008                                19189900  00                                   4001178112251108102010                                                     M              470363245
10215988080620006M S BOMBAY BUILDERS                     13 BLDG ROAD VERSOVA ANDHERI                                                    231479030                                                               R08092010600013499000491901004010000096100000                              M 0400000000000231479030G  20101008                                11119900  00                                   4001178112251408102010                                                     M              4AEF1EC46
10215985280620006M RAFIA M H FAKIH                       B-203 ABC ZOHRA AGHADI NGR CHS          YARI ROAD VERSOVA ANDHERI W             231478292                               NR CHILDERN'S WELFARE CENTER    R08092010600017599000491916904020000098200000                              M 0400000000000231478292G  20101008                                11789900  00                                   4001178112251608102010                                                     M              4F8BCBA47
10215984080620006M S BOMBAY BUILDER                      10 BLDG NO B ZOHRA AGHADI NGR           YARI ROAD VERSOVA ANDHERI               231478298                                                               R08092010600018399000491934104030000124500000                              M 0400000000000231478298G  20101008                                14339900  00                                   4001178112251808102010                                                     M              4195A5B48
10218312080620006MAVJI PATEL                             1-C ZOHARA AGHADI NGR CHS               YARI RD VERSOVA ANDHERI W               231481464                               Near CW Highschool              C08092010600015499000533320105010002643400000                              M 0400000000000231481464K  20101008            01                 265919900  00                                   4001178112252308102010     269                                             M              444000649
15115617280620006NAJMA ASHRAFI                           B-201 ABC ZOHRA AGHADI  NAGAR CHS.      YARI ROAD VERSOVA                       231479013                               nr sai ganesh mandir            R08092010600022199000491933605020000149000000                              M 0400000000000231479013G  20101008                                17709900  00                                   4001178112252608102010                                                     M              59FDBDD50
15044273980620006MR.VIJAY MAHADIK MRS.PRANITA MAHADIK    B/305     ABC ZOHRA AGHADI NAGAR CHS.   YARI ROAD VERSOVA                       231479086                               VERSOVA ANDHERI W               R08092010600021799000491962605030000131200000                              M 0400000000000231479086G  20101008                                15429900  00                                   4001178112252808102010                                                     M              5BCFBFE51
10215992480620006FAREEZA MANIYAR                         B-303 ABC ZOHRA AGHADI NGR CHS          B-WING YARI RD VERSOVA ANDHERI W        231479027                               opp DCB bank                    R08092010600016899000491915105050000101100000                              M 0400000000000231479027G  20101008                                11819900  00                                   4001178112253008102010                                                     M              425616752
15030292780620006MR.AFZAL SAJAN                          B/302    ZOHRA AGHADI NGR               YARI ROAD VERSOVA                       231479039                               nr childern welfare             R08092010600037799000491911906020000231800000                              M 0400000000000231479039G  20101008            01                  28579900  00                                   4001178112253708102010    4356                                             M              622666053
10215989480620006M S BOMBAY BUILDERS                     14 BLDG NO B ZOHRA AGHADI NGR           YARI ROAD VERSOVA ANDDHERI              231479021                                                               R08092010600028099000491906306030000166500000                              M 0400000000000231479021G  20101008                                19959900  00                                   4001178112254008102010                                                     M              573303154
10216503080620006SHAHNAWAZ YUSUF PATHAN                  B 405 A B C  ZOHRA AGHADI NGR           YARI ROAD  VERSOVA ANDHERI W            231479105                               NEAR-DCB BANK                   R08092010600025499000491932906040000136300000                              M 0400000000000231479105G  20101008                                16819900  00                                   4001178112254208102010                                                     M              57E3B3C55
15055674680620006MRS RAISA BEGUM ANSARI                  B-404    ZOHRA AGHADI NGR SOCIETY       YARI ROAD VERSOVA                       231479833                               ANDHERI-WEST/nr cwc english mediR08092010600010799000491890906050000068800000                              M 0400000000000231479833G  20101008                                 8039900  00                                   4001178112254508102010                                                     M              4C38A8156
10216500280620006SAMMENA NURIE                           B-403 ABC ZOHRA AGHADI NGR CHS B        WING YARI RD VERSOVA ANDHERI W          231479070                                                               R08092010600014399000491902307010000109300000                              M 0400000000000231479070G  20101008                                14159900  00                                   4001178112254908102010                                                     M              44A090857
10215999680620006M BOMBAY BUILDDERS                      20 BLDG NO B ZOHRA AGHADI NGR           YARI ROAD VERSOVA ANDHERI               231479079                               nr shalimar bakeri              R08092010600016699000447770707020000331400000                              M 0400000000000231479079G  20101008                                35329900  00                                   4001178112255308102010                                                     M              4F5B2B758
10215998280620006ASLAM KHAN                              401-B YARI ROAD VERSOVA ANDHERI W                                               231479059                               reheja lane                     R08092010600021699000491920507030000154800000                              M 0400000000000231479059G  20101008                                18389900  00                                   4001178112255608102010                                                     M              502424059
10215970580620006M S BOMBAY BUILDERS                     W P B WING ZOHRA AGHADI NGR             YARI ROAD VERSOVA ANDHERI W             231477405                               /                               R08092010700142999000758766908010013641500000                              M 0400000000000231477405   20101008            02                1380379900  00                                   4001178112262108102010    3468    1178                                     M              777353560
10217650480620006GOVIND PATEL                            1-8 ABC ZOHRA AGHADI CHS                YARI RD VERSOVA ANDHERI W               231476475                               Near CW Highschool              C08092010600040099000478170908020000306700000                              M 0400000000000231476475G  20101008                                34689900  00                                   4001178112262408102010                                                     M              6D3969161
10215936980620007M S BOMBAY BUILDER                      3 BLDG C ZOHRA AGHADI NGR               YARI ROAD VERSOVA ANDHERI               231476492                               NEAR DCB BANK                   R08092010600038099000491874201020000219300000                              M 0400000000000231476492G  20101008                                25299900  00                                   4001178111391108102010                                                     M              665272762
10215936080620007M S BOMBAY BUILDER                      2 BLDG C ZOHRA NGAR                     YARI ROAD VERSOVA ANDHERI               231476502                                                               R08092010600028499000491866301030000114500000                              M 0400000000000231476502G  20101008                                13349900  00                                   4001178111391308102010                                                     M              5DB9A9963
10215945080620007M Z MR F F Z HAIDER                     FLAT NO 4 BLDG NO C                     ZOHRA AGHADI NAGAR YARI RD VERSOVA      231477322                               NR KALYAN COMPLEX               R08092010600016199000491876701040000094300000                              M 0400000000000231477322G  20101008                                11039900  00                                   4001178111391508102010                                                     M              422676064
10215946980620007MUNEER HAIDER                           C 105 ZOHRA AGHADI NAGAR                YARI RD VERSOVA ANDHERI W               231477313                               x                               R08092010600024399000491866202020000077400000                              M 0400000000000231477313G  20101008                                 9939900  00                                   4001178111391708102010                                                     M              52F6F6D65
10215943080620007SHAHEEN SHAIKH                          C-103  ABC ZOHRA AGHADI NAGAR           YARI ROAD  VERSOVA ANDHERI W            231477327                               NEAR CWC SCHOOL                 R08092010600031299000491895302030000221900000                              M 0400000000000231477327G  20101008                                25309900  00                                   4001178111391908102010                                                     M              6DD9F9F66
15097930580620007SHANKAR JHA                             C/102 C/102   ZOHRA AGHADI CO-OP HSG SOCANDHERI (WEST)                          231476422                               YARI RD VERSOVA,NR SHALIMAR BAKER08092010600039199000444043203010000577800000                              M 0400000000000231476422G  20101008                                62359900  00                                   4001178111393208102010                                                     M              6D2979067
10215954080620007M S BOMBAY BUILDER                      14 BLDG CC ZOHRA AGHADI NGR             YARI ROAD VERSOVA ANDHERI               231477366                                                               R08092010600027499000491924703020000194100000                              M 0400000000000231477366G  20101008                                23019900  00                                   4001178111393408102010                                                     M              5E5A5A768
10215952380620007M S BOMBAY BUILDER                      13 BLDG C ZOHRA AGHADI NGR              YARI ROAD VERSOVA ANDHERI               231477356                               cwc school                      R08092010600015299000491924903030000094800000                              M 0400000000000231477356G  20101008                                11059900  00                                   4001178111393608102010                                                     M              46F2A2D69
10215951880620007M S BOMBAY BUILDER                      12 BLDG C ZOHRA AGHADI NAGAR            YARI ROAD VERSOVA ANDHERI               231477349                                                               R08092010600005299000491925904010000026100000                              M 0400000000000231477349G  20101008                                 3049900  00                                   4001178111393908102010                                                     M              3F6B6B470
10215950280620007MRSDILSHAD RUPANI                       202 C ZOHRA AGHADI NGR                  YARI ROAD VERSOVA ANDHERI WEST          231477332                               NEAR SHALIMAR BAKREY            R08092010600034899000491978804020000253000000                              M 0400000000000231477332G  20101008                                29219900  00                                   4001178111394108102010                                                     M              622666071
10215948180620007M S BOMBAY BUILDER                      10 BLDG CCC CZOHRA AGHADI NGAR          YARI ROAD VERSOVA ANDHERI ABY           231477342                               OPP VIMLA HOSPITAL              R08092010600026999000491997404030000200000000                              M 0400000000000231477342G  20101008            01                  23769900  00                                   4001178111394608102010     231                                             M              5ECA8AE72
10215961180620007M S BOMBAY BUILDER                      18 BLDG C ZOHRA AGHADI NGR              YARI ROAD VERSOVA ANDHERI               231477398                               x                               R08092010600000099000477530205010000084700000                              M 0400000000000231477398G  20101008                                 8489900  00                                   4001178111394808102010                                                     M              114575673
10215962180620007SABIRA ISMAIL BATLIWALA                 C/305    3RD FLOOR ABC ZOHRA AGHADI NGR YARI ROAD VERSOVA ANDHERI(WEST)         231477393                               OPP VIMALA HOSPITAL             R08092010600017999000491906605020000103100000                              M 0400000000000231477393G  20101008                                12199900  00                                   4001178111395308102010                                                     M              49ADCD874
10215959180620007M S BOMBAY BUILDER                      17 BLDG C ZOHRA AGHADI NGR              YARI ROAD VERSOVA ANDHERI               231477378                               BEHIND SHALIMAR BAKERY          R08092010600024899000491877305030000196000000                              M 0400000000000231477378G  20101008                                23049900  00                                   4001178111395508102010                                                     M              512565075
10215958080620007M S BOMBAY BUILDER                      16 BLDG C ZOHRA AGHADI NGR              YARI ROAD VERSOVA ANDHERI               231498804                                                               R08092010600025799000469466506020000064700000                              M 0400000000000231498804K  20101008            01                   8879900  00                                   4001178111400008102010    5628                                             M              53C7F7E76
10215958080620007M S BOMBAY BUILDER                      16 BLDG C ZOHRA AGHADI NGR              YARI ROAD VERSOVA ANDHERI               231498803                                                               R08092010600007999000720751806020000555500000                              M 0400000000000231498803K  20101008                                56289900  00                                   4001178111400208102010                                                     M              3CB8B8977
10215955980620007M S BOMBAY BUILDER                      15 BLDG C ZOHRA AGHADI NGR              YARI ROAD VERSOVA ANDHERI               231477361                                                               R08092010600030199000491971606030000153100000                              M 0400000000000231477361G  20101008                                17919900  00                                   4001178111400508102010                                                     M              6BDFDFF78
10215969480620007M S BOMBAY BUILDER                      24 BLDG C ZOHRA AGHADI NGR              YARI ROAD VERSOVA ANDHERI               231478214                                                               R08092010600013899000491890007010000085900000                              M 0400000000000231478214G  20101008                                10079900  00                                   4001178111400708102010                                                     M              4BEFEFC79
10215966880620007M S BOMBAY BUILDER                      23 BLDG C ZOHRA AGHADI NGR              YARI ROAD VVERSOVA ANDHERI              231478228                               NEAR KALYAN COMPLEX             R08092010600017999000491908107020000095700000                              M 0400000000000231478228G  20101008                                11329900  00                                   4001178111400908102010                                                     M              4D99C9B80
10215965980620007M S BOMBAY BUILDER                      22 BLDG C ZOHRA AGHADI NGR              YARI ROAD VERSOVA ANDHERI               231478223                               BEHIND SHALIMAR BAKERY          R08092010600012599000491909408010000085700000                              M 0400000000000231478223G  20101008            02                   8709900  L4                                   4001178111402608102010    7917   87099                                     M              4F3B7B181
10215964980620007SYED H S SHAGUPTA N RIZVI               402 BLDG C ZOHRA AGHADI NAGAR           YARI RD VERSOVA ANDHERI WEST            231477387                               opt cwc school                  R08092010600017999000599053508020000772900000                              M 0400000000000231477387K  20101008                                79179900  00                                   4001178111403308102010                                                     M              45D1B1F82
10215963480620007M S BOMBAY BUILDER                      20 BLDG C ZOHRA AGHADI NGR              YARI ROAD VERSOVA ANDHERI               231477373                               opp vimla hospital              R08092010600021399000491991408030000126200000                              M 0400000000000231477373G  20101008                                14919900  00                                   4001178111403508102010                                                     M              581C6C383
15084984280620007MARIAM SURTI                            SHOP-13  ABC ZOHRA,                     ANDHERI (W)                             231476438                               AGHADI NAGAR CHS LTD,YARI RD,VERC08092010600009799000466280308040000164100000                              M 0400000000000231476438K  20101008                                18199900  00                                   4001178111403808102010                                                     M              34C0F0E84
15101795580620007GULABNATH SHARMA                        SHOP-12  SHOP-12   C WING,ZOHRA AGHADI NHSG SOC LTD,YARI RD                     231498769                               VERSOVA,ANDHERI W               C08092010700108999000789819608050001851200000                              M 0400000000000231498769   20101008                               197879900  00                                   4001178111404108102010                                                     M              7DC999E85
15000478680620007CHUNG MEI                               C/2 GR FLR    ZOHRA AGHADI NGR CHS LTD  YARI ROAD, VERSOVA, ANDHERI (W)         231497924                               BHD SHALIMAR BACKERY,           R08092010600015599000505154409010001079200000                              M 0400000000000231497924   20101008                               109519900  00                                   4001178111404308102010                                                     M              40E4A4C86
10215933680620007M S BOMBAY BUILDERS                     W P C WING AGHADI NGR                   YARI ROAD VERSOVA ANDHERI W             231476455                                                               R08092010700013399000758765409020001241600000                              M 0400000000000231476455   20101008                               125479900  00                                   4001178111404508102010                                                     M              490D0D287
10273138080620007SULEMAN SAMANI                          SHOP-C/15,GRD FLR,ZOHRA A               NGR,YARI RD,, ANDHERI WEST              231487358                               NR SHALIMAR HOTEL               C08092010600106399000771460310010006357300000                              M 0400000000000231487358   20101008            01                 648429900  00                                   4001178111405408102010   54842                                             M              756131488
15071530380620007MR MOHD SAKIR & MR MOHD ARIF AINULHAQUE SHOP    C/ 14 GRD FLR,ZOHRA AGHADI NGR CVERSOVA,ANDHERI-WEST                    231487383                               NR MARATHI SCHOOL               C08092010600011599000567514510020000617900000                              M 0400000000000231487383K  20101008                                62939900  00                                   4001178111410308102010                                                     M              4DB9D9989
10216539380620008MAKHIJA BEHARILAL                       E 2 ZOHARA AGADI NGR D&E CHS            LTD  YARI ROAD  VERSOVA ANDHERI W       231481434                                                               C08092010700033999000786362001010000464800000                              M 0400000000000231481434   20101008                                50069900  00                                   4001178111420308102010                                                     M              64E0D0C90
10216543280620008M S BOMBAY BUILDERS                     4 YARI RD BLDG NO E                     ZOHRA NAGAR VERSOVA ANDHERI             231481444                               OPP C W C SCHOOL                R08092010600042799000455949602010000556600000                              M 0400000000000231481444G  20101008                                60429900  00                                   4001178111420708102010                                                     M              665272791
10216536980620008AMIRUDDIN SHAIKH                        ZOHRA AGHADI NAGAR E-1 BLDG             YARI RD VERSOVA ANDHERI W               231480708                                                               C08092010500006199000325906702020002524700000                              M 0400000000000231480708   20101008                               253329900  00                                   4001178111421108102010                                                     M              3A6E6E492
15027047880620008IMRAN SHAIKH                            E 3 YARI ZOHRA AGADI NAGAR              VERSOVA ANDHERI WEST                    231481454                               near kalyan complex             R08092010500012799000311040902030002715900000                              M 0400000000000231481454   20101008                               272959900  00                                   4001178111421408102010                                                     M              47E3A3C93
10216553580620008MOHD E KASMANI                          YARI RD VERSOVA E11 ZOHRA GHARI NGR     2ND FL ANDHERI W                        231482328                                                               R08092010700011399000502604002040001155300000                              M 0400000000000231482328   20101008                               116699900  00                                   4001178111424208102010                                                     M              4E9A8AB94
10216549280620008M S BOMBAY BUILDERS                     8 YARI RD BLDG NO E                     ZOHARA NAGAR VERSOVA ANDHERI            231481499                                                               R08092010600017899000723058303010000890300000                              M 0400000000000231481499K  20101008                                90759900  00                                   4001178111422008102010                                                     M              480C0C295
10216545380620008ABDUL HAMEED                            E 5 YARI ZOHRA AGADI NAGAR              VERSOVA ANDHERI WEST                    231481418                                                               R08092010500015199000311027003020002255300000                              M 0400000000000231481418   20101008                               227129900  00                                   4001178111422408102010                                                     M              43C7D7E96
10216561780620008M S BOMBAY BUILDERS                     16 YARI ROAD BLDG NO E                  ZOHARA NAGAR VERSOVA ANDHERI W          231482354                                                               R08092010500018999000379083303030001904800000                              M 0400000000000231482354   20101008                               193109900  00                                   4001178111422608102010                                                     M              4FFBFBD97
10216547180620008M S BOMBAY BUILDERS                     6 YARI RD BLDG BO E                     ZOHRA NAGAR VERSOVA ANDHERI             231481472                               NR 7 BUNGLOW                    R08092010500006999000311091803040001837000000                              M 0400000000000231481472   20101008                               184439900  00                                   4001178111422908102010                                                     M              3D89B9A98
10216554980620008M S BOMBAY BUILDERS                     12 YARI ROAD BLDG NO E                  ZOHARA AAGHADI NAGAR VERSOVA ANDHERI W  231482319                               NR BIMLA HOSPITAL               R08092010600064099000739031304010001621200000                              M 0400000000000231482319K  20101008                               170529900  00                                   4001178111424708102010                                                     M              69DD9DF99
10216552380620008S JUMANI                                E-10  ZOHARA AGADI NGR D E CHS          LTD  YARI ROAD  VERSOVA ANDHERI W       231481507                                                               R08092010500016999000349885504020002649000000                              M 0400000000000231481507   20101008                               266809900  00                                   4001178111425508102010                                                     M              4521210100
15104173980620008SHABANA KHATOON AHMED                   E-15    ZOHARA AGADI NAGAR  E CHS LTD.  YARI ROAD                               231482362                               VERSOVA ANDHERI (WEST)          R08092010600015599000709829604030000783300000                              M 0400000000000231482362K  20101008                                79929900  00                                   4001178111425708102010                                                     M              4165354101
10216557780620008M BOMBAY BUILERS                        14 YARI ROAD BLDG NO E                  ZOHARA NAGAR VARSOVA ANHDERI            231482332                                                               R08092010500022299000311093905010002741400000                              M 0400000000000231482332   20101008                               276469900  00                                   4001178111430008102010                                                     M              548080A102
10216551380620008S INAMDAR                               FLAT NO 1    E BLDG 2ND FLOOR ZOHRA ABHAYARI RD VERSOVA ANDHERI W               231481481                               NEAR CHILDRAN WELFARI SCHOOL    R08092010500037599000311058805020001240800000                              M 0400000000000231481481   20101008                               129179900  00                                   4001178111430708102010                                                     M              6CB8F89103
10216547980620008M S BOMBAY BUILDERS                     7 YARI RD BLDG NO E                     ZOHRA NAGAR VERSOVA ANDHERI             231481488                               Near kalyan complex             R08092010500023599000311040005030001931900000                              M 0400000000000231481488   20101008                               195559900  00                                   4001178111430908102010                                                     M              5246366104
10216555380620008M S BOMBAY BUILDERS                     13 YARI RD BLG NO E                     ZOHARA NAGAR VERSOVA ANDHERI            231482315                               NEAR CWC SCHOOL                 R08092010500011699000311097206010002821900000                              M 0400000000000231482315   20101008            01                 283549900  00                                   4001178111431608102010   25354                                             M              4E0A2A2105
10216568180620008M S BOMBAY BUILDERS                     20 YARI RD BLDG NO E                    ZOHARA NAGAR VARSOVA ANDHERI            231482389                               near shalimar bakery            R08092010500017199000311274806020002481000000                              M 0400000000000231482389   20101008                               249929900  00                                   4001178111431908102010                                                     M              4AFE8ED106
15112998480620008MRS.NOSRAT GHAZNAVI                     E-17    ZOHRA AGADI NAGAR 'E' WING CHS LYARI ROAD VERSOVA                       231482378                               ANDHERI (WEST)                  R08092010500019999000311099106030001555500000                              M 0400000000000231482378   20101008            01                 158019900  00                                   4001178111432308102010     151                                             M              490D5D2107
10216564880620008MANAB SARKAR                            E 18 ZOHRA AGADI NAGAR CHS LTD          YARI ROAD  VERSOVA ANDHERI W            231482339                                                               R08092010500008599000311085707010001967000000                              M 0400000000000231482339   20101008                               197889900  00                                   4001178111432908102010                                                     M              3C78785108
10216566280620008M S BOMBAY BUILDERS                     19 YARI RD BLDG NO E                    ZOHARA NAGAR VARSOVA ANDDHERI           231483020                                                               R08092010500000899000394325607020001548200000                              M 0400000000000231483020   20101008                               154839900  00                                   4001178111433208102010                                                     M              27C3C3E109
10219386980620008AMIRUDAI SHAIK                          01 ZOHRA NAGAR E BLD NO 1               VIMALA HOSPITAL YARI RD ANDHERI W       231476418                                                               C08092010500000099000311098107030000440900000                              M 0400000000000231476418   20101008                                44199900  00                                   4001178111433508102010                                                     M              1C48486110
10216535580620008M S BOMBAY BUILDERS                     W P E WING AGHADI NGR                   YARI RD VERSOVA ANDHERI W               231480661                                                               R08092010700097099000758760008010008102500000                              M 0400000000000231480661   20101008                               821879900  00                                   4001178111434308102010                                                     M              7400002111
10216512480620009KHAIRUNISHA SHAIKH                      D-6 ZOHRA AGADI NGR D & E CHS           LTD  YARI ROAD  VERSOVA ANDHERI W       231479870                                                               R08092010500015599000305031601010002368500000                              M 0400000000000231479870   20101008            02                 238449900  00                                   4001178112150208102010    2344  223844                                     M              49FDDDD112
10216507580620009ZAINAB MOHD U SINDHI                    2 BLDG NO D ZOHRA AGHADI NGR            YARI ROAD VERSOVA ANDHERI WEST          231479092                               OPP. D C B BANK                 R08092010600044499000491981202010000286900000                              M 0400000000000231479092G  20101008                                34389900  00                                   4001178112150708102010                                                     M              6CD888F113
10216505980620009MASTER S SHETTY D S SHETTY              D-1 ZOHARA AGADI NAGAR D E CHS          YARI ROAD VERSOVA                       231479823                                                               R08092010600021299000492000802020000116200000                              M 0400000000000231479823G  20101008                                13919900  00                                   4001178112151008102010                                                     M              5430001114
10216504880620009M S BOMBAY BUILDERS                     W P ZOHRA AGHADI NGR D WING YARI RD     VERSOVA ANDHERI W                       231479814                                                               R08092010600064799000491981902030000412500000                              M 0400000000000231479814G  20101008                                49099900  00                                   4001178112151208102010                                                     M              64F0C0D115
10216508580620009M S BOMBAY BUILDERS                     3 BUILDING NO D ZOHRA AGHADI NGR        YARI RD VERSOVA ANDHERI                 231479876                                                               R08092010600018699000491981002040000137100000                              M 0400000000000231479876G  20101008                                15549900  00                                   4001178112151408102010                                                     M              4B4F7F6116
10216509880620009M S BOMBAY BUILDERS                     4 BUILDING NO D ZOHRA AGHADI NGR        YARI RD VERSOVA ANDHERI                 231479854                                                               R08092010600008299000491966203010000094600000                              M 0400000000000231479854G  20101008                                10749900  00                                   4001178112151708102010                                                     M              3B3F0F1117
10216513880620009M S BOMBAY BUILDERS                     7 BUILDING NO D ZOHA AGHADI NGR         YARI RD VERSOVA ANDHERI                 231479844                                                               R08092010600012099000491874603020000123500000                              M 0400000000000231479844G  20101008                                14129900  00                                   4001178112152008102010                                                     M              46E2D2C118
10216515680620009M S BOMBAY BUILDERS                     8 BUILDING NO D ZOHRA AGHADI NGR        YARI LRD VERSOVA ANDHERI                231479880                               .                               R08092010600023899000491973503030000145700000                              M 0400000000000231479880G  20101008                                16509900  00                                   4001178112152208102010                                                     M              5EAA9A8119
10216510980620009M S BOMBAY BUILDERS                     5 BUILDING NO D ZOHRA AGHADI NGR        YARI RD VEEEERSOVA ANDHERI              231479862                               NEAR ZOHRA AGHADI LANE/SHALIMAR R08092010600000011000454286003040000204500000                              M 0400000000000231479862G  20101008                                20469900  00                                   4001178112152508102010                                                     M              15E181C120
10216519780620009ROSHAN SAIRU SHAIKH                     10-D ZOHRA AGHADI NAGAR                 YARI ROAD VERSOVA ANDHERI W             231479895                                                               R08092010600029599000491981604010000179000000                              M 0400000000000231479895G  20101008                                21069900  00                                   4001178112152708102010                                                     M              5286B6A121
10216522580620009M S BOMBAY BUILDERS                     12 BLDG NO D ZOHRA AGHADI NGR YARI      RD VERSOVA ANDHERI                      231479902                                                               R08092010600003999000491969804020000025300000                              M 0400000000000231479902G  20101008                                 3009900  00                                   4001178112153008102010                                                     M              3E7A7A5122
10216517280620009KULSUM DHANANI                          D-9  ZOHRA AGHADI NGR CHS               YARI RD  VERSOVA ANDHERI W              231479889                                                               R08092010600034499000491922804040000230200000                              M 0400000000000231479889G  20101008            01                  26869900  00                                   4001178112153708102010   13194                                             M              6E5A5A7123
25000342580620009RELIANCE COMMUNICATIONS LTD             FORTUNE 2000 BLDG 2ND FLOOR             C-3 'G' BLOCK BANDRA KURLA COMPLEX      231499532                               BANDRA (E)                      C08092010600002499000712751004050000077000000                              M 0400000000000231499532K  20101008            01                   7929900  00                                   4001178112154708102010    2792                                             M              290D4D2124
10216521280620009SAYYED SAIDABANU                        11 BUILDING NO D ZOHRA AGHADI NGR       YARI RD VEERSOVA ANDHERI                231479899                               ANDHERI W OPP DCB Bank /Nr ShaliR08092010600014099000479593204060000162400000                              M 0400000000000231479899G  20101008            03                  17639900  00                                   4001178112160108102010      48    8441                                     M              4743D36125
15098065780620009IMRAN SHAIKH                            13 13   BLDG.D,ZOHRA AGHADI NGR,YARI RD,ANDHERI (W)                             231476430                               BHD. SHALIMAR BEKARY,           R08092010600034999000444043405010000801000000                              M 0400000000000231476430G  20101008                                84419900  00                                   4001178112160708102010                                                     M              6E4A7A6126
10216526880620009M S BOMBAY BUILDERS                     15 BUILDING NO D ZOHRA AGHADI NAGA      YARI RD VERSOVA ANDHERI                 231480618                                                               R08092010600041699000491970205020000287500000                              M 0400000000000231480618G  20101008                                34029900  00                                   4001178112161008102010                                                     M              6BAF9F8127
15098348780620009MRS SAEEDABANO SHAIKH                   FLAT-14,    BLDG NO D, ZOHRA AGHADI NGR,YARI RD, VERSOVA,                       231480628                               ANDHERI WEST.                   R08092010600017399000746501105030000536100000                              M 0400000000000231480628K  20101008                                55459900  00                                   4001178112161208102010                                                     M              4266364128
15121903980620009MR. MITHLESH KUMAR CHOUKSEY             FLAT 16/D    ZOHRA AGHADI NAGAR,        YARI ROAD,  VERSOVA ,                   231480638                               OPP. CWC SCHOOL, ANDHERI (WEST),R08092010600003899000491981805040000060000000                              M 0400000000000231480638G  20101008                                 6849900  00                                   4001178112161408102010                                                     M              3D09792129
10216529580620009M S OMAY BUILDERS                       17 BUILDING NO D ZOHRA AGHADI NGR       YARI RD VERSOVSA ANDHERI                231480612                                                               R08092010600011799000492002606010000068200000                              M 0400000000000231480612G  20101008                                 7939900  00                                   4001178112161708102010                                                     M              487C4C5130
10216530480620009M S BOMBAY BUILDERS                     18 BBBUILDING NO D ZOHRA AGHADI NGR     YARI RD VERSOVA ANDHEERI                231480646                                                               R08092010600017499000491971306020000103600000                              M 0400000000000231480646G  20101008                                12189900  00                                   4001178112161908102010                                                     M              4135151131
86216533980620009M S BOMBAY BBBUILDERS                   20 BBUILDING NO D ZOHRA AGHADI NGR      YARI RD VERSOVA ANDHRERI                231480697                                                               R08092010600020799000491895706030000125700000                              M 0400000000000231480697G  20101008                                14679900  00                                   4001178112162108102010                                                     M              56E2C2C132
10216532080620009M S BOMBAY BUILDERS                     19 BBUILDING NO D ZOHRA AGHADI NGR      YARI RD VERSOVA ANDHERI                 231480653                                                               R08092010600018599000491980506040000181500000                              M 0400000000000231480653G  20101008                                22179900  00                                   4001178112162308102010                                                     M              4C98A8B133
10217119080620010ABBAS H MOHAMED                         ZOHRA AGHADI NAGAR G BLDG F 4           YARI RD VERSOVA W                       231486621                                                               R08092010600025699000491971101010000122300000                              M 0400000000000231486621G  20101008                                14419900  00                                   4001178111445708102010                                                     M              5460704134
10217117880620010M A RAUF SHAIKH                         03 ZOHRA AGHADI NAGAR G BLDG            YARI ROAD VERSOVA ANDHERI WEST          231485708                               bimla hospital                  R08092010600020799000565031801020001358900000                              M 0400000000000231485708K  20101008                               137099900  00                                   4001178111450008102010                                                     M              5175055135
10217116480620010FIROZ MOD SHARIF KHAN                   FLT NO 2 ZOHRA AGHADI NAGAR             G-BLDG GROUND FLR YARI ROAD VERSOVA     231485651                                                               C08092010600015299000491356001030000104200000                              M 0400000000000231485651G  20101008                                12309900  00                                   4001178111450208102010                                                     M              4A5E7E7136
10217114680620010M S BOMBAY BUILDERS                     01 ZOHRA AGHADI NGR G BLDG              YARI RD VERSOVA ANDHERI  W              231485661                                                               C08092010600011699000681464201040000488600000                              M 0400000000000231485661K  20101008                                50109900  00                                   4001178111450908102010                                                     M              4BAFAF8137
10217124780620010M S BOMBAY BUILDERS                     08 ZOHRA AGHADI NGR G BLDG              YARI RD VERSOVA ANDHERI  W              231486672                                                               R08092010600001299000491340302010000003200000                              M 0400000000000231486672G  20101008                                  339900  00                                   4001178111451208102010                                                     M              28BCBC9138
10217123580620010M S BOMBAY BUILDERS                     07 ZOHRA AGHADI NGR G BLDG              YARI RD VERSOVA ANDHERI  W              231486630                               OPP. CWC SCHOOL                 R08092010600033799000491362802020000220400000                              M 0400000000000231486630G  20101008                                26189900  00                                   4001178111451808102010                                                     M              6EDAFAF139
10217121680620010M S BOMBAY BUILDERS                     06 ZOHRA AGHADI NGR G BLDG              YARI RD VERSOVA ANDHERI  W              231486650                                                               R08092010600020799000713971302030000902400000                              M 0400000000000231486650K  20101008                                91149900  00                                   4001178111452608102010                                                     M              5CB8B89140
10217120680620010M S BOMBAY BUILDERS                     05 ZOHRA AGHADI NGR G BLDG              YARI RD VERSOVA ANDHERI  W              231486643                                                               R08092010600028699000491991202040000179300000                              M 0400000000000231486643G  20101008                                21239900  00                                   4001178111452908102010                                                     M              5D09092141
10217129980620010MEHRUNISSA JUSAB                        G-12 ZOHRA AGHADI  NGR NO 2             F G  BLDG YARI RD ANDHERI W             231486657                                                               R08092010600023099000491364303010000135700000                              M 0400000000000231486657G  20101008                                15999900  00                                   4001178111453108102010                                                     M              5460604142
10217127380620010M AYUB                                  10 ZOHRA AGHADI NGR G BLDG              YARI RD VERSOVA ANDHERI W               231486666                                                               R08092010600019999000491987103020000114100000                              M 0400000000000231486666G  20101008                                13539900  00                                   4001178111453308102010                                                     M              4054447143
10217128780620010M S BOMBAY BUILDERS                     11 ZOHRA AGHADI NGR G BLDG              YARI RD VERSOVA ANDHERI  W              231486691                                                               R08092010600026599000491363603030000144800000                              M 0400000000000231486691G  20101008            01                  17309900  00                                   4001178111453808102010    1130                                             M              5440706144
10217125980620010M S BOMBAY BUILDERS                     09 ZOHRA AGHADI NGR G BLDG              YARI RD VERSOVA ANDHERI  W              231486683                                                               R08092010600012299000491988503040000079400000                              M 0400000000000231486683G  20101008                                 9289900  00                                   4001178111454008102010                                                     M              4DA9A98145
10217135080620010ALLAUDDIN F SHAIKH                      16 ZOHRA AGHADI NGR G BLDG              YARI RD VERSOVA ANDHERI  W              231487321                                                               R08092010600013599000538395404010000478200000                              M 0400000000000231487321K  20101008                                49229900  00                                   4001178111454408102010                                                     M              4AEEEEC146
10217134380620010MOHD KHAN                               G-15  ZORA AGHADI NGR NO 2 CHS          LTD  YARI RD  VERSOVA ANDHERI  W        231487329                               near cwc school                 R08092010600024699000665706204020001108000000                              M 0400000000000231487329K  20101008                               113239900  00                                   4001178111454808102010                                                     M              5054147147
10217132680620010ALICE FERNANDES                         14 ZOHRA    AGHADI NGR NO 2 CHS L G BLDGFLR YARI RD VERSOVA ANDHERI W           231486701                               OPP VIMLA HOSPITAL              R08092010600042399000491351004030000205400000                              M 0400000000000231486701G  20101008                                24169900  00                                   4001178111455008102010                                                     M              699DDDB148
10217131380620010M S BOMBAY BUILDERS                     13 ZOHRA AGHADI NGR G BLDG              YARI RD VERSOVA ANDHERI  W              231487312                                                               R08092010600014999000491963904040000101400000                              M 0400000000000231487312G  20101008                                11159900  00                                   4001178111455408102010                                                     M              4B9F9FB149
10217141180620010A N SHAIKH                              G-20 ZOHRA AGHADI NGR YARI RD           VERSOVA ANDHERI W                       231487348                                                               R08092010600026799000491968905010000169200000                              M 0400000000000231487348G  20101008                                20499900  00                                   4001178111455708102010                                                     M              5E8B6AA150
10217139980620010M S BOMBAY BUILDERS                     19 ZOHRA AGHADI NGR G BLDG              YARI RD VERSOVA ANDHERI  W              231487371                               OPP CWC SCHOOL                  R08092010600022299000465527605020000218300000                              M 0400000000000231487371K  20101008                                24589900  00                                   4001178111460008102010                                                     M              5F6B4B4151
10217138780620010M S BOMBAY BUILDERS                     18 ZOHRA AGHADI NGR G BLDG              YARI RD VERSOVA ANDHERI  W              231487339                                                               R08092010600014099000491988206010000149400000                              M 0400000000000231487339G  20101008                                17129900  00                                   4001178111460208102010                                                     M              4D8989A152
15121563380620010HYDER SAYEDALI                          G-17 G-17   ZOHRA AGHADI NAGAR,YARI RD  ANDHERI W                               231499515                               NR CWC HIGH SCHOOL              R08092010600024699000494374506020000181500000                              M 0400000000000231499515G  20101008                                21979900  00                                   4001178111460508102010                                                     M              5B1F2F3153
10217142680620010M S BOMBAY BUILDERS                     W P G WING YARI RD ZOHRA AGHADE NGR     VERSOVA ANDHERI W                       231488023                                                               R08092010700057999000758759807010003526700000                              M 0400000000000231488023   20101008                               357889900  00                                   4001178111460908102010                                                     M              6450607154
10217149680620011ASHRAFBANU SANDERWALE                   04 ZOHRA AGHADI NAGAR F BLDG            YARI ROAD  VERSOVA ANDHERI W            231487395                                                               C08092010600034499000491895901010000162700000                              M 0400000000000231487395G  20101008                                19959900  00                                   4001178111463708102010                                                     M              60E4C4C155
10217147780620011M S BOMBAY BUILDERS                     03 ZOHRA AGHADI NGR F BLDG              YARI RD VERSOVA ANDHERI  W              231487400                                                               R08092010600010499000491814901020000070700000                              M 0400000000000231487400G  20101008                                 8339900  00                                   4001178111463908102010                                                     M              4B4F4F6156
10217154880620011M S BOMBAY BUILDERS                     08 ZOHRA AGHADI NGR F BLDG              YARI RD VERSOVA ANDHERI  W              231488059                                                               R08092010600015499000468744601030000066200000                              M 0400000000000231488059K  20101008                                 8339900  00  011                              4001178111464008102010                                                     M              4034041157
10217154880620011M S BOMBAY BUILDERS                     08 ZOHRA AGHADI NGR F BLDG              YARI RD VERSOVA ANDHERI  W              231488058                                                               R08092010600015599000694732202030000636300000                              M 0400000000000231488058K  20101008            01                  651499009900                                   4001178111471308102010     813                                             M              4753637158
10217146780620011MOHD MUJEEBULLAH                        F-2 ZOHRA AGADI NAGAR NO 2 CHS          LTD  YARI RD VERSOVA ANDHERI  W         231487386                                                               R08092010600019399000491909502010000120600000                              M 0400000000000231487386G  20101008                                14269900  00                                   4001178111472108102010                                                     M              480C3C2159
10217144780620011M S BOMBAY BUILDERS                     01 ZOHRA AGHADI NGR F BLDG              YARI RD VERSOVA ANDHERI  W              231488013                                                               R08092010600004799000491910402020000141500000                              M 0400000000000231488013G  20101008                                15299900  00                                   4001178111472608102010                                                     M              3BCFCFE160
10217153380620011M S BOMBAY BUILDERS                     07 ZOHRA AGHADI NGR F BLDG              YARI RD VERSOVA ANDHERI  W              231488050                                                               R08092010600040499000685781002040001775800000                              M 0400000000000231488050K  20101008                               182669900  00                                   4001178111473208102010                                                     M              6F7B7B5161
10217152980620011M S BOMBAY BUILDERS                     06 ZOHRA AGHADI NGR F BLDG              YARI RD VERSOVA ANDHERI  W              231488071                               NEAR KD STORE                   R08092010600017899000491193703010000109100000                              M 0400000000000231488071G  20101008                                13609900  00                                   4001178111474208102010                                                     M              4A9EBEB162
10217151280620011M S BOMBAY BUILDERS                     05 ZOHRA AGHADI NGR F BLDG              YARI RD VERSOVA ANDHERI  W              231488032                                                               R08092010600022599000491347903020000132400000                              M 0400000000000231488032G  20101008                                15769900  00                                   4001178111474508102010                                                     M              5C18183163
10217159080620011KHADERPASHA SANDERWALE                  12 ZOHRA AGHADI NGR  F BLDG             YARI ROAD  VERSOVA ANDHERI W            231488087                                                               R08092010600018899000536584103030000858900000                              M 0400000000000231488087K  20101008                                87849900  00                                   4001178111474908102010                                                     M              4044646164
10217157980620011MOHD K SANDERWALE                       11 ZOHRA AGHADI NGR F BLDG              YARI RD VERSOVA ANDHERI  W              231488097                                                               R08092010600003699000491990703040000028000000                              M 0400000000000231488097G  20101008                                 3209900  00                                   4001178111475208102010                                                     M              38ACAC8165
15012680280620011NANDA ARIFf                             10    F-BLDG, ZOHRA AGHADI NGR NO.2 CHS YARI RD VERSOVA ANDHERI  W              231488826                                                               R08092010600000799000491350804010000006600000                              M 0400000000000231488826G  20101008                                  729900  00                                   4001178111475808102010                                                     M              2B0F0F2166
10217156080620011M S BOMBAY BUILDERS                     09 ZOHRA AGHADI NGR F BLDG              YARI RD VERSOVA ANDHERI  W              231488041                                                               R08092010600032199000491976704020000186700000                              M 0400000000000231488041G  20101008                                21959900  00                                   4001178111480108102010                                                     M              6D29290167
10217165480620011ANANT MIRASHI                           F 16 ZOHRA AGHADI NGR NO 2              YARI ROAD  VERSOVA ANDHERI  W           231488843                               NEAR cwc shhool                 R08092010600025799000549474304030001137000000                              M 0400000000000231488843K  20101008                               117009900  00                                   4001178111480608102010                                                     M              5B3F6F1168
10217163080620011M S BOMBAY BUILDERS                     15 ZOHRA AGHADI NGR F BLDG              YARI RD VERSOVA ANDHERI  W              231488872                                                               R08092010600039299000491966604040000221000000                              M 0400000000000231488872G  20101008                                26329900  00                                   4001178111480808102010                                                     M              6E5A5A7169
15111887080620011MRS RUKAIYA KHATRI                      FLAT-14,    ZOHRA AGHADI NAGAR CHS. LTD.VERSOVA,                                231488817                               ANDHERI (WEST),                 R08092010600021399000491910705010000119900000                              M 0400000000000231488817G  20101008                                14159900  00                                   4001178111481208102010                                                     M              5F8BBBA170
15101793480620011MRS.ROSHAN BATKI                        FLAT-13 ZOHRA AGHADI NAGAR 2            BLD N0. F/ G  VERSOVA.                  231488107                               YARI RD ANDHERI W               R08092010600018899000491355505020000099100000                              M 0400000000000231488107G  20101008                                11829900  00                                   4001178111481408102010                                                     M              40B4949171
10217170380620011M S BOMBAY BUILDERS                     20 ZOHRA AGHADI NGR F BLDG              YARI RD VERSOVA ANDHERI  W              231488887                                                               R08092010600009099000491338305030000061300000                              M 0400000000000231488887G  20101008            01                   6579900  00                                   4001178111482008102010     651                                             M              32D6E6F172
10217168880620011M S BOMBAY BUILDERS                     19 ZOHRA AGHADI NGR F BLDG              YARI RD VERSOVA ANDHERI  W              231488866                               OPP DCB BANK                    R08092010600052999000491363905040000311100000                              M 0400000000000231488866G  20101008                                36619900  00                                   4001178111482608102010                                                     M              689CBCB173
15050182280620011MR.MOHAMMED H. SHAIKH MRS.YASMEEN H.SHAIFLA NO.18, ZOHRA AGHADI NGR F BLDG      YARI RD VERSOVA ANDHERI  W              231488880                                                               R08092010600017799000709300706010000911500000                              M 0400000000000231488880K  20101008                                92929900  00                                   4001178111482908102010                                                     M              4B1F5F3174
10217166780620011SAMPATH IYENGAR                         FLAT NO 17 ZORA AGHUDI NGR F G BLDG     YARI RD VERSOVA ANDHERI W               231488857                                                               R08092010600025799000491949906020000147500000                              M 0400000000000231488857G  20101008                                17299900  00                                   4001178111483308102010                                                     M              5C08382175
10217112980620011M S BOMBAY BUILDERS                     W P F WING YARI RD ZOHRA AGHADE NGR     ANDHERI W                               231485643                                                               R08092010700021399000758762707010003031500000                              M 0400000000000231485643   20101008                               305859900  00                                   4001178111483908102010                                                     M              5D8999A176
10218385780620012M S BOMBAY BUILDERS                     1 BLDG H JOHRA AGHADI NGR YARI RD       VERSOVA RD VERSOVA ANDHERI W            231497175                                                               R08092010600020199000491951601010000112000000                              M 0400000000000231497175G  20101008                                13199900  00                                   4001178112481108102010                                                     M              5420000177
10218390580620012ASIF ALI                                4 BLDG H JOHARA AGHADI NAGAR            YARI ROAD VERSOVA ANDHERI W             231497916                                                               C08092010600013399000491938201020000153100000                              M 0400000000000231497916G  20101008                                17689900  00                                   4001178112481308102010                                                     M              4CD8C8F178
10218389080620012M S BOMBAY BUILDERS                     3 BLDG H JOHRA AGHADI NGR YARI RD       VERSOVA RD VERSOVA ANDHERI W            231497163                                                               C08092010600044999000491952301030000347300000                              M 0400000000000231497163G  20101008                                40309900  00                                   4001178112482608102010                                                     M              64D0F0F179
10218387680620012M S BOMBAY BUILDERS                     2 BLDG H JOHRA AGHADI NGR YARI RD       VERSOVA RD VERSOVA ANDHERI W            231497185                                                               R08092010700046399000510823201040002208200000                              M 0400000000000231497185   20101008            01                 226429900  00                                   4001178112484808102010    2264                                             M              6BFFDFD180
15108598180620012TASNEEM SUBEDAR                         7    APNA JAHAN CHS LTD.ZOHRA AGHADI NGROPP C.W.C.SCHOOL                        231497937                               YARI ROAD VERSOVA ANDHERI (WEST)R08092010600024899000491951202010000136600000                              M 0400000000000231497937G  20101008                                16769900  00                                   4001178112485108102010                                                     M              5602722181
15055423680620012MRS MUMTAZ MERCHANT                     H/6    APNAJAHAN CHS LTD,YARI ROAD      ZOHRA AGHADI NAGAR,VERSOVA,ANDHERI-WEST 231497944                               NR. CHILDREN WELFARE COLLEGE    R08092010600030199000491930502020000157500000                              M 0400000000000231497944G  20101008                                19549900  00                                   4001178112485408102010                                                     M              64C040E182
10218396880620012M S BOMBAY BUILDERS                     8 BLDG H JOHRA AGHADI NGR YARI RD       VERSOVA RD VERSOVA ANDHERI W            231497955                                                               R08092010600016799000491959302030000167200000                              M 0400000000000231497955G  20101008                                19539900  00                                   4001178112485808102010                                                     M              48FCDCD183
10218392080620012M S BOMBAY BUILDERS                     5 BLDG H JOHRA AGHADI NGR YARI RD       VERSOVA RD VERSOVA ANDHERI W            231497209                                                               R08092010600021299000482891402040000062000000                              M 0400000000000231497209G  20101008                                 8219900  00                                   4001178112490508102010                                                     M              53F7D7D184
15055543080620012MISS KISHWAR MIRZA                      H-10    APNA JAHAN CHS LTD,YARI ROAD    VERSOVA,ANDHERI-WEST                    231497999                               .                               R08092010600022199000491938403010000141900000                              M 0400000000000231497999G  20101008                                16719900  00                                   4001178112490708102010                                                     M              5BEFDFC185
10218398880620012LATA SINGH                              H-9 APNA JAHAN SOC YARI RD VERSOVA      RD VERSOVA ANDHERI W                    231497981                                                               R08092010600022199000532315303020001410600000                              M 0400000000000231497981K  20101008                               143519900  00                                   4001178112491008102010                                                     M              55E1E1C186
10218808680620012MOHD KHAN                               16 H BLDG 3RD FLR                       ZOHRA AGHADI NGR YARI RD VERSOVA        231498009                               NEAR DCB BANK                   R08092010600014099000491960803030000039000000                              M 0400000000000231498009G  20101008                                 5269900  00                                   4001178112491308102010                                                     M              4A2E2E0187
10218804080620012ANIL KHOPKAR                            H-13 JOHRA AGHADI NAGAR                 YARI ROAD VERSOVA ANDHERI W             231498718                                                               R08092010600026699000491950103040000128100000                              M 0400000000000231498718G  20101008                                15149900  00                                   4001178112491508102010                                                     M              5F4B5B6188
10218805880620012M S BOMBAY BUILDERS                     14 BLDG H JOHRA AGHADI NGR YARI RD      VERSOVA RD VERSOVA ANDHERI W            231498744                                                               R08092010600015699000491954204010000089100000                              M 0400000000000231498744G  20101008                                10289900  00                                   4001178112491708102010                                                     M              47E3C3C189
10218807080620012M S BOMBAY BUILDERS                     15 BLDG H JOHRA AGHADI NGR              YARI RD VERSOVA RD VERSOVA              231498724                                                               R08092010600025199000491945904020000156400000                              M 0400000000000231498724G  20101008                                19129900  00                                   4001178112491908102010                                                     M              5226160190
10218802280620012M S BOMBAY BUILDERS                     12 BLDG H JOHRA AGHADI NGR YARI RD      VERSOVA RD VERSOVA ANDHERI W            231497970                                                               R08092010600042299000491952004030000193500000                              M 0400000000000231497970G  20101008                                23419900  00                                   4001178112492108102010                                                     M              6632121191
15033276580620012TAIYAB KASMANI                          H/11    APNA JAHAN CHS LTD,ZOHRA AGHADI YARI ROAD,ANDHERI-WEST                  231497992                                                               R08092010600007099000491952104040000048000000                              M 0400000000000231497992G  20101008            01                   5659900  00                                   4001178112492408102010     565                                             M              3B6F5F4192
10218814880620012MEHBOOB KHAN                            20 BLDG H ZOHRA AGHADI NGR YARI RD      VERSOVA RD VERSOVA ANDHERI W            231498761                               NEAR CWC SCHOOL                 R08092010600019399000491951504050000138200000                              M 0400000000000231498761G  20101008                                15859900  00                                   4001178112492708102010                                                     M              4C48186193
10218810180620012M BOMBAY BUILD                          17 BLDG H JOHRA AGHADI NGR YARI RD      VERSOVA RD VERSOVA ANDHERI W            231498733                               Near Shalimar Bakery            R08092010600005699000491953005010000037200000                              M 0400000000000231498733G  20101008                                 4399900  00                                   4001178112493008102010                                                     M              36C2A2E194
10218812480620012RUKHSANA DURRANI                        H NO 18 BLDG H JOHRA AGADI NGR          YARI RD VERSOVA ANDHERI WEST            231498780                                                               R08092010600009199000465103705020000096500000                              M 0400000000000231498780K  20101008                                10819900  00                                   4001178112493208102010                                                     M              39CDFDE195
10218813380620012M S BOMBAY BUILDERS                     19 BLDG H JOHRA AGHADI NGR YARI RD      VERSOVA RD VERSOVA ANDHERI W            231498753                                                               R08092010600023399000491938605030000153100000                              M 0400000000000231498753G  20101008                                18319900  00                                   4001178112493508102010                                                     M              57F3D3D196
10217692480620013ZAIBUNNISA K CHOGLE                     4 BLDG NO    I APNA JAHAN CHS LTD ZOHRA NGR YARI RD VERSOV ANDHERI W            231488899                                                               R08092010600001699000550507501010000119800000                              M 0400000000000231488899K  20101008                                12089900  00                                   4001178112462408102010                                                     M              2B8FAFA197
10217690880620013M S BOMBAY BUILDERS                     3 BLDG NO I JOHRA AGHADI NG             VERSOVA YARI RD ANDHERI W               231488909                                                               R08092010600028799000491344101020000151500000                              M 0400000000000231488909G  20101008                                17959900  00                                   4001178112462808102010                                                     M              5FABAB8198
10217688980620013M S BOMBAY BUILDERS                     2 BLDG NO I JOHRA AGHADI NG             VERSOVA YARI RD ANDHERI W               231489769                                                               R08092010600008499000669339501030000952000000                              M 0400000000000231489769K  20101008                                96179900  00                                   4001178112463008102010                                                     M              31E5D5C199
15022551780620013NABIULLAH QURESHI                       I WING/1    APNA JAHAN CHS LTD., GR FLR ZOHRA  AGHADI NGR, YARI RD,             231489757                               VERSOVA, ANDHERI (W),NR KALYAN CR08092010600026999000491969101040000130100000                              M 0400000000000231489757G  20101008                                15809900  00                                   4001178112463208102010                                                     M              5276165200
