10218316080320001LALITA JUWARKAR                         A 1 BANK OF INDIA STAFF                 TARA CHS LTD YARI ROAD ANDHERI W        231443894                                                               R08092010600021199000824204601010002429200000                              M 0400000000000231443894   20101008                               244979900  00                                   4001045112221608102010                                                     M              591D1D31
10214424680320001SULAXANA MANDE                          A 4 B O I  AMRUT-TARA CHS LTD           YARI ROAD VERSOAV ANDHERI W             231432805                               NR ZOHRA AGHADI                 R08092010600034899000454172202010000436600000                              M 0400000000000231432805G  20101008                                47219900  00                                   4001045112222108102010                                                     M              6ABE9E92
10214422180320001PRAGNA PUROHIT                          A-3 AMRUT TARA  BOI CHS LTD             YARI ROAD VERSOVA ANDHERI W             231433527                                                               R08092010600022099000454102002020000344800000                              M 0400000000000231433527G  20101008                                36679900  00                                   4001045112222408102010                                                     M              598D8DA3
15057928980320001SANDHYA GALVANKAR                       FLAT-A/02,    GR.FLR, BOI AMRUT TARA STAYARI ROAD VERSOVA ANDHERI W             231432784                               .                               R08092010600017499000454154002030000252300000                              M 0400000000000231432784G  20101008                                27159900  00                                   4001045112223008102010                                                     M              47E3C3C4
10219375380320001BANK OF INDIA                           ST C AMRUT TARA H SOC A WING            YARI RD VERSOVA ANDHERI W               231418694                                                               R08092010600021099000453264303010000279800000                              M 0400000000000231418694G  20101008                                30079900  00                                   4001045112223408102010                                                     M              53272705
15031962880320001MRS.CHARU SALGAONKAR                    A/8    BANK OF INDIA AMRUT TARA CHS. LT YARI ROAD VERSOVA ANDHERI W             231433534                               NEAR BANK OF INDIA              R08092010600020399000454087103020000262500000                              M 0400000000000231433534G  20101008                                29029900  00                                   4001045112224208102010                                                     M              50D4A4F6
10214441380320001MADHUKAR MANKER                         A 6 AMRUT TARA C H S YARI RD            VERSOVA ANDHERI W                       231433607                                                               R08092010600010699000453248304010000133300000                              M 0400000000000231433607G  20101008                                14359900  00                                   4001045112224708102010                                                     M              45514177
15080275880320001MRS.SUNITI JAVERI                       A-5 AMRUT TARA (BOI) CHS LTD            YARI ROAD VERSOVA                       231434525                               ANDHERI W                       R08092010600000099000453652404020000179900000                              M 0400000000000231434525G  20101008                                18009900  00                                   4001045112225108102010                                                     M              13A79788
10214428880320001M S BK OF INDIA AMRUT TARA CHS          12   16 18 19 AMRUT TARA A WIN          YARI ROAD VERSOAV ANDHERI W             231433518                               NR ZOHRA AGH                    R08092010600036599000500748704030001984800000                              M 0400000000000231433518   20101008                               201799900  00                                   4001045112230008102010                                                     M              68DC8CF9
15126348880320001MR.A DIGHE                              FLAT-A/18    AMRUT TARA CHS LTD.        SHALIMAR BAKERY LANE YARI RD.           231433585                               VERSOVA ANDHERI(W)              R08092010600044599000454147105010000661800000                              M 0400000000000231433585G  20101008                                70749900  00                                   4001045112230408102010                                                     M              6FFBDBD10
10214435180320001M S BK OF INDIA AMRUT TARA CHS          17   16 18 19 AMRUT TARA A WIN          YARI ROAD VERSOAV ANDHERI W             231433575                               NR ZOHRA AGH                    R08092010600027999000470935505020000264600000                              M 0400000000000231433575K  20101008                                28949900  00                                   4001045112230908102010                                                     M              5AAEFE811
10214432380320001M S BK OF INDIA AMRUT TARA CHS          14   16 18 19 AMRUT TARA A WIN          YARI ROAD VERSOAV ANDHERI W             231433567                               NR ZOHRA AGH                    R08092010600011699000454049606010000288600000                              M 0400000000000231433567G  20101008            01                  29689900  00                                   4001045112231608102010       3                                             M              4D2979012
10214446380320001VASANT KINJALKAR                        A-10 AMRUT TARA CHS LTD                 YARI ROAD VERSOVA ANDHERI W             231434599                               nr cooperative development crediR08092010600036299000454172006020000375700000                              M 0400000000000231434599G  20101008                                42229900  00                                   4001045112232008102010                                                     M              6266D6413
10214447680320001M S BK OF INDIA AMRUT TARA CHS          11   16 18 19 AMRUT TARA A WIN          YARI ROAD VERSOAV ANDHERI W             231434591                               NR ZOHRA AGH                    R08092010600032199000454106007010000484800000                              M 0400000000000231434591G  20101008                                51809900  00                                   4001045112232808102010                                                     M              697D2D514
10214442880320001M S BK OF INDIA AMRUT TARA CHS          7    16 18 19 AMRUT TARA A WIN          YARI ROAD VERSOAV ANDHERI W             231434535                               NEAR ZOHRA AGHADI               R08092010600017399000746469107020000583500000                              M 0400000000000231434535K  20101008                                60119900  00                                   4001045112233308102010                                                     M              4397D7B15
10214444680320001SURESH HATTANGADI                       FLAT NO A-15 AMRUT TARA CHS YARI RD     VERSOVA S NO 16 18 ANDHERI W            231434560                               OPP DCB BANK LANE               R08092010600027499000454089408010000347200000                              M 0400000000000231434560G  20101008                                37479900  00                                   4001045112234008102010                                                     M              500444216
10214426980320001M S BK OF INDIA AMRUT TARA CHS          9    16 18 19 AMRUT TARA A WIN          YARI ROAD VERSOAV ANDHERI W             231432791                               NR ZOHRA AGH                    R08092010600023699000454053408020000342900000                              M 0400000000000231432791G  20101008                                36919900  00                                   4001045112234708102010                                                     M              595D0D717
10214431180320001M S BK OF INDIA AMRUT TARA CHS          13   16 18 19 AMRUT TARA A WIN          YARI ROAD VERSOAV ANDHERI W             231433543                               NR ZOHRA AGHADI                 R08092010600016199000454162608030000312500000                              M 0400000000000231433543G  20101008                                33699900  00                                   4001045112235208102010                                                     M              4E9ACAB18
25000342580320001RELIANCE COMMUNICATIONS LTD             FORTUNE 2000 BLDG 2ND FLOOR             C-3 'G' BLOCK BANDRA KURLA COMPLEX      231417112                               BANDRA (E)                      C08092010700002399000510622308040000394500000                              M 0400000000000231417112   20101008                                39679900  00                                   4001045112235908102010                                                     M              2E3A6A119
10214437580320001GAJANAN MOHITE                          A-19 BANK OF INDIA AMRUT TARA CHS       LTD YARI RD VERSOVA ANDHERI W           231433598                                                               R08092010600017199000453714509010000206000000                              M 0400000000000231433598G  20101008                                22189900  00                                   4001045112240308102010                                                     M              497D4D520
10214433980320001M S BK OF INDIA AMRUT TARA CHS          16   16 18 19 AMRUT TARA A WIN          YARI ROAD VERSOAV ANDHERI W             231433559                               NR ZOHRA AGH                    R08092010600017999000469606909020000207100000                              M 0400000000000231433559K  20101008                                23599900  00                                   4001045112240808102010                                                     M              4B4F1F621
15126349980320001MR.H KADAM                              FLAT-A/20    AMRUT TARA CHS LTD.        SHALIMAR BAKERY LANE YARI RD.           231434516                               VERSOVA ANDHERI(W)              R08092010600025699000453409609030000355300000                              M 0400000000000231434516G  20101008                                38269900  00                                   4001045112241308102010                                                     M              5F3B1B122
10217146080320001BANK OF INDIA                           W P AMRUT TARA STAFF CO-OPP S           YARI RD VERSOVA ANDHERI W               231443854                                                               R08092010700066699000754842909040015344500000                              M 0400000000000231443854   20101008                              1541999900  00                                   4001045112242508102010                                                     M              6A4E4E623
10214416780320001BANK OF INDIA AMRUT TARA CHS            W P 16 18 19 AMRUT TARA A WIN           YARI ROAD VERSOVA ANDHERI W             231432762                                                               R08092010600021699000822174810010009107600000                              M 0400000000000231432762   20101008                               913229900  00                                   4001045112243508102010                                                     M              5FCBFBE24
15112995680320002MR JAYANT PATHARE                       B-4,    BANK OF INDIA AMRUT TARA STAFF CYARI ROAD, VERSOVA,                     231431938                               SHALIMAR BAKERY LANE, ANDHERI (WR08092010600031099000454163001010000198900000                              M 0400000000000231431938G  20101008                                22999900  00                                   4001045112262308102010                                                     M              677303525
10213887180320002M S BK OF INDIA AMRUT TARA CHS          2    16 18 19 AMRUT TARA B WIN          YARI RD VERSOVA ANDHERI W               231430960                                                               R08092010600018099000453386001020000149200000                              M 0400000000000231430960G  20101008                                16959900  00                                   4001045112262908102010                                                     M              487C4C526
10219377180320002BANK OF INDIA                           S C AMRUT TARA C H SOC B WING           YARI RD VERSOVA ANDHERI W               231419405                                                               R08092010600022599000453411401030000310400000                              M 0400000000000231419405G  20101008                                33229900  00                                   4001045112263308102010                                                     M              501414327
10213886080320002M S BK OF INDIA AMRUT TARA CHS          1    16 18 19 AMRUT TARA B WIN          YARI RD VERSOVA ANDHERI W               231430971                                                               R08092010600018999000454101902010000279500000                              M 0400000000000231430971G  20101008                                29869900  00                                   4001045112263708102010                                                     M              488CBCA28
10213888880320002M S BK OF INDIA AMRUT TARA CHS          3    16 18 19 AMRUT TARA B WIN          YARI RD VERSOVA ANDHERI W               231430987                                                               R08092010600022799000454075902020000278400000                              M 0400000000000231430987G  20101008                                30029900  00                                   4001045112264308102010                                                     M              592D1D029
10213895980320002M S BK OF INDIA AMRUT TARA CHS          8    16 18 19 AMRUT TARA B WIN          YARI RD VERSOVA ANDHERI W               231431923                                                               R08092010600023699000454154402030000360100000                              M 0400000000000231431923G  20101008                                37719900  00                                   4001045112264808102010                                                     M              58FCCCD30
10214403280320002SATISH RAJPURKAR                        B-12 AMRUT TARA B O I CHS LTD           YARI ROAD VERSOVA                       231431951                                                               R08092010600006199000454155403010000099600000                              M 0400000000000231431951G  20101008                                10339900  00                                   4001045112265308102010                                                     M              3C7868531
15071616880320002MRS.NORMA FERNANDEZ                     B-16 AMRUT TARA  CHS. LTD.              YARI RD VERSOVA                         231432739                               ANDHERI W                       R08092010600019999000453385603020000282900000                              M 0400000000000231432739G  20101008                                30219900  00                                   4001045112270408102010                                                     M              4EAAAA832
10214415180320002M S BK OF INDIA AMRUT TARA CHS          20   16 18 19 AMRUT TARA B WIN          YARI RD VERSOVA ANDHERI W               231432770                               salimar bar bakery              R08092010600035599000453348903030000715400000                              M 0400000000000231432770G  20101008                                76509900  00                                   4001045112271908102010                                                     M              637717533
10214410180320002M S BK OF INDIA AMRUT TARA CHS          17   16 18 19 AMRUT TARA B WIN          YARI RD VERSOVA ANDHERI W               231432001                                                               R08092010600040999000453360904010000738600000                              M 0400000000000231432001G  20101008                                79169900  00                                   4001045112272208102010                                                     M              67D3E3F34
10214411680320002M S BK OF INDIA AMRUT TARA CHS          18   16 18 19 AMRUT TARA B WIN          YARI RD VERSOVA ANDHERI W               231432729                               NEAR SHALIMAR BAKERI            R08092010600026899000469519404020000332100000                              M 0400000000000231432729K  20101008                                37569900  00                                   4001045112272708102010                                                     M              58CC8CE35
10214412980320002M S BK OF INDIA AMRUT TARA CHS          19   16 18 19 AMRUT TARA B WIN          YARI RD VERSOVA ANDHERI W               231432749                               .                               R08092010600016399000454105605010000396300000                              M 0400000000000231432749G  20101008                                41609900  00                                   4001045112273108102010                                                     M              4A5E6E736
10214407480320002GAVER CHHACHHIA                         B 15 AMRUT TARA YARI RD BANK OF         INDIA STAFF HCS VERSOV ANDHERI  W       231432710                               NEAR SHALIMAR BACKERY           R08092010600059099000454154905020000757700000                              M 0400000000000231432710G  20101008            01                  81519900  00                                   4001045112274708102010       7                                             M              613545137
10213899280320002M S BK OF INDIA AMRUT TARA CHS          10   16 18 19 AMRUT TARA B WIN          YARI RD VERSOVA ANDHERI W               231431983                                                               R08092010600026199000453409206010000445900000                              M 0400000000000231431983G  20101008                                48119900  00                                   4001045112275208102010                                                     M              599DADB38
10214404380320002NEETA ACHARYA                           B-13 AMRUT TARA YARI RD VERSOVA                                                 231431964                               NEAR SHALIMAR BAKERY LANE       R08092010600019799000453343206020000300500000                              M 0400000000000231431964G  20101008                                32229900  00                                   4001045112275608102010                                                     M              4DA9A9839
25000342580320002RELIANCE COMMUNICATIONS LTD             FORTUNE 2000 BLDG 2ND FLOOR             C-3 'G' BLOCK BANDRA KURLA COMPLEX      231443879                               BANDRA (E)                      C08092010600000099000453418806030000000000000                              M 0400000000000231443879G  20101008                                   09900  06ZN                                 4001045112280208102010                                                     M              1387C7A40
10213897480320002M S BK OF INDIA AMRUT TARA CHS          9    16 18 19 AMRUT TARA B WIN          YARI RD VERSOVA ANDHERI W               231431993                               bhd inlaks park                 R08092010600023399000454110007010000363300000                              M 0400000000000231431993G  20101008                                39109900  00                                   4001045112281108102010                                                     M              5397E7B41
10214406480320002M S BK OF INDIA AMRUT TARA CHS          14   16 18 19 AMRUT TARA B WIN          YARI RD VERSOVA ANDHERI W               231432720                                                               R08092010600032799000453410307020000268200000                              M 0400000000000231432720G  20101008                                29839900  00                                   4001045112281808102010                                                     M              680C3C242
10214400880320002M S BK OF INDIA AMRUT TARA CHS          11   16 18 19 AMRUT TARA B WIN          YARI RD VERSOVA ANDHERI W               231431974                               NEAR ENLACKS BLDG               R08092010600019899000453384607030000230400000                              M 0400000000000231431974G  20101008                                25219900  00                                   4001045112282208102010                                                     M              4E9ACAB43
10213891580320002M S BK OF INDIA AMRUT TARA CHS          5    16 18 19 AMRUT TARA B WIN          YARI RD VERSOVA ANDHERI W               231431912                                                               R08092010600020999000453336708010000305000000                              M 0400000000000231431912G  20101008                                32919900  00                                   4001045112282708102010                                                     M              57C3F3E44
10213893280320002M S BK OF INDIA AMRUT TARA CHS          6    16 18 19 AMRUT TARA B WIN          YARI RD VERSOVA ANDHERI W               231430998                               Yari Road, Versova              R08092010600018299000453342308020000275200000                              M 0400000000000231430998G  20101008                                29319900  00                                   4001045112283208102010                                                     M              4B8FFFA45
10213894480320002MANGAS RAJE                             BANK OF INDIA EMPS                      AMRUT JARA CHS GANI ROAD VERSOVA        231431932                                                               R08092010600015999000454152808030000257700000                              M 0400000000000231431932G  20101008                                27159900  00                                   4001045112283708102010                                                     M              4DA9B9846
10213808580320003BANK OF INDIA STAFF CO OP SOC           8 16 18 19 AMRUT TARA C WIN             YARI ROAD VERSOVA ANDHERI W             231430021                                                               R08092010600033599000453343501010000493100000                              M 0400000000000231430021G  20101008                                53589900  00                                   4001045112301608102010                                                     M              6A7E4E547
10213814180320003BANK OF INDIA STAFF CO OP SOC           12 16 18 19 AMRUT TARA C WIN            YARI ROAD VERSOVA ANDHERI W             231430048                                                               R08092010600021399000454168202010000240000000                              M 0400000000000231430048G  20101008                                26129900  00                                   4001045112303008102010                                                     M              59CDFDE48
10213819580320003BANK OF INDIA STAFF CO OP SOC           16 16 18 19 AMRUT TARA C WIN            YARI ROAD VERSOVA ANDHERI W             231430095                                                               R08092010600033999000453337802020000446800000                              M 0400000000000231430095G  20101008                                48219900  00                                   4001045112303208102010                                                     M              6D7949549
10213824780320003BANK OF INDIA STAFF CO OP SOC           20 16 18 19 AMRUT TARA C WIN            YARI ROAD VERSOVA ANDHERI W             231430982                                                               R08092010600030599000453418103010000301800000                              M 0400000000000231430982G  20101008                                32999900  00                                   4001045112304008102010                                                     M              6C5868750
10213823480320003BANK OF INDIA STAFF CO OP SOC           19 16 18 19 AMRUT TARA C WIN            YARI ROAD VERSOVA ANDHERI W             231430951                               NEAR INLECT SOCEITY             R08092010600019099000454173003020000445100000                              M 0400000000000231430951G  20101008                                46999900  00                                   4001045112304408102010                                                     M              4AAEEE851
10219379080320003BANK OF INDIA                           S C AMRUT TARA SOC WING C               YARI RD VERSOVA ANDHERI W               231419382                                                               R08092010600020999000454125804010000296300000                              M 0400000000000231419382G  20101008                                31989900  00                                   4001045112304908102010                                                     M              5EEAFAC52
10213299380320003BANK OF INDIA STAFF CO OP SOC           2 16 18 19 AMRUT TARA C WIN             YARI ROAD VERSOVA ANDHERI W             231429266                               NEAR SHALIMAR BAKERY            R08092010600028199000454101004020000387800000                              M 0400000000000231429266G  20101008                                41599900  00                                   4001045112305308102010                                                     M              5B1F5F353
10213816680320003BANK OF INDIA STAFF CO OP SOC           14 16 18 19 AMRUT TARA C WIN            YARI ROAD VERSOVA ANDHERI W             231430102                                                               R08092010600017199000453343604030000187000000                              M 0400000000000231430102G  20101008                                20499900  00                                   4001045112305708102010                                                     M              4AAE9E854
10213809780320003BANK OF INDIA STAFF CO OP SOC           9 16 18 19 AMRUT TARA C WIN             YARI ROAD VERSOVA ANDHERI W             231430076                               bank of india col               R08092010500012099000287091805010002118500000                              M 0400000000000231430076   20101008                               213179900  00                                   4001045112310308102010                                                     M              48BCCC955
10213801080320003PREM M GUPTA                            SURVEY NO    16 YARI RD C-3 B O I AMRIT LTD VERSOVA ANDHERI W                   231429274                               OPP INLAKHS PARK                R08092010600012699000454169305020000212400000                              M 0400000000000231429274G  20101008                                22549900  00                                   4001045112310808102010                                                     M              4C2808056
10213803380320003BANK OF INDIA STAFF CO OP SOC           5 16 18 19 AMRUT TARA C WIN             YARI ROAD VERSOVA ANDHERI W             231430011                                                               R08092010600026599000454101306010000392600000                              M 0400000000000231430011G  20101008                                41819900  00                                   4001045112311708102010                                                     M              588CBCA57
10213805280320003BANK OF INDIA STAFF CO OP SOC           6 16 18 19 AMRUT TARA C WIN             YARI ROAD VERSOVA ANDHERI W             231430038                                                               R08092010600017599000453336306020000310800000                              M 0400000000000231430038G  20101008                                33189900  00                                   4001045112312208102010                                                     M              4A6E5E458
10213812480320003VINAY SHRINGARPURE                      B O I STAFF AMRUTTARA HSG SOC           C-11 ANDHERI VERSOVA                    231430067                               .                               R08092010600035599000453342907010000500700000                              M 0400000000000231430067G  20101008                                55269900  00                                   4001045112312608102010                                                     M              6D3939159
10213297880320003BANK OF INDIA STAFF CO OP SOC           1 16 18 19 AMRUT TARA C WIN             YARI ROAD VERSOVA ANDHERI W             231429285                                                               R08092010600006899000454155307020000069600000                              M 0400000000000231429285G  20101008                                 7639900  00                                   4001045112313008102010                                                     M              3BEFDFC60
10213810980320003C MEHRA                                 C-10 BANK OF INDIA AMRUT TARA           YARI ROAD VERSOVA                       231430057                                                               R08092010600023599000453346407030000285700000                              M 0400000000000231430057G  20101008                                30659900  00                                   4001045112313508102010                                                     M              55E001C61
10213806780320003SULAXANA MANDE                          C-7 BANK OF INDIA AMRUT-TARA CHS        LTD YARI RD VERSOVA ANDHERI W           231430029                               NEAR HANUMAN TEMPLE             R08092010600016399000454157508010000319600000                              M 0400000000000231430029G  20101008                                33749900  00                                   4001045112314008102010                                                     M              463272162
10213802180320003BANK OF INDIA STAFF CO OP SOC           4 16 18 19 AMRUT TARA C WIN             YARI ROAD VERSOVA ANDHERI W             231429300                                                               R08092010600031699000664806608020000548100000                              M 0400000000000231429300K  20101008                                58249900  00                                   4001045112314608102010                                                     M              6BEFDFC63
10213818180320003BANK OF INDIA STAFF CO OP SOC           15 16 18 19 AMRUT TARA C WIN            YARI ROAD VERSOVA ANDHERI W             231430921                               NEAR DCB BANK/OPP. SHALIMAR BAKER08092010600045899000453361908030000682700000                              M 0400000000000231430921G  20101008                                73569900  00                                   4001045112315408102010                                                     M              613555164
10213822580320003BANK OF INDIA STAFF CO OP SOC           18 16 18 19 AMRUT TARA C WIN            YARI ROAD VERSOVA ANDHERI W             231430936                                                               R08092010600016899000454308309010000427900000                              M 0400000000000231430936G  20101008                                44229900  00                                   4001045112315808102010                                                     M              4DF9C9D65
10213820980320003BANK OF INDIA STAFF CO OP SOC           17 16 18 19 AMRUT TARA C WIN            YARI ROAD VERSOVA ANDHERI W             231430109                                                               R08092010600030299000453408309020000538500000                              M 0400000000000231430109G  20101008                                58999900  00                                   4001045112320308102010                                                     M              6CC8F8E66
10213815580320003ANURADHA SHAH                           C 13 AMRUT TARA CHS                     YARI ROAD VERSOVA ANDHERI W             231430086                                                               R08092010600019499000454124709030000444400000                              M 0400000000000231430086G  20101008                                46469900  00                                   4001045112320708102010                                                     M              46E2F2C67
10220480180320004BANK OF INDIA AMRUT TARA SOC            4 16 18 19 AMRUT TARA D WIN             YARI ROAD VERSOVA ANDHERI W             231421801                                                               R08092010600026399000568323801010001595100000                              M 0400000000000231421801K  20101008                               162029900  00                                   4001045112333008102010                                                     M              5C7848568
10220479080320004YOGESH SHUKLA                           D-3 BK OF INDIA AMRUT TARA D WING       YARI RD VERSOVA ANDHERI WEST            231421770                                                               R08092010600012899000552821602010001077600000                              M 0400000000000231421770K  20101008                               109269900  00                                   4001045112333608102010                                                     M              4A4E7E669
10220477780320004ANITA SAMANT                            D-2 BOI AMRUTTARA CHS LTD               YARI ROAD VERSOVA ANDHERI W             231421787                                                               R08092010600017499000453715402020000253400000                              M 0400000000000231421787G  20101008                                27289900  00                                   4001045112334608102010                                                     M              45D1D1F70
10220481680320004BANK OF INDIA AMRUT TARA SOC            5 16 18 19 AMRUT TARA D WIN             YARI ROAD VERSOVA ANDHERI W             231422564                                                               R08092010600012699000454020502030000167500000                              M 0400000000000231422564G  20101008                                17899900  00                                   4001045112335008102010                                                     M              4C7848571
10220491880320004BANK OF INDIA AMRUT TARA SOC            12 16 18 19 AMRUT TARA D WIN            YARI ROAD VERSOVA ANDHERI W             231422590                                                               R08092010600013399000453605903010000261500000                              M 0400000000000231422590G  20101008                                28009900  00                                   4001045112335508102010                                                     M              4CE8D8C72
10221002580320004BANK OF INDIA AMRUT TARA SOC            19 16 18 19 AMRUT TARA D WIN            YARI ROAD VERSOVA ANDHERI W             231423502                                                               R08092010600013499000456798403020000247500000                              M 0400000000000231423502G  20101008                                26149900  00                                   4001045112340208102010                                                     M              4C4878673
10219380680320004BANK OF INDIA                           S C AMRUT TARA SOC WING D               YARI RD VERSOVA ANDHERI W               231419365                                                               R08092010600016299000454021503030000199300000                              M 0400000000000231419365G  20101008                                21419900  00                                   4001045112340708102010                                                     M              4D3929174
10220488080320004BANK OF INDIA AMRUT TARA SOC            10 16 18 19 AMRUT TARA D WIN            YARI ROAD VERSOVA ANDHERI W             231423430                                                               R08092010600032499000453714204010000452800000                              M 0400000000000231423430G  20101008                                48699900  00                                   4001045112341108102010                                                     M              6C0838275
10221001380320004BANK OF INDIA AMRUT TARA SOC            18 16 18 19 AMRUT TARA D WIN            YARI ROAD VERSOVA ANDHERI W             231423455                                                               R08092010600033699000454144404020000427900000                              M 0400000000000231423455G  20101008                                45449900  00                                   4001045112341608102010                                                     M              6D7949576
10221003980320004BANK OF INDIA AMRUT TARA SOC            20 16 18 19 AMRUT TARA D WIN            YARI ROAD VERSOVA ANDHERI W             231424124                                                               R08092010600015599000454087005010000231200000                              M 0400000000000231424124G  20101008                                24759900  00                                   4001045112342608102010                                                     M              4BFFCFD77
10220497680320004AKIL ATTARI                             B O I AMRUT TARA CHS LTD                D-16 YARI RD ANDHERI W                  231423469                                                               R08092010600026899000561617305020001363400000                              M 0400000000000231423469K  20101008                               139509900  00                                   4001045112343108102010                                                     M              5C19F8378
10220499380320004BANK OF INDIA AMRUT TARA SOC            17 16 18 19 AMRUT TARA D WIN            YARI ROAD VERSOVA ANDHERI W             231423479                               .                               R08092010600019099000454145905030000288100000                              M 0400000000000231423479G  20101008                                31659900  00                                   4001045112344408102010                                                     M              4FAB9B879
10220496280320004BANK OF INDIA AMRUT TARA SOC            15 16 18 19 AMRUT TARA D WIN            YARI ROAD VERSOVA ANDHERI W             231423488                                                               R08092010600024999000454036906010000306700000                              M 0400000000000231423488G  20101008                                33229900  00                                   4001045112345708102010                                                     M              5EEADAC80
10220494580320004BANK OF INDIA AMRUT TARA SOC            14 16 18 19 AMRUT TARA D WIN            YARI ROAD VERSOVA ANDHERI W             231423414                                                               R08092010600027099000454077706020000361100000                              M 0400000000000231423414G  20101008                                38809900  00                                   4001045112350108102010                                                     M              5CC8F8E81
10220484480320004BANK OF INDIA AMRUT TARA SOC            7 16 18 19 AMRUT TARA D WIN             YARI ROAD VERSOVA ANDHERI W             231422527                               NEAR CHILDREN WELFARE SCHOOL;   R08092010600023099000686366206030000942200000                              M 0400000000000231422527K  20101008                                96719900  00                                   4001045112350708102010                                                     M              5084E4A82
15071930580320004RASHMI MALI                             D-6    AMRUT TARA C H S LTD             YARI ROAD ANDHERI W                     231422574                               VERSOVA                         R08092010600027199000585382307010001470400000                              M 0400000000000231422574K  20101008                               151359900  00                                   4001045112351408102010                                                     M              5CF8E8D83
15065595780320004SUNIL JAGTAP                            FLAT-D13    B O I AMRUT TARA CHS SOC D WANDHERI WEST                            231423444                               YARI ROAD VERSOVA               R08092010600019499000454119607020000330700000                              M 0400000000000231423444G  20101008                                35099900  00                                   4001045112351808102010                                                     M              4084A4A84
10220489880320004BANK OF INDIA AMRUT TARA SOC            11 16 18 19 AMRUT TARA D WIN            YARI ROAD VERSOVA ANDHERI W             231422603                               NR SHALIMAR BAKERY              R08092010600022299000454039207030000279400000                              M 0400000000000231422603G  20101008                                30119900  00                                   4001045112352308102010                                                     M              572363085
10220476180320004BANK OF INDIA AMRUT TARA SOC            1 16 18 19 AMRUT TARA D WIN             YARI ROAD VERSOVA ANDHERI W             231422513                                                               R08092010600013599000454036308010000185800000                              M 0400000000000231422513G  20101008                                20249900  00                                   4001045112352708102010                                                     M              4B7F4F586
10220487080320004BANK OF INDIA AMRUT TARA SOC            9 16 18 19 AMRUT TARA D WIN             YARI ROAD VERSOVA ANDHERI W             231422541                                                               R08092010600019399000454017808020000250100000                              M 0400000000000231422541G  20101008                                26969900  00                                   4001045112353208102010                                                     M              4C6858487
10220485780320004BANK OF INDIA AMRUT TARA SOC            8 16 18 19 AMRUT TARA D WIN             YARI ROAD VERSOVA ANDHERI W             231422552                                                               R08092010600028199000454051208030000415000000                              M 0400000000000231422552G  20101008                                44439900  00                                   4001045112353908102010                                                     M              5C5868788
10217145280320004BANK OF INDIA                           AMRUT TARA SAFF CO OP HSG SOCY LTD      YARI RD VERSOVA ANDHERI W               231442894                                                               R08092010600077299000810061409010026227100000                              M 0400000000000231442894   20101008            01                2630259900  00                                   4001045112360108102010   26325                                             M              7C6858489
10221015780320005BANK OF INDIA AMRUT TARA SOCY           E-08 AMRUT TARA E BLK YARI RD           VERSOVA ANDHERI W                       231424184                               .                               R08092010600022499000454090401010000285200000                              M 0400000000000231424184G  20101008                                30909900  00                                   4001045112371608102010                                                     M              563202190
10221018280320005SUDESH BANGERA                          E-E-9  AMURUT TARA                      YARI ROAD  VERSOVA                      231425221                                                               R08092010600013799000454145401020000241800000                              M 0400000000000231425221G  20101008                                25639900  00                                   4001045112372108102010                                                     M              4104E5291
10221014280320005NARESHKUMAR MODI                        E-7 AMRUT TARA SOC YARI RD              VERSOVA ANDHERI W                       231424173                                                               R08092010600016699000709061902010000943800000                              M 0400000000000231424173K  20101008                                95999900  00                                   4001045112372708102010                                                     M              4D4959692
10221029080320005PRAKASH KULKARNI                        E-16 AMRUT TARA E BLK 3RD FLR           YARI RD VERSOVA ANDHERI W               231425302                               nr hanuman temple               R08092010600032999000453671202020000380400000                              M 0400000000000231425302G  20101008                                41189900  00                                   4001045112373208102010                                                     M              637707593
10221006180320005JOYCE FERNANDES                         E-1 BANK OF INDIA AMRUTTARA             SURVEY NO 16 VERSOVA ANDHERI W          231424113                               opp:cwc school                  R08092010600036499000454051303010000487700000                              M 0400000000000231424113G  20101008                                52329900  00                                   4001045112373808102010                                                     M              6F5B1B794
10221010180320005HEMANT DOIFODEY                         E-4 YARI RD BOI AMRUT TARA STAFF        CHS LTD VERSOVA                         231424154                                                               R08092010600018599000453664903020000246800000                              M 0400000000000231424154G  20101008                                26729900  00                                   4001045112374208102010                                                     M              4F1B0B395
10221009180320005NANA AYRE                               A TARA BANK OF INDIA STAFF CHS E 3      GR FLR YARI RD VERSOVA ANDHERI W        231424160                                                               R08092010600026399000453758203030000375300000                              M 0400000000000231424160G  20101008                                40289900  00                                   4001045112374808102010                                                     M              502414096
10219381580320005BANK OF INDIA                           S C AMRUT TARA SOC WING E               YARI RD VERSOVA ANDHERI W               231419394                                                               R08092010600021799000454021404010000287600000                              M 0400000000000231419394G  20101008                                30809900  00                                   4001045112375408102010                                                     M              5E4A5A697
10221011880320005BANK OF INDIA AMRUT TARA SOCY           E-05 AMRUT TARA E BLK YARI RD           VERSOVA ANDHERI W                       231424192                               NEAR SAI BABA MANDIR            R08092010600025399000454109404020000422100000                              M 0400000000000231424192G  20101008                                44739900  00                                   4001045112375808102010                                                     M              5FABFB898
10221007680320005BANK OF INDIA AMRUT TARA SOCY           E-02 AMRUT TARA E BLK YARI RD           VERSOVA ANDHERI W                       231424142                                                               R08092010600017299000454013604030000225200000                              M 0400000000000231424142G  20101008                                24159900  00                                   4001045112380408102010                                                     M              4387B7A99
10221013080320005NISHIGANDHA POWALE                      E-6  BOI AMRUT TARA STAFF CHS           LTD  YARI ROAD  VERSOVA ANDHERI W       231425210                                                               R08092010600022099000453714105010000270500000                              M 0400000000000231425210G  20101008                                29789900  00                                   4001045112381008102010                                                     M              5F6B5B4100
10221022780320005BANK OF INDIA AMRUT TARA SOCY           E-12 AMRUT TARA E BLK YARI RD           VERSOVA ANDHERI W                       231425247                                                               R08092010600029799000453653205020000317100000                              M 0400000000000231425247G  20101008            01                  34689900  00                                   4001045112382008102010    3458                                             M              5D09392101
10221019480320005BANK OF INDIA AMRUT TARA SOCY           E-10 AMRUT TARA E BLK YARI RD           VERSOVA ANDHERI W                       231425269                                                               R08092010600031799000835356805030000138900000                              M 0400000000000231425269K  20101008                                17459900  00                                   4001045112382708102010                                                     M              687C4C5102
10221033380320005BANK OF INDIA AMRUT TARA SOCY           E-19 AMRUT TARA E BLK YARI RD           VERSOVA ANDHERI W                       231426057                                                               R08092010600018299000454012906010000218500000                              M 0400000000000231426057G  20101008                                24179900  00                                   4001045112383808102010                                                     M              4652627103
10221023780320005BANK OF INDIA AMRUT TARA SOCY           E-13 AMRUT TARA E BLK YARI RD           VERSOVA ANDHERI W                       231425235                                                               R08092010600003199000564041606020000427600000                              M 0400000000000231425235K  20101008                                43299900  00                                   4001045112384208102010                                                     M              35E1D1C104
10221026180320005RAMANBAHAI SOLANKI                      E-14 BANK OF INDIA AMRUT TARA           CHS  YARI ROAD  VERSOVA ANDHERI W       231425278                                                               R08092010600016899000454037607010000058200000                              M 0400000000000231425278G  20101008                                 5859900  L4                                   4001045112390508102010                                                     M              4155757105
10221027680320005BANK OF INDIA AMRUT TARA SOCY           E-15 AMRUT TARA E BLK YARI RD           VERSOVA ANDHERI W                       231425294                                                               R08092010600022999000453670307020000298000000                              M 0400000000000231425294G  20101008                                31669900  00                                   4001045112391108102010                                                     M              56A2928106
10221020780320005GEETA MOORJANI                          E-11 BANK OF INIDA STAFF                AMRUT TARA CHS YARI ROAD VERSOVA        231425260                               near hanuman mandir             R08092010600013099000441971308010000287100000                              M 0400000000000231425260K  20101008                                29629900  00                                   4001045112391608102010                                                     M              4CF888D107
10221034780320005BANK OF INDIA AMRUT TARA SOCY           E-20 AMRUT TARA E BLK YARI RD           VERSOVA ANDHERI W                       231426025                                                               R08092010600018599000453594408020000246300000                              M 0400000000000231426025G  20101008                                26529900  00                                   4001045112392108102010                                                     M              45A1918108
10221030780320005BANK OF INDIA AMRUT TARA SOCY           E-17 AMRUT TARA E BLK YARI RD           VERSOVA ANDHERI W                       231426014                               NEAR SEVEN BUNGALOWS            R08092010600011899000452425709010000146400000                              M 0400000000000231426014G  20101008                                15639900  00                                   4001045112392508102010                                                     M              4682C2A109
10221031980320005BANK OF INDIA AMRUT TARA SOCY           E-18 AMRUT TARA E BLK YARI RD           VERSOVA ANDHERI W                       231425285                               NEAR SHALIMAR                   R08092010600020799000726497709020001115100000                              M 0400000000000231425285K  20101008                               114369900  00                                   4001045112393408102010                                                     M              5783D3A110
10221042080320006BANK OF INDIA STAFF QRTS                5 16 18 19 AMRUT TARA F WIN             YARI ROAD VERSOVA BLDG A ANDHERI W      231426820                               NEAR POSEIDON BULIDING          R08092010600016299000454055301010000156800000                              M 0400000000000231426820G  20101008                                18639900  00                                   4001045112402008102010                                                     M              4420500111
10221040680320006BANK OF INDIA STAFF QRTS                4 16 18 19 AMRUT TARA F WIN             YARI ROAD VERSOVA BLDG A ANDHERI W      231426109                                                               R08092010600033399000453595901020000448900000                              M 0400000000000231426109G  20101008                                47909900  00                                   4001045112402608102010                                                     M              6165454112
10221038980320006BANK OF INDIA STAFF QRTS                3 16 18 19 AMRUT TARA F WIN             YARI ROAD VERSOVA BLDG A ANDHERI W      231426070                                                               R08092010600025599000454012401030000344700000                              M 0400000000000231426070G  20101008                                37439900  00                                   4001045112403108102010                                                     M              5F2B1B0113
10221036180320006BANK OF INDIA STAFF QRTS                1 16 18 19 AMRUT TARA F WIN             YARI ROAD VERSOVA BLDG A ANDHERI W      231426045                                                               R08092010800019699000521566202010001064000000                              M 0400000000000231426045K  20101008                               108559900  00                                   4001045112404108102010                                                     M              40F4D4D114
10221037080320006BANK OF INDIA STAFF QRTS                2 16 18 19 AMRUT TARA F WIN             YARI ROAD VERSOVA BLDG A ANDHERI W      231426080                                                               R08092010600015999000454170302020000186800000                              M 0400000000000231426080G  20101008                                20319900  00                                   4001045112404808102010                                                     M              4F3B0B1115
10221045180320006KUMAR MENDON                            F-7 YARI ROAD BANK OF INDIA             ANANT TOWER BOMBAY                      231426103                               AMRUT DHARA                     R08092010600030799000453410702030000415800000                              M 0400000000000231426103G  20101008                                44369900  00                                   4001045112405208102010                                                     M              6BCFCFE116
10221044180320006SHANKARA MENDON                         F 6 YARI ROAD ANDHERI W                 AMRUT TARA STAFF CO-OP SOC              231426830                                                               R08092010600021899000685806003010000952200000                              M 0400000000000231426830K  20101008                                97449900  00                                   4001045112405808102010                                                     M              51D5D5F117
10221046480320006BANK OF INDIA STAFF QRTS                8 16 18 19 AMRUT TARA F WIN             YARI ROAD VERSOVA BLDG A ANDHERI W      231426094                               nr. ganesh mandir               R08092010600027499000567183603020001364000000                              M 0400000000000231426094K  20101008                               139209900  00                                   4001045112410608102010                                                     M              5450307118
10219383380320006BANK OF INDIA                           S C AMRUT TARA SOC WING F               YARI RD VERSOVA ANDHERI W               231419349                                                               R08092010600017099000453671403030000230600000                              M 0400000000000231419349G  20101008                                24729900  00                                   4001045112411108102010                                                     M              4DE9F9C119
10212986980320006DEEPA PATHARE                           B O I AMRUTTARA STAFF C H SOC           F-19 YARI ROAD VERSOVA                  231427665                                                               R08092010600000399000453714404010000060300000                              M 0400000000000231427665G  20101008                                 7169900  H2                                   4001045112412108102010                                                     M              2D79695120
10212975280320006VINAY BENEGAL                           F 12 AMRUT TARA YARI RD VERSOVA                                                 231426845                               NEXT TO SAI SHAKTHI BUILDING    R08092010600020799000708725504020000892600000                              M 0400000000000231426845K  20101008                                91469900  00                                   4001045112412608102010                                                     M              595D6D7121
10212979880320006BANK OF INDIA STAFF QRTS                15 16 18 19 AMRUT TARA F WIN            YARI ROAD VERSOVA BLDG A ANDHERI W      231427617                                                               R08092010700008299000512992104030000682200000                              M 0400000000000231427617   20101008                                69929900  00                                   4001045112413208102010                                                     M              3155757122
10212978580320006VIDHYADHAR SAWANT                       F 14 BANK OF INDIA YARI ROAD            AMRUTTARA STAFF CHS ANDHERI W           231426892                                                               R08092010600032199000454105505010000479500000                              M 0400000000000231426892G  20101008                                51119900  00                                   4001045112413708102010                                                     M              68BC8C9123
10212977480320006KISHORE ANGNE                           F 13 AMRUT TARA C H S LTD               VERSOVA ANDHERI W                       231426870                                                               R08092010600027799000454148005020000405400000                              M 0400000000000231426870G  20101008                                43819900  00                                   4001045112415108102010                                                     M              5B1EFF3124
10212969980320006BANK OF INDIA STAFF QRTS                9 16 18 19 AMRUT TARA F WIN             YARI ROAD VERSOVA BLDG A ANDHERI W      231426858                                                               R08092010600021499000453410905030000289100000                              M 0400000000000231426858G  20101008                                31119900  00                                   4001045112415608102010                                                     M              52F6D6D125
10212981880320006BANK OF INDIA STAFF QRTS                16 16 18 19 AMRUT TARA F WIN            YARI ROAD VERSOVA BLDG A ANDHERI W      231426904                                                               R08092010600011999000453715506010000144200000                              M 0400000000000231426904G  20101008                                15609900  00                                   4001045112420108102010                                                     M              41E5C5C126
10212973480320006BANK OF INDIA STAFF QRTS                11 16 18 19 AMRUT TARA F WIN            YARI ROAD VERSOVA BLDG A ANDHERI W      231426885                                                               R08092010600008199000453238106020000267400000                              M 0400000000000231426885G  20101008                                27019900  00                                   4001045112421008102010                                                     M              3266464127
10212971580320006AVINASH KANT MOHANDAS                   A 34    GREENFIELD 3RD FLOOR KAPAD BAZARLANE SITLADEVI TEMPLE RD MAHIM          231426877                                                               R08092010600007699000454093906030000058300000                              M 0400000000000231426877G  20101008                                 5839900  06ZN                                 4001045112421708102010                                                     M              3D89D9A128
10212983780320006P ARLEKAR                               F 17 BOI AMRUT TARA SOC                 YARI RD VERSOVA ANDHERI W               231427627                                                               R08092010600025099000453238307010000340600000                              M 0400000000000231427627G  20101008                                36669900  00                                   4001045112422108102010                                                     M              5125350129
10212988380320006BANK OF INDIA STAFF QRTS                20 16 18 19 AMRUT TARA F WIN            YARI ROAD VERSOVA BLDG A ANDHERI W      231427656                                                               R08092010600011999000454087207020000174400000                              M 0400000000000231427656G  20101008                                18449900  00                                   4001045112422508102010                                                     M              4357777130
15042241180320006PRAKASH ARLEKAR                         F-18,     B. O. I. AMRUT TARA CHS LTD,  Y ARI ROAD VERSOVA, ANDHERI W           231427643                                                               R08092010700005099000514005407030000398800000                              M 0400000000000231427643K  20101008                                40429900  00                                   4001045112423108102010                                                     M              3216263131
82220407480320007BANK OF INDIA                           03 AMRUT TARA STAFF CHS LTD             YARI RD VERSOVA G WING ANDHERI W        231420121                               SHALIMAR BAKERY GALI            R08092010600020099000454162901010000260900000                              M 0400000000000231420121G  20101008                                28309900  00                                   4001045112431508102010                                                     M              4BAFFF8132
10220405580320007BANK OF INDIA                           1 AMRUT TARA STAFF CHS LTD              YARI RD VERSOVA G WING ANDHERI W        231420178                               nr shalimar bakry               R08092010600033599000699794801020001181100000                              M 0400000000000231420178K  20101008                               121289900  00                                   4001045112432208102010                                                     M              6612623133
10220414880320007BANK OF INDIA                           8  AMRUT TARA STAFF CHS LTD             YARI RD VERSOVA G WING ANDHERI W        231420208                                                               R08092010600009799000453652302010000200900000                              M 0400000000000231420208G  20101008                                21389900  00                                   4001045112433208102010                                                     M              3D79795134
10220408980320007SHIRISH RALEGAONKAR                     G-4 YARI RD B O I AMRITTARA STAFF       CHS YARI RD VERSOVA ANDHERI W           231420163                               .                               R08092010600011799000453348702020000201900000                              M 0400000000000231420163G  20101008                                21689900  00                                   4001045112434408102010                                                     M              4793B3B135
10220406680320007VIKRAM SAHANI                           G-2 AMRUT TARA COOP SOC                 YARI RD VERSVOA                         231420134                                                               R08092010600018899000453605202030000284300000                              M 0400000000000231420134G  20101008                                30359900  00                                   4001045112434808102010                                                     M              479273B136
15078817480320007MR.RAJKUMAR PAGARE                      G-5 BANK OF INDIA                       AMRUT TARA STAFF CHS. LTD.              231420931                               YARI RD VERSOVA ANDHERI W       R08092010600013199000453385703010000185600000                              M 0400000000000231420931G  20101008                                19719900  00                                   4001045112435308102010                                                     M              4256067137
15122905680320007KAPILDEV MAKHIJANI                      G 7    AMRUTTARA CHS LTD,NR SAHLIMAR BEKYARI ROAD,VERSOVA,                      231420921                               ANDHERI (WEST)                  R08092010600010799000454105103020000118400000                              M 0400000000000231420921G  20101008                                12569900  00                                   4001045112435808102010                                                     M              48CC9CE138
10220410980320007BANK OF INDIA                           6  AMRUT TARA STAFF CHS LTD             YARI RD VERSOVA G WING ANDHERI W        231420199                                                               R08092010600026299000454171703030000378800000                              M 0400000000000231420199G  20101008                                40919900  00                                   4001045112440408102010                                                     M              5EBABA9139
10220420680320007BANK OF INDIA                           12 AMRUT TARA STAFF CHS LTD             YARI RD VERSOVA G WING ANDHERI W        231420980                                                               R08092010600022099000454081504010000293200000                              M 0400000000000231420980G  20101008                                31419900  00                                   4001045112440908102010                                                     M              5E7A7A5140
10220417880320007ANANT SALI                              G-10 AMRUT TARA BOI STAFF CHS           YARI ROAD VERSOVA ANDHERI W             231420955                                                               R08092010600019699000454054604020000255400000                              M 0400000000000231420955G  20101008                                27619900  00                                   4001045112441308102010                                                     M              45B1B19141
10218894280320007BANK OF INDIA AMRUT TARA                G S CSTAFF COOP HSG SOC                 YARI RD VERSOVA ANDHERI W               231466468                                                               R08092010600022499000720603005010000731800000                              M 0400000000000231466468K  20101008                                75299900  00                                   4001045112441808102010                                                     M              54A0908142
10220416380320007SHASHIKANT PARAB                        B O I AMRUT TARA SOC G 9                2ND FLR YARI RD ANDHERI W               231420189                                                               R08092010600019499000454170105020000294600000                              M 0400000000000231420189G  20101008                                31599900  00                                   4001045112442208102010                                                     M              4BAFBF8143
10220425580320007BANK OF INDIA                           15 AMRUT TARA STAFF CHS LTD             YARI RD VERSOVA G WING ANDHERI W        231421742                                                               R08092010600030499000454086806010000438900000                              M 0400000000000231421742G  20101008                                46889900  00                                   4001045112443008102010                                                     M              6054647144
10220418180320007DATTATRAYA SAMANT                       G-11 AMRUT TARA BOI STAFF CHS           YARI ROAD VERSOVA                       231420967                                                               R08092010600008699000454052306020000138000000                              M 0400000000000231420967G  20101008                                14789900  00                                   4001045112443408102010                                                     M              3470705145
10220428180320007BANK OF INDIA                           16 AMRUT TARA STAFF CHS LTD             YARI RD VERSOVA G WING ANDHERI W        231421002                                                               R08092010600012199000454044206030000179000000                              M 0400000000000231421002G  20101008                                19349900  00                                   4001045112443908102010                                                     M              4D19193146
10220429780320007PRAKASH PANCHBHAI                       G-17 AMRUT TARA CHS LTD                 YARI RD VERSOVA                         231421731                                                               R08092010600010599000454100707010000178900000                              M 0400000000000231421731G  20101008                                19239900  00                                   4001045112444308102010                                                     M              4F3ADB1147
10220433680320007SMITA PITALE                            G-20 AMRUT TARA STAFF CHS LTD           YARI ROAD  VERSOVA ANDHERI W            231421754                                                               R08092010600000799000454162507020000003200000                              M 0400000000000231421754G  20101008                                  359900  00                                   4001045112444608102010                                                     M              28CCCCE148
15079231780320007MR.ANIL SHAHASRABUDHE                   G-14     AMRUT TARA STAFF CHS LTD       YARI RD VERSOVA                         231420992                               ANDHERI W                       R08092010600000099000454059407030000178500000                              M 0400000000000231420992G  20101008                                17859900  06ZN                                 4001045112450008102010                                                     M              13F7D7D149
10220431880320007BANK OF INDIA                           19 AMRUT TARA STAFF CHS LTD             YARI RD VERSOVA G WING ANDHERI W        231421723                                                               R08092010600027199000454074808010000209400000                              M 0400000000000231421723G  20101008                                23829900  00                                   4001045112450508102010                                                     M              5F3B3B1150
10220422480320007BANK OF INDIA                           13 AMRUT TARA STAFF CHS LTD             YARI RD VERSOVA G WING ANDHERI W        231420944                                                               R08092010600019899000454045908020000410000000                              M 0400000000000231420944G  20101008                                43229900  00                                   4001045112450908102010                                                     M              4E8A8AA151
10220431080320007SATHYAVATHI PANCHBHAI                   G-18 BOI AMRUTTARA CHS SOC              YARI ROAD   VERSOVA                     231421715                                                               R08092010600011999000453411108030000252800000                              M 0400000000000231421715G  20101008                                26669900  00                                   4001045112452108102010                                                     M              4753537152
25000342580320007RELIANCE COMMUNICATIONS LTD             FORTUNE 2000 BLDG 2ND FLOOR             C-3 'G' BLOCK BANDRA KURLA COMPLEX      231416365                               BANDRA (E)                      C08092010600001799000689957409010000105300000                              M 0400000000000231416365K  20101008                                10719900  00                                   4001045112452608102010                                                     M              2216563153
10218309280320007BANK OF INDIA A STAFF CHS LTD           W P YARI ROAD VERSOVA ANDHERI W                                                 231443834                                                               R08092010600176199000820688909020013630200000                              M 0400000000000231443834   20101008                              1379819900  00                                   4001045112453708102010                                                     M              8602122154
10212994280320008PRADEEP PARAB                           H 4 AMRUT TARA BOI STAFF COOP HSG       SOC LTD YARI RD VERSOVA                 231428415                                                               R08092010600012799000454122201010000198800000                              M 0400000000000231428415G  20101008                                22429900  00                                   4001045112470508102010                                                     M              4C28280155
10212992880320008BANK OF INDIA AMRUT TARA SOC            3 16 18 19 AMRUT TARA H WIN             YARI ROAD VERSOVA BLDG A ANDHERI W      231427685                                                               R08092010600021599000454056001020000180000000                              M 0400000000000231427685G  20101008                                20339900  00                                   4001045112470908102010                                                     M              58BC9C9156
10212996980320008BANK OF INDIA AMRUT TARA SOC            6 16 18 19 AMRUT TARA H WIN             YARI ROAD VERSOVA BLDG A ANDHERI W      231428442                               OPP. CHILDREN WELFARE SOCIETY   R08092010600013599000454104302010000361900000                              M 0400000000000231428442G  20101008                                37669900  00                                   4001045112471808102010                                                     M              4E2A4A0157
10212990980320008BANK OF INDIA AMRUT TARA SOC            2 16 18 19 AMRUT TARA H WIN             YARI ROAD VERSOVA BLDG A ANDHERI W      231427676                                                               R08092010600006999000453418002020000106100000                              M 0400000000000231427676G  20101008            01                  11029900  00                                   4001045112472508102010     111                                             M              3D99B9B158
15082997480320008MS HEENA MUKADAM                        FLAT-H-15    BANK OF INDIA AMRUT TARA CHYARI RD VERSOVA                         231429244                               ANDHERI (WEST)                  R08092010600014899000453384803010000141600000                              M 0400000000000231429244G  20101008                                15399900  00                                   4001045112473008102010                                                     M              4723030159
10213200080320008BANK OF INDIA AMRUT TARA SOC            8 16 18 19 AMRUT TARA H WIN             YARI ROAD VERSOVA BLDG A ANDHERI W      231428424                                                               R08092010600008699000454061703020000125600000                              M 0400000000000231428424G  20101008                                13359900  00                                   4001045112473408102010                                                     M              37F3D3D160
10219385080320008BANK OF INDIA                           S C AMRUT TARA SOC WING H               YARI RD VERSOVA ANDHERI W               231420147                                                               R08092010600017999000453251704010000271800000                              M 0400000000000231420147G  20101008                                30869900  00                                   4001045112474108102010                                                     M              4DC9D9E161
15113370880320008MRS.DEVYANI WORLIKAR                    H-1  AMRUTTARA CHS. LTD.                VERSOVA                                 231427693                               YARI ROAD ANDHERI W             R08092010600015999000453280304020000227300000                              M 0400000000000231427693G  20101008                                24249900  00                                   4001045112474608102010                                                     M              4682B2A162
10212998580320008RAMANBHAI SOLANKI                       H-7 B O I STAFF AMRUT-TARA CHS LTD      YARI RD VERSOVA ANDHERI W               231428432                                                               R08092010600006199000454081204030000165400000                              M 0400000000000231428432G  20101008                                18559900  00                                   4001045112475008102010                                                     M              3B7F4F5163
10213204480320008KAILAS HINGE                            H-11 16 YARI RD ANDHERI W                                                       231428458                               nr. c.w.c. shcool               R08092010600017499000491500905010000120200000                              M 0400000000000231428458G  20101008                                13989900  00                                   4001045112475608102010                                                     M              45E1F1C164
10213214280320008BANK OF INDIA AMRUT TARA SOC            17 16 18 19 AMRUT TARA H WIN            YARI ROAD VERSOVA BLDG A ANDHERI W      231429234                                                               R08092010600014399000454105405020000262000000                              M 0400000000000231429234G  20101008                                27759900  00                                   4001045112480508102010                                                     M              48BC9C9165
10213206080320008GAJANAN PADHYE                          H-12 YARI ROAD VERSOVA                  AMRUT TARA CHS                          231428475                                                               R08092010600014899000454081005030000175100000                              M 0400000000000231428475G  20101008                                18739900  00                                   4001045112481108102010                                                     M              44B1509166
10212994980320008BANK OF INDIA AMRUT TARA SOC            5 16 18 19 AMRUT TARA H WIN             YARI ROAD VERSOVA BLDG A ANDHERI W      231427704                                                               R08092010600022599000454080606010000273300000                              M 0400000000000231427704G  20101008                                29619900  00                                   4001045112481508102010                                                     M              590D2D2167
10213218480320008SANDHYA PREMANAND                       H 20 AMRIT TARA B O I SOC               YARI ROAD VERSOVA ANDHERI W             231429253                               NEAR SHALIMAR BAKERY            R08092010600014199000454044906020000193200000                              M 0400000000000231429253G  20101008                                20849900  00                                   4001045112483008102010                                                     M              48FCACD168
10213207380320008BANK OF INDIA AMRUT TARA SOC            13 16 18 19 AMRUT TARA H WIN            YARI ROAD VERSOVA BLDG A ANDHERI W      231428494                                                               R08092010600014699000741871106030000375400000                              M 0400000000000231428494K  20101008                                39269900  00                                   4001045112483508102010                                                     M              4B4F6F6169
10213203380320008SURESH TANNU                            SURVEY NO 16 H NO 10 AMRUT TARA CHS     LTD YARI RD ANDHERI W                   231428467                                                               R08092010600007099000454162107010000105900000                              M 0400000000000231428467G  20101008                                11769900  00                                   4001045112483908102010                                                     M              383C3C1170
10213215180320008RAMAKRISHNA BYNDOOR                     H-18 YARI ROAD VERSOVA                                                          231429213                                                               R08092010600025699000453605807020000338300000                              M 0400000000000231429213G  20101008                                36499900  00                                   4001045112484408102010                                                     M              54B1409171
10213201880320008BANK OF INDIA AMRUT TARA SOC            9 16 18 19 AMRUT TARA H WIN             YARI ROAD VERSOVA BLDG A ANDHERI W      231428485                                                               R08092010600000599000454108407030000011700000                              M 0400000000000231428485G  20101008                                 1269900  00                                   4001045112485008102010                                                     M              2763434172
10213208980320008BANK OF INDIA AMRUT TARA SOC            14 16 18 19 AMRUT TARA H WIN            YARI ROAD VERSOVA BLDG A ANDHERI W      231429225                                                               R08092010600014899000454125508010000198200000                              M 0400000000000231429225G  20101008                                21449900  00                                   4001045112485608102010                                                     M              4A4E6E6173
10213212780320008BANK OF INDIA AMRUT TARA SOC            16 16 18 19 AMRUT TARA H WIN            YARI ROAD VERSOVA BLDG A ANDHERI W      231428505                                                               R08092010600031399000453354608020000362600000                              M 0400000000000231428505G  20101008                                39339900  00                                   4001045112490108102010                                                     M              69DDFDF174
10213216180320008YESHWANT SATAM                          H-19 B I AMRUT TARA C H S LTD           YARI RD VERSOVA                         231429291                                                               R08092010600007099000453652908030000101500000                              M 0400000000000231429291G  20101008                                10899900  00                                   4001045112491108102010                                                     M              30A4B48175
25000342580320008RELIANCE COMMUNICATIONS LTD             FORTUNE 2000 BLDG 2ND FLOOR             C-3 'G' BLOCK BANDRA KURLA COMPLEX      231416355                               BANDRA (E)                      C08092010600002099000684348208040000088600000                              M 0400000000000231416355K  20101008                                 9069900  00                                   4001045112491908102010                                                     M              21A5E58176
10215460880320009MANOJ PAHWA                             61  SAI SHAKTI CHS LTD                  10  YARI ROAD  VERSOVA ANDHERI W        231442900                               NR. AMRIT TARA BLDG             R08092010600050399000454081301010000679700000                              M 0400000000000231442900G  20101008                                73899900  00                                   4001045112153508102010                                                     M              6367474177
10217654180320009HARSHA ANA G MISRA                      SAI SHAKTI APPT                         FLAT NO 64 VEPNA YARI RD ANDHERI        231443847                                                               R08092010600012699000454080201020000238100000                              M 0400000000000231443847G  20101008                                26729900  00                                   4001045112154108102010                                                     M              4004042178
10215463480320009JOSEPH SMT A MICHAEL                    FLAT NO 63 6TH FLY YARI ROAD            SAI SHAKTI APT VERSOVA ANDHERI          231443812                                                               R08092010600035299000453715801030000384900000                              M 0400000000000231443812G  20101008                                42659900  00                                   4001045112155308102010                                                     M              6074545179
10215454980320009H BAMANIA                               FLAT NO 51 SAI SHAKTI C H S             10 YARI ROAD VERSOVA ANDHERI W          231442863                               NEAR SHALIMAR                   R08092010700029699000752567602010002367400000                              M 0400000000000231442863   20101008                               240209900  00                                   4001045112155808102010                                                     M              5A2E1E0180
10215455680320009VIRMALA BAMANIA                         SAI SHAKTI CHS LTD  FLAT-52             PLOT-10 YARI LANE VERSOVA               231441783                                                               R08092010600003899000454017302020000086900000                              M 0400000000000231441783G  20101008                                 9029900  00                                   4001045112160308102010                                                     M              3420200181
10215458980320009M S MAYFAIR HOUSING                     SAI SHAKTI APRTS FLAT-54                PLOT-10 YARI LANE VERSOVA               231442819                                                               R08092010600040999000453671902030000470400000                              M 0400000000000231442819G  20101008            01                  53239900  00                                   4001045112161308102010       4                                             M              61E5D5C182
10215450080320009MANY SAHADEVAN                          41 SAI SHAKTI CHS LTD                   10 YARI RD VERSOVA ANDHERI W            231441744                                                               R08092010600009999000454012103010000191600000                              M 0400000000000231441744G  20101008                                20329900  00                                   4001045112161808102010                                                     M              3B6F7F4183
10215451980320009GAURISH MAMTA G TALPADE                 42 SAI SHAKTI APTS                      10TH YARI RD VERSOVA ANDHERI W          231441750                                                               R08092010600022399000454010703020000344100000                              M 0400000000000231441750G  20101008                                37079900  00                                   4001045112162708102010                                                     M              5E9A9AB184
10215452580320009M S MAYFAIR HOUSING                     SAI SHAKTI APRTS FLAT-43                PLOT-10 YARI LANE VERSOVA               231441756                                                               R08092010600020999000454014003030000237100000                              M 0400000000000231441756G  20101008                                25689900  00                                   4001045112163308102010                                                     M              5CC8C8E185
10215445380320009VINAY DHANASHREE SAPRU                  SAI SHAKTI APRTS FLAT-32                PLOT-10 YARI LANE VERSOVA               231441720                                                               R08092010600018699000454016104010000257100000                              M 0400000000000231441720G  20101008                                27709900  00                                   4001045112170008102010                                                     M              4541716186
10215446080320009M S MAYFAIR HOUSING                     SAI SHAKTI APRTS FLAT-33                PLOT-10 YARI LANE VERSOVA               231441763                               NR AMRUT TARA HSG SOC           R08092010600049299000460435204020000617200000                              M 0400000000000231441763G  20101008                                67099900  00                                   4001045112170708102010                                                     M              6CA8F88187
10270974780320009KENNETH DAVID                           SAI SHAKTI APRTS FLAT-34                PLOT-10 YARI ROAD.VERSOVA ANDHERI W     231441770                                                               R08092010600030999000453670205010000429700000                              M 0400000000000231441770G  20101008                                44369900  00                                   4001045112171308102010                                                     M              6743736188
10215439180320009J CASTELLINO L CASTELLINO               FLAT-22 SAI SHAKTI CHS LTD              PLOT 10 YARI ROAD VERSOVA               231441714                               next to amrut tata              R08092010600026699000453670705020000363700000                              M 0400000000000231441714G  20101008                                39139900  00                                   4001045112172108102010                                                     M              5672125189
15127855180320009SMT.BINDU SINGH                         FLAT-23    SAI SHAKTI CHS LTD.          PLOT-10 NR,YARI LANE VERSOVA            231441725                               ANDHERI(W)                      R08092010600017499000453758605030000246900000                              M 0400000000000231441725G  20101008                                26669900  00                                   4001045112172508102010                                                     M              4612323190
15039141380320009BINDU SINGH                             FLATNO.24    SAI SHAKTI CHS LTD         PLOT-10 YARI RD VERSOVA ANDHERI W       231441733                                                               R08092010600066599000454118706010000720900000                              M 0400000000000231441733G  20101008                                81289900  00                                   4001045112173108102010                                                     M              63C7F7E191
10215431580320009H PUNWANI                               FLAT 11 SAI SHAKTI APARTMENT            PLOT 10  YARI ROAD ANDHERI W            231440825                               NEAR AMRUTDHARA SOCIETY         R08092010600012899000454021206020000236800000                              M 0400000000000231440825G  20101008                                24809900  00                                   4001045112174008102010                                                     M              480C5C2192
10215432880320009VIJAYA DANDEKAR                         SAI SHAKTI APARTMENTS FLAT 12           PLOT-10 YARI RD  VERSOVA ANDHERI W      231440889                                                               R08092010600020099000453670406030000248600000                              M 0400000000000231440889G  20101008                                27209900  00                                   4001045112174508102010                                                     M              4266464193
10215434180320009MOHINDER MANHAS                         SAI SHAKTI APTS FLAT-13                 PLOT 10 YARI LANE VERSOVA B''''BAY      231440860                                                               R08092010600025999000453606006040000297700000                              M 0400000000000231440860G  20101008                                31309900  00                                   4001045112175008102010                                                     M              5CD8D8F194
10215435380320009MOHINDER MANHAS                         FL NO 14 SAI SHAKTI APTTS               YARI ROAD VERSOVA ANDHERI W             231440882                                                               R180920107000122  000783597907010002503700000                              M 0400000000000231440882   20101008                               252579900  H4                                   4001045112180408102010                                                     M              4AFEFED195
10215453980320009INDRA COSTA                             FLAT NO 44 SAI SHAKTI CHS LTD           10 YARI RD VERSOVA ANDHERI W            231441808                                                               R180920107000139  000774737807020001121700000                              M 0400000000000231441808   20101008                               114899900  H4                                   4001045112181408102010                                                     M              4400002196
10215464780320009M S MAYFAIR HOUSING                     SAI SHAKTI APRTS FLAT-73                PLOT-10 YARI LANE VERSOVA               231443822                                                               R08092010600027599000453714608020000491300000                              M 0400000000000231443822G  20101008                                55459900  H5                                   4001045112182308102010                                                     M              5F9B9BB197
10215462080320009ANIL JOSHI                              FLAT-62 SAI SHAKTI CHS LTD PLOT 10      YARI RD VERSOVA ANDHERI W               231442883                               NR. AMRIT TARA BLDG             R08092010600027199000454145309010000355600000                              M 0400000000000231442883G  20101008                                38979900  00                                   4001045112182908102010                                                     M              5430601198
15072016980320009JAYRAM HINGORANI                        FLAT-53    SAI SHAKTI CHS LTD           PLOT-10 YARI ROAD VERSOAVA              231442871                               ANDHERI WEST                    R08092010600005399000454036109020000027400000                              M 0400000000000231442871G  20101008                                 3169900  00                                   4001045112183308102010                                                     M              391D3D3199
10215436980320009KANAIYO UDHWANI                         21 SAI SHAKTI APTS                      VERSOVA YARI ROAD ANDHERI W             231440851                               near amrut dhara soc            R180920107000642  000777289610010001582700000                              M 0400000000000231440851   20101008                               160729900  00                                   4001045112183908102010                                                     M              6B5F1F7200
