10079848952708001SURYAKANT BOBATE                            SHIVAJI NAGAR PUMP HOUSE            JIJAMATA RD ANDHERI E                   229760892                                                               R230820106000146990004795386010100001289                                   M 0600000000000229760892G  20100924
10080922852708001PANCHAM KEWAT                               SHIVAJI NGR PUMP HOUSE                                                      229762713                               NR HANGER NGR ANDHERI           R230820106000052990004795237010200000445                                   M 0600000000000229762713G  20100924
15119562452708001MR. SOMA GOSAVI                             MANIYAR CHAWL SHIVAJI NAGAR         PUMP HOUSE JIJAMATA RD                  229760901                               ANDHERI EAST.                   R230820106000192990004795229020100001523                                   M 0600000000000229760901G  20100924
10081574252708001LEELA PATADE                                SHIVAJI NAGAR PUMP HOUSE            JIJAMATA RD ANDHERI EAST                229762719                                                               R230820106000158990004795398020200001427                                   M 0600000000000229762719G  20100924
15070620352708001HARISH PAWASKAR                             SHIVAJI NAGAR PUMP-HOUSE            JIJAMATA RD                             229761910                               ANDHERI EAST                    R230820106000100990004795327030100000929                                   M 0600000000000229761910G  20100924
10082659752708001GAJANAN SHINDE                              158 MANIYARCHL SHIVAJI NG           JIJAMATA MARG ANDHERI E                 229760882                                                               R230820106000164990004795399030200001310                                   M 0600000000000229760882G  20100924
10080493152708001PYARELAL NABIK                              SHIVAJI NAGAR PUMPHOUSE                                                     229761981                               NR HANGER NAGAR ANDHERI         R230820106000092990004795226040100000585                                   M 0600000000000229761981G  20100924
10080723852708002SURESH PARAB                                R-7 MANIYAR CHL PUMP HSE J M RD     ANDHERI E                               229761932                               NR HANJAR NGR                   R230820106000078990006967044010100003069                                   M 0600000000000229761932K  20100924
10086447652708002SARITA SAWANT                               MANIYAR CHAWL                       PAMP HOUSE JIJAMATA MARG ANDHERI E      229764443                                                               R230820106000186990007004662010200008207                                   M 0600000000000229764443K  20100924
10086460852708002NAVDEEP SINGH                               MANIYAR CAHWL                       PUMP HOUSE JIJAMATA MARG ANDHERI E      229765127                               NR MAHARASTRA GENERAL CHL       R230820106000198990006967048010300008030                                   M 0600000000000229765127K  20100924
10086437952708002ANJALI PARAB                                MANIYAR CHAWL                       PAMP HOUSE JIJAMATA MARG ANDHERI E      229764412                                                               R230820106000137990005387812010400007472                                   M 0600000000000229764412K  20100924
10082634852708002RICHARD RODIGUES                            MANIYAR CHAWAL ANDHERI EAST                                                 229757794                               OPP HANGAR NAGAR PUMP HOUSE     R230820106000067990006979066010500006782                                   M 0600000000000229757794K  20100924
10086441952708002MOHAN GURAV                                 MANIYAR CHL PUMP HOUSE              JIJAMATA MARG ANDHERI E                 229764425                                                               R230820106000059990006979134020100002525                                   M 0600000000000229764425K  20100924
15018024052708002KUSUM PADWAL                                MANIYAR CHAWL                       PUMP HOUSE JIJAMATA MARG ANDHERI E      229764506                                                               R230820106000105990006979159020200005625                                   M 0600000000000229764506K  20100924
10082648752708002MOHD M SHAIKH                               MANIYAR CHL JIJAMATA MRG PUMPHOUSE  ANDHERI E                               229760832                               xxxx                            R230820106000153990007275231020300005427                                   M 0600000000000229760832K  20100924
10086445752708002GIGA VAGHELA                                MANIYAR CHAWL                       PAMP HOUSE JIJAMATA MARG ANDHERI E      229764432                               ANDHERI EAST                    R230820106000201990006979135020400007983                                   M 0600000000000229764432K  20100924
10086456152708002PUNDALIK SAWARKAR                           MANIYAR CHAWL                       PAMPAHOUSE JIJAMATA MARG ANDHERI E      229764482                                                               R230820106000174990007004805020500007815                                   M 0600000000000229764482K  20100924
10086464052708002MOHAN GOSAVI                                MANIYAR CHAWL                       PUMP HOUSE JIJAMATA MARG ANDHERI E      229765144                                                               R230820106000128990007004953030100005141                                   M 0600000000000229765144K  20100924
