10041182080604001M S AJMERA HOUSING CORPN                B MNT BLDG 31 32   38 SHASTRI NGR       ANDHERI  W                              187595778                               OFF RTO RD                      R17072009700133599000753457501010008254200000                              M 0400000000000187595778   20090819                               838309900  00                                   4001155810252217082009                                                     M              73271701
10036502380604001M S AJMERA HOUSING CORPN                WATER PUMP BLDG 32 BLUE MOUNT           SHASTRI NAGAR ANDHERI WEST              187592563                               OFF J P ROAD                    R17072009700148099000772660702010006930000000                              M 0400000000000187592563   20090819                               708949900  00                                   4001155810253017082009                                                     M              74F0B0D2
10036500880604001M S AJMERA HOUSING CORPN                WATER PUMP BLDG 38 ROYAL RESO           SHASTRI NAGAR ANDHERI WEST              187592571                               OFF J P ROAD                    R17072009700149499000754841603010070351700000                              M 0400000000000187592571   20090819                              7049169900  00                                   4001155810254417082009                                                     M              77430363
10036099080604001M S AJMERA HOUSING CORPN                WATER PUMP BLDG 31  MONTREAL            SHASTRI NAGAR                           187592063                               OFF J P ROAD A                  R17072009700254499000754841504010013328600000                              M 0400000000000187592063   20090819                              1359479900  00                                   4001155810260617082009                                                     M              86A28284
10041183680604001M S AJMERA HOUSING CORPN                W P BLDG 31 32   38 SHASTRI NGR         ANDHERI  W                              187595766                               OFF RTO RD                      R17072009700000099000791169605010000000000000                              M 0400000000000187595766   20090819                                   09900  06Z                                  4001155810261217082009                                                     M              1B1F1F35
15104976580604002CHANDRA HINGORANI                       2202-C-32 2202-C-32   BLUE MOUNTAIN TOWESHASHTRI NAGAR                          187609155                               ANDHERI W                       R050820097000100  000790301701020000000000000New Meter                     M 0400000000000187609155   20090819                         002     187990099H3                                   4001155810294317082009                                                     M              3DA9F986
10041116280604002LAXMAN JAIN                             303  C-32 BLUE MOUNTAIN SHASTRI NGR     ANDHERI  W                              187593261                               OFF J P ROAD                    R17072009700034099000752972001010002271200000                              M 0400000000000187593261   20090819                               230399900  00                                   4001155810283417082009                                                     M              63777757
10041169880604002AJMERA HOUSING CORPORATION              1802 TWR 32 MANTREAL OFF                SHASTRI NGR 4 BUNGLOWS ANDHERI W        187595274                                                               R17072009700000399000753172002010002438500000                              M 0400000000000187595274   20090819                               243869900  00                                   4001155810285917082009                                                     M              21451568
10041171980604002AJMERA HOUSING CORPORATION              1902 TWR 32 MANTREAL OFF                SHASTRI NGR 4 BUNGLOWS ANDHERI W        187595252                                                               R17072009700002499000753169802020000667600000                              M 0400000000000187595252   20090819                                66769900  06ZN                                 4001155810291017082009                                                     M              2682D2A9
15102086480604002CHANDRA HINGORANI                       1702, 1702,   C - 32,BLUE MOUNTAINS TOWEANDHERI (W)                             187609168                               SHASTRI NAGAR,                  R17072009700024699000789850303010000033200000                              M 0400000000000187609168   20090819                                 5449900  00                                   4001155810295617082009                                                     M              576353410
10041164780604002AJMERA HOUSING CORPORATION              1602 TWR 32 MANTREAL OFF                SHASTRI NGR 4 BUNGLOWS ANDHERI W        187595213                                                               R17072009700035699000786918203020000153900000                              M 0400000000000187595213   20090819                                17939900  00                                   4001155810300117082009                                                     M              6F4B6B611
10041163280604002AJMERA HOUSING CORPORATION              1504 TWR 32 MANTREAL OFF                SHASTRI NGR 4 BUNGLOWS ANDHERI W        187595220                                                               R17072009700018699000753160204010001118700000                              M 0400000000000187595220   20090819                               113799900  00                                   4001155810300817082009                                                     M              4F7B5B512
15023383980604002MR.HARSHWARDHAN S. MRS ESHITA H.DESHMUKHC-32/1503    BLUE MOUNTAINS TOWER CHS. LSHASTRI NGR                             187594654                               4 BUNGLOWS ANDHERI W            R17072009700025099000753142805010001385100000                              M 0400000000000187594654   20090819                               141139900  00                                   4001155810302017082009                                                     M              5682E2A13
10041156180604002AJMERA HOUSING CORPORATION              1402 TWR 32 MANTREAL OFF                SHASTRI NGR 4 BUNGLOWS ANDHERI W        187594686                               SHASTRI NGR                     R17072009700099699000753128606010003419900000                              M 0400000000000187594686   20090819                               351999900  00                                   4001155810302517082009                                                     M              7F3B7B114
10041160380604002AJMERA HOUSING CORPORATION              1502 TWR 32 MANTREAL OFF                SHASTRI NGR 4 BUNGLOWS ANDHERI W        187594658                               behind fame adlabs              R17072009700030999000753135506020001769000000                              M 0400000000000187594658   20090819                               180629900  00                                   4001155810303117082009                                                     M              671383315
10041114480604002AJMERA HOUSING CORPORATION              302 TWR 32 MANTREAL OFF J               SHASTRI NGR 4 BUNGLOWS ANDHERI W        187593270                               FAME ADD LAB BHND               R17072009700040699000753061807010001800000000                              M 0400000000000187593270   20090819                               183439900  00                                   4001155810303917082009                                                     M              612555016
15071367880604002ROLEE SAKSENA                           304 304   BLUE MOUNTAIN,SHASHTRI NGR LOKANDHERI WEST                            187609721                               BEHIND FAME ADLAB               R17072009700024299000781292607020000378500000                              M 0400000000000187609721   20090819                                40689900  00                                   4001155810304417082009                                                     M              586C4C417
10041113080604002AJMERA HOUSING CORPORATION              204 TWR 32 MANTREAL OFF J,BLUE MOUNT    SHASTRI NGR 4 BUNGLOWS ANDHERI W        187592585                                                               R17072009700019399000753060308010000949800000                              M 0400000000000187592585   20090819                                95999900  00                                   4001155810305017082009                                                     M              4C5818718
10041111280604002AJMERA HOUSING CORPORATION              203 TWR 32 MANTREAL OFF J               SHASTRI NGR 4 BUNGLOWS ANDHERI W        187592598                                                               R17072009600057299000770964308020002251600000                              M 0400000000000187592598   20090819            01                 230069900  00                                   4001155810310817082009    3006                                             M              68BCEC919
10041109980604002AJMERA HOUSING CORPORATION              202 TWR 32 MANTREAL OFF J               SHASTRI NGR 4 BUNGLOWS ANDHERI W        187593209                               NEAR CITI MALL                  R17072009700042999000782413809010000659900000                              M 0400000000000187593209   20090819                                71619900  00                                   4001155810311417082009                                                     M              60A4D4820
10041108480604002VINOD TALREJA                           C-32 104 BLUE MOUNTAIN                  SHASTRI NGR 4 BUNGLOWS ANDHERI W        187593219                                                               R17072009700018799000752982910010001977100000                              M 0400000000000187593219   20090819            01                 200069900  00                                   4001155810313017082009    2006                                             M              413505121
10041106780604002AJMERA HOUSING CORPORATION              103 TWR 32 MANTREAL OFF J               SHASTRI NGR 4 BUNGLOWS ANDHERI W        187593227                                                               R17072009700007199000782286111010000700600000                              M 0400000000000187593227   20090819                                71189900  00                                   4001155810313417082009                                                     M              3F0B2B222
10041105380604002AJMERA HOUSING CORPORATION              102 TWR 32 MANTREAL OFF J               SHASTRI NGR 4 BUNGLOWS ANDHERI W        187592522                                                               R17072009700048499000753050611020002257000000                              M 0400000000000187592522   20090819            01                 230169900  00                                   4001155810314817082009    2306                                             M              6692C2B23
10041168380604002AJMERA HOUSING CORPORATION              1703 TWR 32 MANTREAL OFF                SHASTRI NGR 4 BUNGLOWS ANDHERI W        187594694                               BEHIND FAME ADLABS ANDHERI      R17072009700095599000753159912010006486300000                              M 0400000000000187594694   20090819                               659049900  00                                   4001155810315817082009                                                     M              7B8FEFA24
10041148880604002AJMERA HOUSING CORPORATION              1104 TWR 32 MANTREAL OFF                SHASTRI NGR 4 BUNGLOWS ANDHERI W        187594130                                                               R17072009700017999000753056812020000949700000                              M 0400000000000187594130   20090819                                96969900  00                                   4001155810320317082009                                                     M              407424525
15045434780604002CHHAYA KARMOKAR                         804,    BLUE MOUNTAINS TOWER CHS LTD.,  C-32, SHASTRI NGR, NR LOKHANDWALA COMPLE187595794                               ANDHERI (W)                     R17072009700025699000775174713020000910800000                              M 0400000000000187595794   20090819                                93549900  00                                   4001155810321517082009                                                     M              522656026
10273228780604002MINIT DESAI                             1803 TWR 32 BLUE MOUNTAIN SHASTRI       NGR OFF. J. P. RD ANDHERI W             187595260                                                               R17072009700039799000753169914010002788700000                              M 0400000000000187595260   20090819                               282869900  00                                   4001155810322517082009                                                     M              6D6969427
15045428180604002MOHAN KARMOKAR                          FLAT N 803    BLUE MOUNTAIN SHASTRI NGR ANDHERI(W)                              187594115                               NR LOKHANDWALA COMPLEX          R17072009700010999000753154614020000592800000                              M 0400000000000187594115   20090819                                60479900  00                                   4001155810322917082009                                                     M              43C797E28
15009684080604002MUKESH VASANDANI                        C-32/1903 BLUE MOUNTAIN TOWERS          SHASTRI NGR 4 BUNGLOWS                  187595240                               ANDHERI (W)                     R17072009700075699000753169514030003461700000                              M 0400000000000187595240   20090819                               351919900  00                                   4001155810323917082009                                                     M              7A5E7E729
15062049880604002MRS NEELAM SHAMA                        FL NO 2003    BLUE MOUNTAINS TOWER CHS LC-32,SHASTRI NAGAR                      187595722                               ANDHERI(WEST)                   R17072009700031599000753171015010002280800000                              M 0400000000000187595722   20090819                               231299900  00                                   4001155810324417082009                                                     M              6F4B6B630
10270866080604002PANKAJ KOTWAL & OTHERS                  C-32/1003, BLUE MOUNTAIN                SHASTRI NGR 4 BUNGLOWS ANDHERI W        187594173                                                               R17072009700035399000753140916010002571000000                              M 0400000000000187594173   20090819                               261049900  00                                   4001155810324917082009                                                     M              6FCBFBE31
10041178580604002AJMERA HOUSING CORPORATION              2103 TWR 32 MANTREAL OFF                SHASTRI NGR 4 BUNGLOWS ANDHERI W        187595301                               NEAR LOKHANDWALA                R17072009700120399000753172516020007353200000                              M 0400000000000187595301   20090819                               746549900  00                                   4001155810330017082009                                                     M              760272232
15103373580604002MRS.RASHMI NIHALANI                     2203 BLUE MOUNTAINS CHS. LTD.           SHASTRI NAGAR                           187595289                               LOKHANDWALA COMP. ANDHERI W     R17072009700050499000789736217010000050400000                              M 0400000000000187595289   20090819                                13069900  00                                   4001155810330517082009                                                     M              6E6A3A433
10041166880604002AJMERA HOUSING CORPORATION              1603 TWR 32 MANTREAL OFF                SHASTRI NGR 4 BUNGLOWS ANDHERI W        187594702                                                               R17072009700034199000753059317020004411700000                              M 0400000000000187594702   20090819                               444049900  00                                   4001155810330917082009                                                     M              600454234
10041185480604002M S AJMERA HSG CORPORN                  FL-1004 T-32 BLUE MOUNTAI               SHASTRI NGR ANDHERI WEST                187595745                               NR LOKHANDWALA CPX              R17072009700043199000760155717030002504200000                              M 0400000000000187595745   20090819                               254389900  00                                   4001155810331717082009                                                     M              6DE9B9C35
15046215480604002MR.SHAKIL A.SHAH MISS.NAFISA S. SHEIKH  C-32/402    BLUE MOUNTAIN TOWER CHS.    SHASTRI NGR                             187593251                               ANDHERI W                       R17072009700039499000753060018010000937300000                              M 0400000000000187593251   20090819                                96189900  00                                   4001155810332217082009                                                     M              6DC999E36
10041122480604002AJMERA HOUSING CORPORATION              404 TWR 32 MANTREAL OFF J               SHASTRI NGR 4 BUNGLOWS ANDHERI W        187593625                               bhnd city mall                  R17072009700000099000774410918020000053300000                              M 0400000000000187593625   20090819                                 5339900  06Z                                  4001155810332817082009                                                     M              199DFDB37
10041121080604002DINESH KUKREJA                          403  BLUE MOUNTS CHS LTD                32  SHASTRI NAGAR ANDHERI W             187593241                               OFF J P RD                      R17072009700032999000753057019010002786000000                              M 0400000000000187593241   20090819                               281399900  00                                   4001155810333317082009                                                     M              647040538
15009659480604002S. MERCHANT                             502    BLUE MOUNTAIN, C-32              SHASTRI NGR 4 BUNGLOWS ANDHERI W        187593619                               OFF. J. P. ROAD                 R17072009700054099000753062420010002128200000                              M 0400000000000187593619   20090819                               220609900  00                                   4001155810333817082009                                                     M              6FEBDBC39
15104293980604002BIMLENDRA ROY                           503    TOWER 32, BLUE MOUNTAINS,        OFF. J.P. RD, ANDHERI (WEST)            187593302                               SHSHTRI NAGAR, 4 BANGLOW,       R17072009700000099000753056921010001633900000                              M 0400000000000187593302   20090819                               165019900  H1                                   4001155810334617082009                                                     M              1E3A6A140
15031818680604002MOHAN LAKHWANI                          504 TWR 32    BLUE MOUNTAIN TOWER COOP HANDHERI W                               187593288                               SHASTRI NGR, J.P ROAD           R17072009700022999000753060421020001303500000                              M 0400000000000187593288   20090819                               132729900  00                                   4001155810335517082009                                                     M              5A0E2E241
15015046080604002U.PRABHAKAR BHAT                        FLAT 603    C-32,BLUE MOUNTAIN          SHASTRI NGR, ANDHERI W                  187593668                                                               R17072009700038699000753054122010002152300000                              M 0400000000000187593668   20090819                               218639900  00                                   4001155810340317082009                                                     M              638787A42
15008522680604002RITA D'SOUZA                            602,BLDG C/32,BLUE MOUNTAIN TOWER       SHASTRI NGR 4 BUNGLOWS ANDHERI W        187593279                               OFF J.P.ROAD                    R17072009700015299000753054422020001447200000                              M 0400000000000187593279   20090819                               146229900  00                                   4001155810340817082009                                                     M              4B8FDFA43
15027945180604002MRS SONA & MR KAPIL KUMAR               702-    C-32, BLUE MOUNTAIN             SHASTRI NAGAR                           187593655                               st st adlabs                    R17072009700061299000753062323010001947200000                              M 0400000000000187593655   20090819                               200819900  00                                   4001155810341317082009                                                     M              68ECCCC44
15087123380604002TATA STEEL LIMITED                      604 604   BLUE MOUNTAINS TOWER CO-OP HSGANDHERI(W)                              187587672                               OFF J P ROAD, NR. LOKHANDWALA COR17072009700000099000786407923020000001000000                              M 0400000000000187587672   20090819                                  109900  06Z                                  4001155810341717082009                                                     M              17D393F45
10041133280604002AJMERA HOUSING CORPORATION              703 TWR 32 MANTREAL OFF J               SHASTRI NGR 4 BUNGLOWS ANDHERI W        187593641                                                               R17072009700036399000753053124010001316200000                              M 0400000000000187593641   20090819                               134619900  00                                   4001155810342417082009                                                     M              60E4B4C46
10041135180604002AJMERA HOUSING CORPORATION              704 TWR 32 MANTREAL OFF J               SHASTRI NGR 4 BUNGLOWS ANDHERI W        187593634                                                               R17072009700016799000753048424020001560000000                              M 0400000000000187593634   20090819                               158089900  00                                   4001155810342917082009                                                     M              425606747
15064406280604002MISS.ANISHA GHARAT                      1403 BLUE MOUNTAIN C-32                 4 BUNGLOWS  NR.L.CIRCLE                 187594677                               SHASTRI NGR ANDHERI W           R17072009700027499000753061625010002645400000                              M 0400000000000187594677   20090819                               267209900  00                                   4001155810343617082009                                                     M              52E6B6C48
10041174980604002AJMERA HOUSING CORPORATION              2002 TWR 32 MANTREAL OFF                SHASTRI NGR 4 BUNGLOWS ANDHERI W        187595231                                                               R17072009700071199000753169226010002746000000                              M 0400000000000187595231   20090819                               282209900  00                                   4001155810344117082009                                                     M              6FCBEBE49
10041140680604002AJMERA HOUSING CORPORATION              903 TWR 32 MANTREAL OFF J               SHASTRI NGR 4 BUNGLOWS ANDHERI W        187593693                                                               R17072009700031699000753165427010001794100000                              M 0400000000000187593693   20090819                               182859900  00                                   4001155810344617082009                                                     M              63E7B7C50
10041141880604002AJMERA HOUSING CORPORATION              904 TWR 32 MANTREAL OFF J               SHASTRI NGR 4 BUNGLOWS ANDHERI W        187593680                                                               R17072009700023599000753130027020002326300000                              M 0400000000000187593680   20090819                               235469900  00                                   4001155810345217082009                                                     M              51B5E5951
15001539480604002NASIR ANSARI                            C-32/1102    BLUE MOUNTAIN TOWER        SHASTRI NGR 4 BUNGLOWS ANDHERI W        187594162                               OFF J.P. ROAD                   R17072009700047299000753160928010002056700000                              M 0400000000000187594162   20090819                               209529900  00                                   4001155810345717082009                                                     M              63B7E7952
10041143980604002AJMERA HOUSING CORPORATION              1002 TWR 32 MANTREAL OFF                SHASTRI NGR 4 BUNGLOWS ANDHERI W        187594185                                                               R17072009700052199000753140428020003480000000                              M 0400000000000187594185   20090819                               350399900  00                                   4001155810350217082009                                                     M              6FAB8B853
15086624480604002TATA STEEL LTD.                         1202 BLUE MOUNTANS TOWER CHS.LTD.       SHASTRI NGR .NR.LOKHANDWALA COM.        187594641                               OFF J.P. RD ANDHERI W           R17072009700012599000753129629010000952700000                              M 0400000000000187594641   20090819                                96829900  00                                   4001155810350717082009                                                     M              430777254
10041147680604002AJMERA HOUSING CORPORATION              1103 TWR 32 MANTREAL OFF                SHASTRI NGR 4 BUNGLOWS ANDHERI W        187594153                                                               R17072009700050899000776358230010000306900000                              M 0400000000000187594153   20090819                                35869900  00                                   4001155810351517082009                                                     M              6FDBFBF55
10041138980604002AJMERA HOUSING CORPORATION              902 TWR 32 MANTREAL OFF J               SHASTRI NGR 4 BUNGLOWS ANDHERI W        187593703                                                               R17072009700040499000753161030020001965900000                              M 0400000000000187593703   20090819                               205199900  H6                                   4001155810352417082009                                                     M              6387D7A56
15086626380604002M/S TATA STEEL LIMITED                  1203    BLUE NOUNTAINS CHS LTD          NEAR LOKHANDWALA COMPLEX                187594632                               OFF J. P. ROAD,ANDHERI (WEST0   R17072009700000099000784387731010000000200000                              M 0400000000000187594632   20090819                                   29900  06Z                                  4001155810352817082009                                                     M              14C0B0E57
10041152380604002AJMERA HOUSING CORPORATION              1204 TWR 32 MANTREAL OFF                SHASTRI NGR 4 BUNGLOWS ANDHERI W        187594614                               NEAR BANK OF PUNJAB             R17072009700014899000778518031020000376000000                              M 0400000000000187594614   20090819                                39039900  00                                   4001155810353517082009                                                     M              480C7C258
10041136680604002AJMERA HOUSING CORPORATION              802 TWR 32 MANTREAL OFF J               SHASTRI NGR 4 BUNGLOWS ANDHERI W        187594124                                                               R17072009600078999000771874132010002566900000                              M 0400000000000187594124   20090819                               265429900  00                                   4001155810354117082009                                                     M              734717659
10041177280604002AJMERA HOUSING CORPORATION              2102 TWR 32 MANTREAL OFF                SHASTRI NGR 4 BUNGLOWS ANDHERI W        187595708                                                               R17072009700000199000753172233010000583400000                              M 0400000000000187595708   20090819                                58349900  06ZN                                 4001155810354817082009                                                     M              264212660
10041158580604002AJMERA HOUSING CORPORATION              1404 TWR 32 MANTREAL OFF                SHASTRI NGR 4 BUNGLOWS ANDHERI W        187594670                               INFINITY MALL                   R17072009700041699000753135334010002550200000                              M 0400000000000187594670   20090819                               262419900  00                                   4001155810355917082009                                                     M              61C5B5E61
15049142880604002PREM LALWANEY                           1304 1304   BLUE MOUNTAIN,SHASTRI NGR,  OFF.J.P.RD,ANDHERI (WEST)               187587655                               NEAR LOKHANDWALA COMPLEX        R17072009700000099000778184434020000074900000                              M 0400000000000187587655   20090819                                 7499900  06Z                                  4001155810360417082009                                                     M              1286F6A62
10041103580604002AJMERA HSG CORPORATION                  S C TOWER 32 SHASTRI NGR RTO RD         ANDHERI W                               187592548                               OPP SUNRISE                     R17072009700171999000768043435010009455300000                              M 0400000000000187592548   20090819                               963199900  00                                   4001155810361017082009                                                     M              831737363
15043280480604002RISHAB PARIKH                           1303 1303   TOWER-32,MANTAEL OFF,BLUE MO4BUNGLOWS,ANDHERI WEST                  187588556                               SHASHTRI NGR,                   R17072009700000099000778700635020000638900000                              M 0400000000000187588556   20090819                                63899900  06Z                                  4001155810361717082009                                                     M              18BCEC964
10041102180604002M S AJMERA HOUSING CORPN                32 BLUE MOUNTAIN SHASTRI NGR            ANDHERI W                               187592554                               OFF J P ROAD 4 BUNGLOWS         R17072009700097999000754842036010007240800000                              M 0400000000000187592554   20090819                               734059900  00                                   4001155810363017082009                                                     M              73D787F65
15044670880604003MR.LAKHINDER RANDHAW                    SH1  B25 LOKHANDWALA CIRLCLE,QUEENS     SHASHTRI NAGAR ANDHERI W                187608748                               nr haispar saloon               C17072009700073899000777762701010002269400000                              M 0400000000000187608748   20090819                               234009900  00                                   4001155810394917082009                                                     M              639707B66
10039447980604003NASIM BUDHWANI                          SH 2 BLDG NO B-25 QUEENSLAND CHS        LTD SHASTRI NGR BUNGLOW ANDHERI W       187608741                               nr lokhandwala circle           C17072009600002199000540272701020001598000000                              M 0400000000000187608741K  20090819                               160059900  00                                   4001155810395317082009                                                     M              2ECA5AE67
15014448380604003MS. BHARTI BHATNAGAR                    SH # 3/B25    QUEENSLAND CHS LTD        LOKHANDWALA CIRCLE                      187609148                               SHASTRI NAGAR ANDHERI W         C17072009600039099000540272202010001127400000                              M 0400000000000187609148K  20090819                               115849900  00                                   4001155810395817082009                                                     M              6E9ACAB68
10039450080604003AJMERA HOUSING CORPORATION              SH4  B25 LOKHANDWALA CIRLCLE            SHASHTRI NAGAR ANDHERI W                187609139                                                               C17072009600051299000540273002020002785200000                              M 0400000000000187609139K  20090819                               283149900  00                                   4001155810400317082009                                                     M              6B1F3F369
10039452780604003AJMERA HOUSING CORPORATION              SH6  B25 LOKHANDWALA CIRLCLE            SHASHTRI NAGAR ANDHERI W                187609109                                                               C17072009600040399000539709103010001673200000                              M 0400000000000187609109K  20090819                               171579900  00                                   4001155810400817082009                                                     M              6CD8F8F70
10039451180604003AJMERA HOUSING CORPORATION              SH5  B25 LOKHANDWALA CIRLCLE            SHASHTRI NAGAR ANDHERI W                187609130                                                               C17072009600015299000540224903020000777200000                              M 0400000000000187609130K  20090819                                78809900  00                                   4001155810401217082009                                                     M              498DADA71
10039456080604003AJMERA HOUSING CORPORATION              SH8  B25 LOKHANDWALA CIRLCLE            SHASHTRI NAGAR ANDHERI W                187609203                                                               C17072009600028599000597433704010001240100000                              M 0400000000000187609203K  20090819                               126709900  00                                   4001155810401717082009                                                     M              5BCFEFE72
10039454780604003GURUCHARAN MALHOTRA                     SH NO 7    BLDG B-25 QUEENSLAND CHS LTD SHASTRI NGR LOKHANDWAL ANDHERI W        187608795                                                               C17072009600099499000539708704020006001000000                              M 0400000000000187608795K  20090819                               612259900  00                                   4001155810402217082009                                                     M              7DD989F73
15069694680604004RAJAT PARASHAR                          202 202   BLDG  NO. B-25                ANDHERI(WEST)                           187588532                               SHASTRI NAGAR NR.LOKHANDWALA    C17072009700051199000776800101010001532600000                              M 0400000000000187588532   20090819                               158249900  00                                   4001155810410117082009                                                     M              687C4C574
10037762180604004M S AJMERA HOUSING CORPORATION          BLDG NO B25 SHASTRI NGR LOKHANDWALA     ANDHERI W                               187595804                                                               R17072009600070099000820376901020009758000000                              M 0400000000000187595804   20090819                               982729900  00                                   4001155810411017082009                                                     M              6185A5A75
10038327880604004M S AJMERA HOUSING CORP                 203  BLDG B-25 SHASTRI NAGAR                                                    187598801                               NR LOKHANDWALA ANDHERI W        R17072009600026299000819392102010002972000000                              M 0400000000000187598801   20090819                               299739900  00                                   4001155810411817082009                                                     M              577343576
10038323080604004M S AJMERA HOUSING CORP                 103  BLDG B-25 SHASTRI NAGAR                                                    187598754                               NR LOKHANDWALA ANDHERI W        R17072009700020599000769736803010001525800000                              M 0400000000000187598754   20090819                               155099900  00                                   4001155810412517082009                                                     M              575363777
10038320580604004M S AJMERA HOUSING CORP                 102  BLDG B-25 SHASTRI NAGAR                                                    187598763                               NR LOKHANDWALA ANDHERI W        R17072009600045099000817304203020003458200000                              M 0400000000000187598763   20090819                               349139900  00                                   4001155810413117082009                                                     M              6581B1A78
10037759580604004M S AJMERA HOUSING CORPORATION          S C  BLDG NO B25                        SHASTRI NGR LOKHANDWALA ANDHERI W       187596426                                                               R17072009800052199000624105204010004361900000                              M 0400000000000187596426G  20090819                               441489900  00                                   4001155810413617082009                                                     M              69EDCDC79
10038338980604004M S AJMERA HOUSING CORP                 403  BLDG B-25 SHASTRI NAGAR                                                    187599912                               NR LOKHANDWALA ANDHERI W        R17072009600010799000817605404020001506200000                              M 0400000000000187599912   20090819                               151699900  00                                   4001155810414217082009                                                     M              46D2E2F80
10038332380604004M S AJMERA HOUSING CORP                 302  BLDG B-25 SHASTRI NAGAR                                                    187599362                               NR LOKHANDWALA ANDHERI W        R17072009600025499000817201005010001560500000                              M 0400000000000187599362   20090819                               158079900  00                                   4001155810414917082009                                                     M              55C1F1E81
10038359180604004M S AJMERA HOUSING CORP                 104  BLDG B-25 SHASTRI NAGAR                                                    187600501                               NR LOKHANDWALA ANDHERI W        R17072009800042999000624106206010001773200000                              M 0400000000000187600501G  20090819                               181819900  00                                   4001155810415617082009                                                     M              661222382
10038361380604004M S AJMERA HOUSING CORP                 204  BLDG B-25 SHASTRI NAGAR                                                    187600479                               NR LOKHANDWALA ANDHERI W        R17072009800053299000624108406020003250500000                              M 0400000000000187600479G  20090819                               330369900  00                                   4001155810420417082009                                                     M              6682B2A83
10038364080604004M S AJMERA HOUSING CORP                 304  BLDG B-25 SHASTRI NAGAR                                                    187600452                               NR LOKHANDWALA ANDHERI W        R17072009600000011000540281306030000012900000                              M 0400000000000187600452K  20090819                                    1101  00                                   4001155810421217082009                                                     M               BAFAF884
10038367280604004M S AJMERA HOUSING CORP                 404  BLDG B-25 SHASTRI NAGAR                                                    187601044                               NR LOKHANDWALA ANDHERI W        R17072009600012699000540264007010000477300000                              M 0400000000000187601044K  20090819                                48739900  00                                   4001155810421917082009                                                     M              4591A1B85
10038372180604004M S AJMERA HOUSING CORP                 604  BLDG B-25 SHASTRI NAGAR                                                    187601512                               NR LOKHANDWALA ANDHERI W        R17072009600028899000540275107020000753300000                              M 0400000000000187601512K  20090819                                77289900  00                                   4001155810422417082009                                                     M              563202186
10038369480604004M S AJMERA HOUSING CORP                 504  BLDG B-25 SHASTRI NAGAR                                                    187601027                               NR LOKHANDWALA ANDHERI W        R17072009800015199000624103907030000742800000                              M 0400000000000187601027G  20090819                                75779900  00                                   4001155810422817082009                                                     M              46C2F2E87
10038374680604004M S AJMERA HOUSING CORP                 704  BLDG B-25 SHASTRI NAGAR                                                    187601088                               NEAR LOKHANDWALA ANDHERI W      R17072009600011199000540273308010001356700000                              M 0400000000000187601088K  20090819                               137079900  00                                   4001155810423417082009                                                     M              4C6858488
15069718380604004BHARTI AIRTEL LTD.                      QUEEN LAND CO - OP HSG SOC. LTD.        ANDHERI(WEST),NR LOKHANDWALA,           187609741                               BLDG NO. B-25, SHASTRI NAGAR,   C17072009600061099000544438009010001020600000                              M 0400000000000187609741K  20090819                               108509900  00                                   4001155810424017082009                                                     M              699DEDB89
10038360280604004M S AJMERA HOUSING CORP                 FLAT 105 BLDG B 25 SHALRI NGR           ANDHERI W                               187600491                               NR LOKHANDWALA                  R17072009800023599000624105409020001254000000                              M 0400000000000187600491G  20090819                               127379900  00                                   4001155810424917082009                                                     M              58FCCCD90
10038375680604004M S AJMERA HOUSING CORP                 705  BLDG B-25 SHASTRI NAGAR                                                    187601079                               NR LOKHANDWALA circle           R17072009600011499000540280710010000856200000                              M 0400000000000187601079K  20090819                                87809900  00                                   4001155810425417082009                                                     M              4D6959491
15085712680604004MR.ELLIS S. MAZARELLO                   FLAT-505    QUEENSLAND CHS.BLDG.B-25    SHASTRI NGR, NR LOKHANDWALA             187601014                               ANDHERI (WEST)                  R17072009600038699000540276710020001595600000                              M 0400000000000187601014K  20090819                               163779900  00                                   4001155810430017082009                                                     M              6A9EDEB92
10038365180604004M S AJMERA HOUSING CORP                 305  BLDG B-25 SHASTRI NAGAR                                                    187601058                               NR LOKHANDWALA ANDHERI W        R17072009800020699000624107911010001135300000                              M 0400000000000187601058G  20090819                               115909900  00                                   4001155810430917082009                                                     M              56F2C2D93
10038362780604004GULZAR KHAN                             205  BLDG B-25 SHASTRI NAGAR                                                    187600465                               NR LOKHANDWALA ANDHERI W        R17072009600053099000540281011020002087700000                              M 0400000000000187600465K  20090819                               215859900  00                                   4001155810431717082009                                                     M              6EBAAA994
10038368180604004M S AJMERA HOUSING CORP                 405  BLDG B-25 SHASTRI NAGAR                                                    187601035                               NR LOKHANDWALA ANDHERI W        R17072009800005799000624106712010001050800000                              M 0400000000000187601035G  20090819                               105089900  06Z                                  4001155810433317082009                                                     M              399DADB95
10038373380604004M S AJMERA HOUSING CORP                 605  BLDG B-25 SHASTRI NAGAR                                                    187601103                               NR LOKHANDWALA ANDHERI W        R17072009600023099000690160412020000669300000                              M 0400000000000187601103   20090819                                68829900  00                                   4001155810434217082009                                                     M              52A696896
10038351980604004M S AJMERA HOUSING CORP                 701  BLDG B-25 SHASTRI NAGAR                                                    187600423                               NR LOKHANDWALA ANDHERI W        R17072009600000099000809623413010003026800000                              M 0400000000000187600423   20090819            02                 302689900  06Z                                  4001155810440917082009   30268   30628                                     M              164262697
15065726580604004SUNIL PATEL                             706    QUEENSLAND CHS LTD,BLDG NO 25    SHASTRI NAGAR                           187599989                               ANDHERI-WEST                    R17072009700027399000785636213020000350000000                              M 0400000000000187599989   20090819                                37239900  00                                   4001155810441617082009                                                     M              567242598
10038350680604004M S AJMERA HOUSING CORP                 606  BLDG B-25 SHASTRI NAGAR                                                    187600437                               NR LOKHANDWALA ANDHERI W        R17072009600000099000817299314010000737500000                              M 0400000000000187600437   20090819            01                  75669900  H1                                   4001155810442817082009     755                                             M              1C6858499
10038346580604004M S AJMERA HOUSING CORP                 601  BLDG B-25 SHASTRI NAGAR                                                    187599956                               NR LOKHANDWALA ANDHERI W        R17072009600023199000817250415010003715100000                              M 0400000000000187599956   20090819                               374129900  00                                   4001155810443617082009                                                     M              5723130100
10038341080604004M S AJMERA HOUSING CORP                 501  BLDG B-25 SHASTRI NAGAR                                                    187599390                               NR LOKHANDWALA ANDHERI W        R17072009600042099000817279615020004773400000                              M 0400000000000187599390   20090819                               481879900  00                                   4001155810444217082009                                                     M              67E3D3C101
10038344880604004M S AJMERA HOUSING CORP                 506  BLDG B-25 SHASTRI NAGAR                                                    187599964                               NEAR LOKHANDWALA COMPLEX        R17072009600030799000817189516010004800900000                              M 0400000000000187599964   20090819                               482789900  00                                   4001155810444817082009                                                     M              6CE8D8C102
10038340380604004M S AJMERA HOUSING CORP                 406  BLDG B-25 SHASTRI NAGAR                                                    187599400                               NR LOKHANDWALA ANDHERI W        R17072009600069199000817239116020004482700000                              M 0400000000000187599400   20090819                               455109900  00                                   4001155810445417082009                                                     M              6602322103
10038336180604004M S AJMERA HOUSING CORP                 401  BLDG B-25 SHASTRI NAGAR                                                    187599338                               NR LOKHANDWALA ANDHERI W        R17072009600008999000809624017010001522400000                              M 0400000000000187599338   20090819                               153199900  00                                   4001155810450117082009                                                     M              3602322104
10038330680604004M S AJMERA HOUSING CORP                 301  BLDG B-25 SHASTRI NAGAR                                                    187599372                               NR LOKHANDWALA ANDHERI W NEAR SWR17072009700056499000781374117020000940300000                              M 0400000000000187599372   20090819                               101799900  00                                   4001155810450717082009                                                     M              67A3838105
10038334880604004M S AJMERA HOUSING CORP                 306  BLDG B-25 SHASTRI NAGAR                                                    187599349                               NR LOKHANDWALA ANDHERI W        R17072009600061499000823014818010005734100000                              M 0400000000000187599349   20090819                               579819900  00                                   4001155810451217082009                                                     M              685C6C7106
10038324980604004M S AJMERA HOUSING CORP                 201  BLDG B-25 SHASTRI NAGAR                                                    187599320                               NEAR LOKHANDWALA ANDHERI W      R17072009700026599000779757019010000833100000                              M 0400000000000187599320   20090819                                85779900  00                                   4001155810451617082009                                                     M              5ACEFEE107
10038329480604004M S AJMERA HOUSING CORP                 206  BLDG B-25 SHASTRI NAGAR                                                    187598793                               NR LOKHANDWALA ANDHERI W        R17072009600050299000817159719020005547500000                              M 0400000000000187598793   20090819                               559229900  00                                   4001155810452217082009                                                     M              688CBCA108
10038319780604004M S AJMERA HOUSING CORP                 101  BLDG B-25 SHASTRI NAGAR                                                    187598772                               NR LOKHANDWALA ANDHERI W        R17072009600076099000817346520010010389900000                              M 0400000000000187598772   20090819                              1046519900  00                                   4001155810452917082009                                                     M              793D0D1109
10038324280604004M S AJMERA HOUSING CORP                 106  BLDG B-25 SHASTRI NAGAR                                                    187599326                               NR LOKHANDWALA ANDHERI W        R17072009600023599000817641720020002791000000                              M 0400000000000187599326   20090819                               279939900  00                                   4001155810453517082009                                                     M              5743736110
10038353980604004M S AJMERA HOUSING CORP                 702  BLDG B-25 SHASTRI NAGAR                                                    187600410                               NR LOKHANDWALA ANDHERI W        R17072009600030399000817421821010004179500000                              M 0400000000000187600410   20090819                               421129900  00                                   4001155810453917082009                                                     M              6460504111
10038349980604004M S AJMERA HOUSING CORP                 603  BLDG B-25 SHASTRI NAGAR                                                    187599939                               NR LOKHANDWALA ANDHERI W        R17072009600049199000815856221020001374800000                              M 0400000000000187599939   20090819                               142759900  00                                   4001155810454517082009                                                     M              69FDCDD112
15099722080604004MRS. AISHA WAWDA                        B/602    QUEENSLAND CHS. LTD.,BLDG. NO. SHASTRI NAGAR, NR LOKHANDWALA,          187599949                               ANDHERI (WEST),                 R17072009600017999000817551622010004673200000                              M 0400000000000187599949   20090819                               469119900  00                                   4001155810455117082009                                                     M              47B3F39113
10038355680604004M S AJMERA HOUSING CORP                 703  BLDG B-25 SHASTRI NAGAR                                                    187600000                               NR LOKHANDWALA ANDHERI W        R17072009600030499000817232222020004989800000                              M 0400000000000187600000   20090819                               502029900  00                                   4001155810455717082009                                                     M              6387B7A114
10038342780604004M S AJMERA HOUSING CORP                 502  BLDG B-25 SHASTRI NAGAR                                                    187599382                               NR LOKHANDWALA ANDHERI W        R17072009600011099000817154723010000494300000                              M 0400000000000187599382   20090819                                51429900  00                                   4001155810460117082009                                                     M              44A0908115
10038343580604004M S AJMERA HOUSING CORP                 503  BLDG B-25 SHASTRI NAGAR                                                    187599970                               NR LOKHANDWALA ANDHERI W        R17072009600053799000817213024010004736300000                              M 0400000000000187599970   20090819                               479519900  00                                   4001155810460717082009                                                     M              6783B3A116
15067219080604004VISHNU NAVANI                           B25/402    QUEENSLAND COOP HSG SOC  LTD ANDHERI W                               187599928                               SHASTRINAGAR                    R17072009600049599000767124424020002721500000                              M 0400000000000187599928   20090819                               277129900  00                                   4001155810461317082009                                                     M              68BC8C9117
10037760780604004M S AJMERA HOUSING CORPORATION          L F  BLDG NO B25                        SHASTRI NGR LOKHANDWALA ANDHERI W       187596413                                                               R17072009600056199000820533926020004722100000                              M 0400000000000187596413   20090819                               477929900  00                                   4001155810461917082009                                                     M              67F3D3D118
10039460580604005AJMERA HOUSING CORPORATION              3 BLD B 26 SHASTRI NGR LOKHANDWALA      CIRCLE R T O RD ANDHERI W               187589152                                                               C17072009600064199000540269501010003517000000                              M 0400000000000187589152K  20090819                               357789900  00                                   4001155810473817082009                                                     M              64B0E09119
10041191480604005JITENDRAPRASAD ROY                      B-26 WELLINGTON CHS SH-7A               SHASHTRI NAGAR ANDHERI  W               187592075                                                               C17072009700000099000653587401020000468200000                              M 0400000000000187592075   20090819                                46829900  06Z                                  4001155810474417082009                                                     M              1286B6A120
10040520980604005MRS KUMAR NADAR                         SH 2 BLDG NO B-26 WEELLINGTON           SHASTRI NAGAR ANDHERI W                 187589199                                                               C17072009600014599000540261801030001000600000                              M 0400000000000187589199K  20090819                               101399900  00                                   4001155810475117082009                                                     M              4C38381121
10039458980604005AJMERA HOUSING CORPORATION              2 BLD B 26 SHASTRI NGR LOKHANDWALA      CIRCLE R T O RD ANDHERI W               187588508                                                               C17072009600024299000539708802010000750900000                              M 0400000000000187588508K  20090819                                77219900  00                                   4001155810475517082009                                                     M              54C090E122
10039463180604005AJMERA HOUSING CORPORATION              5 BLD B 26 SHASTRI NGR LOKHANDWALA      CIRCLE R T O RD ANDHERI W               187589115                                                               C17072009600076699000539705002020003975200000                              M 0400000000000187589115K  20090819                               404889900  00                                   4001155810475917082009                                                     M              75C191E123
15001096080604005PRITAM LUDHANI                          6,GR. FLR.,  26 ,WILLINGTON,SHASTRI     ANDHERI W                               187588606                                                               C17072009600061199000540257602030003532600000                              M 0400000000000187588606K  20090819            01                 359759900  00                                   4001155810481517082009    3575                                             M              6004042124
10040036180604005AJMERA HOUSING CORPORATION              8 BLD B 26 SHASTRI NGR LOKHANDWALA      CIRCLE R T O RD ANDHERI W               187589610                                                               C17072009600098699000702206403010003166300000                              M 0400000000000187589610K  20090819                               326099900  00                                   4001155810482017082009                                                     M              73F7A7D125
10039461980604005AJMERA HOUSING CORPORATION              4 BLD B 26 SHASTRI NGR LOKHANDWALA      CIRCLE R T O RD ANDHERI W               187589141                                                               C17072009600014099000574537203020001186700000                              M 0400000000000187589141K  20090819                               120159900  00                                   4001155810482417082009                                                     M              43E7B7C126
10039466680604005SUJATA ANILKUMAR R BATHIJA              SH 7    WELLINGTION BLD B 26 SHASTRI NGRLOKHANDWALA CIRCLE R T O RD ANDHERI     187588588                                                               C17072009600029499000558302503030000842400000                              M 0400000000000187588588K  20090819                                87919900  00                                   4001155810482917082009                                                     M              5226560127
10039457380604005AISHA R IQBAL H A R DAMRA               SH NO 1    BLDG B-26 WELLINGTON SHASTRI LOKHANDWALA CIRCLE R T O RD ANDHERI     187588519                                                               C17072009700021299000753504904010001640100000                              M 0400000000000187588519   20090819                               166169900  00                                   4001155810483817082009                                                     M              5F1B4B3128
10038300480604006M USHA TEJWANI                          BLDG NO 26-B WELLING CO-OP HSG FLAT     104 1ST FLR LOKHANDWALA ANDHERI W       187598114                                                               R17072009800017899000624106001010001267500000                              M 0400000000000187598114G  20090819                               128259900  00                                   4001155810494917082009                                                     M              45D1F1F129
10037766480604006M S AJMERA HOUSING CORP                 103  BLDG B-26 SHASTRI NAGAR            ANDHERI W                               187596469                               NR LOKHANDWALA                  R17072009600062799000817360201020001945000000                              M 0400000000000187596469   20090819                               201899900  00                                   4001155810495517082009                                                     M              685C6C7130
10037770880604006M S AJMERA HOUSING CORP                 203  BLDG B-26 SHASTRI NAGAR            ANDHERI W                               187597030                               NR LOKHANDWALA                  R17072009600025499000822174101030003842900000                              M 0400000000000187597030   20090819                               388099900  00                                   4001155810500217082009                                                     M              55A1918131
29037765180604006M S AJMERA HOUSING CORP                 102  BLDG B-26 SHASTRI NAGAR            ANDHERI W                               187596481                               NR LOKHANDWALA                  R17072009600026099000809623502010005469400000                              M 0400000000000187596481   20090819            01                 549299900  00                                   4001155810501617082009      64                                             M              5CC8F8E132
15058546880604006MR.YAGNESH PARIKH                       B-26/202    WELLINGTON CHS. LTD.        SHASTRI NAGAR                           187597040                               NR LOKHANDWALA ANDHERI W        R17072009600048399000812071102020008085300000                              M 0400000000000187597040   20090819                               812359900  00                                   4001155810503917082009                                                     M              6105552133
10037777180604006KIRAN JETHANI                           WELLINGTON    CHS LTD FLAT NO 303 BLDG BSHASTRI NGR NR- LOKHHANDWALA ANDHER     187597095                                                               R17072009600049799000819649603010004493100000                              M 0400000000000187597095   20090819                               454009900  00                                   4001155810504617082009                                                     M              6652027134
10037775280604006M S AJMERA HOUSING CORP                 302  BLDG B-26 SHASTRI NAGAR            ANDHERI W                               187596499                               NR LOKHANDWALA                  R17072009600032099000809735103020010614900000                              M 0400000000000187596499   20090819                              1063759900  00                                   4001155810505317082009                                                     M              688CBCA135
10038302680604006M S AJMERA HOUSING CORP                 I J  BLDG B-26 SHASTRI NAGAR            ANDHERI W                               187598199                               NR LOKHANDWALA                  R17072009600060499000540229604010002044500000                              M 0400000000000187598199K  20090819                               206699900  L6                                   4001155810510217082009                                                     M              6D29190136
10037780380604006KHALID AHMED                            M S AJMERA    HOSUING CORP 402 BLDG B 26NGR NR LOKHANDWALA ANDHERI W            187597061                               NR LOKHANDWALA                  R17072009600022499000809721404020007967200000                              M 0400000000000187597061   20090819                               798770503  00                                   4001155810515717082009                                                     M              5BBFEF9137
15091416180604006MR.PRAVIN V.SHETH SHETH                 FLAT-403    BLDG B-26,WELLINGTON CHS.LTDSHASTRI NAGAR,NR LOKHANDWALA CIRCLE     187597051                               ANDHERI-WEST                    R17072009600041699000809699504030007732100000                              M 0400000000000187597051   20090819            01                 777150503  00                                   4001155810522017082009   17715                                             M              6551C17138
10038307880604006M S AJMERA HOUSING CORP                 404  BLDG B-26 SHASTRI NAGAR            ANDHERI W                               187598163                               NR LOKHANDWALA                  R17072009600024999000565185505010000932300000                              M 0400000000000187598163K  20090819                                95459900  00                                   4001155810522817082009                                                     M              593D0D1139
15056575380604006ARJUN KRIPALANI                         504    BLDG B-26 SHASTRI NAGAR          ANDHERI W                               187598740                               NR LOKHANDWALA                  R17072009600020999000540279105020001678300000                              M 0400000000000187598740K  20090819                               169969900  00                                   4001155810523317082009                                                     M              5CD8D8F140
10037786380604006M S AJMERA HOUSING CORP                 502  BLDG B-26 SHASTRI NAGAR            ANDHERI W                               187597623                               NR LOKHANDWALA                  R17072009600008199000809808105030001674300000                              M 0400000000000187597623   20090819                               168209900  00                                   4001155810524417082009                                                     M              3753637141
15080008880604006VARUN BHATIA                            B-26/604    WELLINGTON CHS, SHASTRI NGR,NEAR LOKHANDWALA CIRCLE,                187598721                               ANDHERI (WEST)                  R17072009800008699000624107706010000821300000                              M 0400000000000187598721G  20090819                                82889900  00                                   4001155810525517082009                                                     M              38BCEC9142
10037787780604006M S AJMERA HOUSING CORP                 503  BLDG B-26 SHASTRI NAGAR            ANDHERI W                               187597614                               NR LOKHANDWALA                  R17072009600056899000809716606020008716200000                              M 0400000000000187597614   20090819                               878110503  00                                   4001155810531717082009                                                     M              68DCECF143
10037791580604006M S AJMERA HOUSING CORP                 602  BLDG B-26 SHASTRI NAGAR            ANDHERI W                               187597685                               NR LOKHANDWALA                  R17072009600004499000809594507010003129000000                              M 0400000000000187597685   20090819                               313419900  00                                   4001155810532717082009                                                     M              37A3938144
10037792780604006M S AJMERA HOUSING CORP                 603  BLDG B-26 SHASTRI NAGAR            ANDHERI W                               187597679                               NR LOKHANDWALA                  R17072009600028099000817504007020005913800000                              M 0400000000000187597679   20090819                               593139900  00                                   4001155810533417082009                                                     M              588CBCA145
10037796580604006M S AJMERA HOUSING CORP                 702  BLDG B-26 SHASTRI NAGAR            ANDHERI W                               187598138                               NR LOKHANDWALA                  R17072009600046599000767125508010001979400000                              M 0400000000000187598138   20090819                               205059900  00                                   4001155810534017082009                                                     M              682C1C0146
10037798380604006M S AJMERA HOUSING CORP                 703  BLDG B-26 SHASTRI NAGAR            ANDHERI W                               187598129                               NR LOKHANDWALA                  R17072009600028199000809634108020003087800000                              M 0400000000000187598129   20090819                               311849900  00                                   4001155810540117082009                                                     M              5783B3A147
10038316780604006M S AJMERA HOUSING CORP                 704  BLDG B-26 SHASTRI NAGAR            ANDHERI W                               187598790                               NR LOKHANDWALA                  R17072009600026199000540263609010001602000000                              M 0400000000000187598790K  20090819                               162869900  00                                   4001155810540917082009                                                     M              5A7E4E5148
10038304880604006M S AJMERA HOUSING CORP                 304  BLDG B-26 SHASTRI NAGAR            ANDHERI W                               187598185                               NR LOKHANDWALA                  R17072009600015799000540247509020000987000000                              M 0400000000000187598185K  20090819                               100369900  00                                   4001155810541417082009                                                     M              49EDDDC149
15103575180604006DR.MONALI SHENOY                        405  WELLINGTON CHS. LTD.               BLDG B-26 SHASTRI NAGAR                 187598747                               LOKHANDWALA CIRCLE ANDHERI W    R17072009600044699000540234410010001165800000                              M 0400000000000187598747K  20090819                               120759900  00                                   4001155810542017082009                                                     M              6430701150
10037779480604006M S AJMERA HOUSING CORP                 401  BLDG B-26 SHASTRI NAGAR            ANDHERI W                               187597073                               NR LOKHANDWALA                  R17072009600057899000815454210020007381100000                              M 0400000000000187597073   20090819                               743989900  00                                   4001155810542617082009                                                     M              683C0C1151
10037773680604006LAXMI KRIPALANI                         301  BLDG B-26 SHASTRI NAGAR            ANDHERI W                               187597010                               NR LOKHANDWALA                  R17072009700027299000787666210030000228700000                              M 0400000000000187597010   20090819            01                  25699900  00                                   4001155810543817082009    2586                                             M              5E1A1A3152
10038306880604006M S AJMERA HOUSING CORP                 305  BLDG B-26 SHASTRI NAGAR            ANDHERI W                               187598174                               NR LOKHANDWALA                  R17072009800018899000624120011010001986800000                              M 0400000000000187598174G  20090819                               200759900  00                                   4001155810544617082009                                                     M              490D3D2153
10037763780604006M S AJMERA HOUSING CORP                 101  BLDG B-26 SHASTRI NAGAR            ANDHERI W                               187596492                               NR LOKHANDWALA                  R17072009600035399000815997411020005129500000                              M 0400000000000187596492   20090819                               517339900  00                                   4001155810545017082009                                                     M              6793A3B154
15029266080604006CADILA HEATH CARE LTD                   105,    WELLIGNTON CHS LTD., BLDG NO B-2SHASTRI NAGAR, NR LOKHANDWALA COMPLEX,  187597705                               ANDHERI (W)                     R17072009600014299000540265712010000394200000                              M 0400000000000187597705K  20090819                                40839900  00                                   4001155810545517082009                                                     M              49FD8DD155
15029266380604006CADILA HEATH CARE LTD                   106,    WELLIGNTON CHS LTD., BLDG NO B-2SHASTRI NAGAR, NR LOKHANDWALA COMPLEX,  187596456                               ANDHERI (W) samartha circle     R17072009700031399000788285412020000135600000                              M 0400000000000187596456   20090819                                16989900  00                                   4001155810550117082009                                                     M              680CBC2156
10038303880604006M S AJMERA HOUSING CORP                 205  BLDG B-26 SHASTRI NAGAR            ANDHERI W                               187598192                               NR LOKHANDWALA                  R17072009600022499000540236213010000715100000                              M 0400000000000187598192K  20090819                                73649900  00                                   4001155810550917082009                                                     M              57D3E3F157
10037772480604006M S AJMERA HOUSING CORP                 206  BLDG B-26 SHASTRI NAGAR            ANDHERI W                               187597019                               NR LOKHANDWALA                  R17072009600024799000809735713020003658900000                              M 0400000000000187597019   20090819                               368259900  00                                   4001155810551817082009                                                     M              58CCFCE158
10038312380604006M S AJMERA HOUSING CORP                 505  BLDG B-26 SHASTRI NAGAR            ANDHERI W                               187598733                               NR LOKHANDWALA                  R17072009600014699000628850814010001046700000                              M 0400000000000187598733G  20090819                               106419900  00                                   4001155810552917082009                                                     M              491D2D3159
10037768980604006M S AJMERA HOUSING CORP                 201  BLDG B-26 SHASTRI NAGAR            ANDHERI W                               187596444                               NR LOKHANDWALA                  R17072009600044999000814277414020007871600000                              M 0400000000000187596444   20090819                               792639900  00                                   4001155810553417082009                                                     M              696D5D4160
10038315280604006M S AJMERA HOUSING CORP                 605  BLDG B-26 SHASTRI NAGAR            ANDHERI W                               187598710                               NR LOKHANDWALA                  R17072009800011599000624105715010001202100000                              M 0400000000000187598710G  20090819                               121259900  00                                   4001155810553817082009                                                     M              4723130161
10037778480604006M S AJMERA HOUSING CORP                 306  BLDG B-26 SHASTRI NAGAR            ANDHERI W                               187597085                               NR LOKHANDWALA                  R17072009600042199000815924615020005248800000                              M 0400000000000187597085   20090819                               528159900  00                                   4001155810554317082009                                                     M              68FCCCD162
10038318480604006M S AJMERA HOUSING CORP                 705  BLDG B-26 SHASTRI NAGAR            ANDHERI W                               187598784                               NR LOKHANDWALA                  R17072009800017399000624106516010000927400000                              M 0400000000000187598784G  20090819                                94509900  00                                   4001155810554717082009                                                     M              49BD8D9163
10037783580604006REKHA MR SHYAM M LALA                   406  BLDG B-26 SHASTRI NAGAR            ANDHERI W                               187597643                               NR LOKHANDWALA                  R17072009600030499000815655616020005235200000                              M 0400000000000187597643   20090819                               526009900  00                                   4001155810555317082009                                                     M              60E4D4C164
10037795580604006M S AJMERA HOUSING CORP                 701  BLDG B-26 SHASTRI NAGAR            ANDHERI W                               187597656                               NR LOKHANDWALA                  R17072009700041999000787605717010000482300000                              M 0400000000000187597656   20090819                                52589900  00                                   4001155810555817082009                                                     M              68FCCCD165
10037799380604006M S AJMERA HOUSING CORP                 706  BLDG B-26 SHASTRI NAGAR            ANDHERI W                               187598124                               NR LOKHANDWALA                  R17072009600022899000809594817020002992100000                              M 0400000000000187598124   20090819                               301350503  00                                   4001155810561417082009                                                     M              57D3E3F166
10037790780604006M S AJMERA HOUSING CORP                 601  BLDG B-26 SHASTRI NAGAR            ANDHERI W                               187597698                               NR LOKHANDWALA COMPLEX          R17072009600013699000809623318010002690300000                              M 0400000000000187597698   20090819                               270179900  00                                   4001155810562317082009                                                     M              4C58787167
10037794180604006M S AJMERA HOUSING CORP                 606  BLDG B-26 SHASTRI NAGAR            ANDHERI W                               187597668                               NR LOKHANDWALA                  R17072009600018899000809653518020004034100000                              M 0400000000000187597668   20090819                               404990503  00                                   4001155810563517082009                                                     M              489CACB168
10037784580604006M S AJMERA HOUSING CORP                 501  BLDG B-26 SHASTRI NAGAR            ANDHERI W                               187597635                               NR LOKHANDWALA                  R17072009600025099000809700019010003316900000                              M 0400000000000187597635   20090819                               334209900  00                                   4001155810564517082009                                                     M              5763534169
10037789180604006M S AJMERA HOUSING CORP                 506  BLDG B-26 SHASTRI NAGAR            ANDHERI W                               187597107                               NR LOKHANDWALA                  R17072009600051699000814250619020005114000000                              M 0400000000000187597107   20090819                               517269900  00                                   4001155810565417082009                                                     M              6753637170
10037755180604006M S AJMETA HOSUING CORPORATION          S C  BLDG NO B-26 SHASTRI NGR           ABHISHEK APT LINK ROAD ANDHERI W        187595752                                                               R17072009600089699000540264220010003952200000                              M 0400000000000187595752K  20090819                               404099900  00                                   4001155810565817082009                                                     M              7094D4B171
10037756280604006M S AJMETA HOSUING CORPORATION          W P  BLDG NO B-26 SHASTRI NGR           ANDHERI W LOKHAANDWALA                  187595733                                                               R17072009700105099000765507621010004990300000                              M 0400000000000187595733   20090819                               510149900  00                                   4001155810570317082009                                                     M              7B1F3F3172
10037757680604006M S AJMETA HOSUING CORPORATION          LIFT BLDG NO B-26 SHASTRI NGR           ANDHERI W LOKHAANDWALA                  187596434                                                               R17072009700023599000765508922010001510900000                              M 0400000000000187596434   20090819                               153519900  00                                   4001155810570817082009                                                     M              50F4A4D173
10035078780604007AJMERA HOUSING CORPORATION              705 6 GOLDENRAYS SHASTRI WING-X         ANDHERI W                               187607256                               OFF J P ROAD 4-BUNGLOW          R17072009700024999000753241401010001518700000                              M 0400000000000187607256   20090819                               154769900  00                                   4001155811040917082009                                                     M              50F4B4D174
10035089280604007AJMERA HOUSING CORPORATION              905 6 GOLDENRAYS SHASTRI WING-X         ANDHERI W                               187607800                               OFF J P ROAD 4-BUNGLOW          R17072009700037899000753150101020002453600000                              M 0400000000000187607800   20090819                               249249900  00                                   4001155811041717082009                                                     M              6FEBBBC175
10035090380604007AJMERA HOUSING CORPORATION              1001 GOLDENRAYS SHASTRI N WING-X        ANDHERI W                               187607786                               OFF J P ROAD 4-BUNGLOW          R17072009700139899000753143502010001452500000                              M 0400000000000187607786   20090819                               159379900  00                                   4001155811042617082009                                                     M              7347076176
10035084880604007AJMERA HOUSING CORPORATION              901 GOLDENRAYS SHASTRI NA WING-X        ANDHERI W                               187607719                               OFF J P ROAD 4-BUNGLOW          R17072009700045799000753235702020001878500000                              M 0400000000000187607719   20090819                               191459900  00                                   4001155811043117082009                                                     M              6490D0B177
10035094480604007AJMERA HOUSING CORPORATION              1005 GOLDENRAYS SHASTRI N WING-X        ANDHERI W                               187608372                               OFF J P ROAD 4-BUNGLOW          R17072009700043799000753240903010004049200000                              M 0400000000000187608372   20090819                               408669900  00                                   4001155811044117082009                                                     M              6226660178
15090932880604007KASHINATH INGLE                         X-1105 GOLDEN RAYS CHS.                 SHASTRI NAGAR, OFF J.P.ROAD             187608321                               ANDHERI (WEST)                  R17072009700046999000753238404010002132900000                              M 0400000000000187608321   20090819                               217619900  00                                   4001155811044717082009                                                     M              6286A6A179
10035502780604007AJMERA HOUSING CORPORATION              1201 GOLDENRAYS SHASTRI N WING-X        ANDHERI W                               187608735                               OFF J P ROAD 4-BUNGLOW          R17072009700022599000789266205010000046500000                              M 0400000000000187608735   20090819                                 6939900  00                                   4001155811045117082009                                                     M              5044046180
10035513480604007AJMERA HOUSING CORPORATION              1305 GOLDENRAYS SHASTRI N WING-X        ANDHERI W                               187608760                               OFF J P ROAD 4-BUNGLOW          R17072009700038899000753240705020003087200000                              M 0400000000000187608760   20090819                               312589900  00                                   4001155811045617082009                                                     M              6296D6B181
10035508180604007AJMERA HOUSING CORPORATION              1301 GOLDENRAYS SHASTRI N WING-X        ANDHERI W                               187608401                               OFF J P ROAD 4-BUNGLOW          R17072009700064799000768103306010002329800000                              M 0400000000000187608401   20090819                               237209900  00                                   4001155811050117082009                                                     M              6084C4A182
10035068680604007AJMERA HOUSING CORPORATION              601 GOLDENRAYS SHASTRI NA WING-X        ANDHERI W                               187607227                               next to lokhanwala complex      R17072009700048099000753236006020002166100000                              M 0400000000000187607227   20090819                               222649900  00                                   4001155811050517082009                                                     M              62B6369183
10035061080604007AJMERA HOUSING CORPORATION              405 6 GOLDENRAYS SHASTRI WING-X         ANDHERI W                               187606842                               OFF J P ROAD 4-BUNGLOW          R17072009700045399000779124407010001046400000                              M 0400000000000187606842   20090819                               108819900  00                                   4001155811051417082009                                                     M              6F4B1B6184
10035507180604007AJMERA HOUSING CORPORATION              1205 GOLDENRAYS SHASTRI N WING-X        ANDHERI W                               187608406                               BHND FAME AD LAB                R17072009700032199000753241007020002043700000                              M 0400000000000187608406   20090819                               206999900  00                                   4001155811052117082009                                                     M              6266364185
15087763780604007MURLI MULCHANDANI                       X/1101    GOLDENRAYS CHS.               SHASTRI NGR, FOUR BUNGLOWS              187608364                               OFF J P ROAD, ANDHERI (WEST)    R17072009700030999000753234708010001621700000                              M 0400000000000187608364   20090819                               165889900  00                                   4001155811052617082009                                                     M              682C6C0186
10035043280604007AJMERA HOUSING CORPORATION              105 6 GOLDENRAYS SHASTRI WING-X         ANDHERI W                               187606334                               OFF J P ROAD 4-BUNGLOW          R17072009700045299000753149108020001969900000                              M 0400000000000187606334   20090819                               197769900  L6                                   4001155811053717082009                                                     M              62A6E68187
10035039680604007AJMERA HOUSING CORPORATION              101 GOLDENRAYS SHASTRI NA WING-X        OFF J P ROAD 4-BUNGLOW ANDHERI W        187605820                               NEAR FAME ADLABS                R17072009700019399000753152409010001987300000                              M 0400000000000187605820   20090819                               200479900  00                                   4001155811054217082009                                                     M              4480E0A188
10035072580604007AJMERA HOUSING CORPORATION              605 6 GOLDENRAYS SHASTRI WING-X         ANDHERI W                               187607302                               OFF J P ROAD 4-BUNGLOW          R17072009700032799000753158910010002299700000                              M 0400000000000187607302   20090819                               233299900  00                                   4001155811054717082009                                                     M              6F8BDBA189
10035054580604007ANIL SINGHANIA                          X-305 6 GOLDEN RAYS                     SHASTRI NAGAR LOKHANDWALA ANDHERI W     187606359                                                               R17072009700037099000753240610020002009700000                              M 0400000000000187606359   20090819                               205719900  00                                   4001155811055217082009                                                     M              6EBABA9190
10035044580604007AJMERA HOUSING CORPORATION              201 GOLDENRAYS SHASTRI NA WING-X        ANDHERI W                               187606323                               OFF J P ROAD 4-BUNGLOW          R17072009700059999000774073111010001473000000                              M 0400000000000187606323   20090819                               149359900  L6                                   4001155811060417082009                                                     M              6400402191
10035049380604007AJMERA HOUSING CORPORATION              205 6 GOLDENRAYS SHASTRI WING-X         ANDHERI W OSHIWARA                      187605891                               OFF J P ROAD 4-BUNGLOW          R17072009700041799000753149511020003488400000                              M 0400000000000187605891   20090819                               753309900  H6     OK                            4001155811063217082009                                                     M              6D89F9A192
10035061980604007AJMERA HOUSING CORPORATION              501 GOLDENRAYS SHASTRI NA WING-X        ANDHERI W                               187606823                               OFF J P ROAD 4-BUNGLOW          R17072009700032999000753241912010001099500000                              M 0400000000000187606823   20090819                               112409900  00                                   4001155811063817082009                                                     M              6367274193
10035067480604007AJMERA HOUSING CORPORATION              505 6 GOLDENRAYS SHASTRI WING-X         ANDHERI W                               187607234                               OFF J P ROAD 4-BUNGLOW          R17072009700004099000753240812020001055700000                              M 0400000000000187607234   20090819                               105579900  06Z                                  4001155811064817082009                                                     M              3296D6B194
10035056180604007AJMERA HOUSING CORPORATION              401 GOLDENRAYS SHASTRI NA WING-X        ANDHERI W                               187606347                               NEAR HDFC BANK                  R17072009700019199000753238513010001990900000                              M 0400000000000187606347   20090819                               202799900  00                                   4001155811065417082009                                                     M              4307572195
10035082680604007AJMERA HOUSING CORPORATION              805 6 GOLDENRAYS SHASTRI WING-X         ANDHERI W                               187607733                               OFF J P ROAD 4-BUNGLOW          R17072009700116099000753143213020006096200000                              M 0400000000000187607733   20090819                               621429900  00                                   4001155811065917082009                                                     M              7064244196
15010096980604007LAXMAN FATNANI                          X-701    GOLDEN RAYS CHS                ANDHERI W                               187607294                               OFF J P ROAD 4-BUNGLOW SHASTRI NR17072009700051399000772665114010001966200000                              M 0400000000000187607294   20090819                               202509900  00                                   4001155811070317082009                                                     M              6E1A2A3197
10035050680604007AJMERA HOUSING CORPORATION              301 GOLDENRAYS SHASTRI NA WING-X        ANDHERI W                               187606398                               OFF J P ROAD 4-BUNGLOW          R17072009700039899000765155414020001625800000                              M 0400000000000187606398   20090819                               167819900  00                                   4001155811071217082009                                                     M              64E0A0C198
10035036680604007AJMERA HOUSING CORPORATION              S C GOLDENRAYS SHASTRI NA WING-X        ANDHERI W                               187605876                               OFF J P ROAD 4-BUNGLOW          R17072009700281599000768657215010009485800000                              M 0400000000000187605876   20090819                               971289900  00                                   4001155811072117082009                                                     M              882C6C0199
10035038480604007AJMERA HOUSING CORPORATION              LIFT GOLDENRAYS SHASTRI N WING-X        ANDHERI W                               187605844                               OFF J P ROAD 4-BUNGLOW          R17072009700123799000768648015020006485700000                              M 0400000000000187605844   20090819                               660729900  00                                   4001155811072617082009                                                     M              7AEEAEC200
